{
  "contractName": "DappTokenSale",
  "abi": [
    {
      "inputs": [
        {
          "internalType": "contract Token",
          "name": "_tokenContract",
          "type": "address"
        },
        {
          "internalType": "uint256",
          "name": "_tokenPrice",
          "type": "uint256"
        }
      ],
      "stateMutability": "nonpayable",
      "type": "constructor"
    },
    {
      "anonymous": false,
      "inputs": [
        {
          "indexed": false,
          "internalType": "address",
          "name": "_buyer",
          "type": "address"
        },
        {
          "indexed": false,
          "internalType": "uint256",
          "name": "_amount",
          "type": "uint256"
        }
      ],
      "name": "Sell",
      "type": "event"
    },
    {
      "inputs": [],
      "name": "tokenContract",
      "outputs": [
        {
          "internalType": "contract Token",
          "name": "",
          "type": "address"
        }
      ],
      "stateMutability": "view",
      "type": "function"
    },
    {
      "inputs": [],
      "name": "tokenPrice",
      "outputs": [
        {
          "internalType": "uint256",
          "name": "",
          "type": "uint256"
        }
      ],
      "stateMutability": "view",
      "type": "function"
    },
    {
      "inputs": [],
      "name": "tokensSold",
      "outputs": [
        {
          "internalType": "uint256",
          "name": "",
          "type": "uint256"
        }
      ],
      "stateMutability": "view",
      "type": "function"
    },
    {
      "inputs": [
        {
          "internalType": "uint256",
          "name": "_numberOfTokens",
          "type": "uint256"
        }
      ],
      "name": "buyTokens",
      "outputs": [],
      "stateMutability": "payable",
      "type": "function"
    },
    {
      "inputs": [],
      "name": "endSale",
      "outputs": [],
      "stateMutability": "nonpayable",
      "type": "function"
    }
  ],
  "bytecode": "0x608060405234801561001057600080fd5b50604051610a5f380380610a5f833981810160405281019061003291906100eb565b336000806101000a81548173ffffffffffffffffffffffffffffffffffffffff021916908373ffffffffffffffffffffffffffffffffffffffff16021790555081600160006101000a81548173ffffffffffffffffffffffffffffffffffffffff021916908373ffffffffffffffffffffffffffffffffffffffff1602179055508060028190555050506101ac565b6000815190506100d08161017e565b92915050565b6000815190506100e581610195565b92915050565b6000806040838503121561010257610101610179565b5b6000610110858286016100c1565b9250506020610121858286016100d6565b9150509250929050565b60006101368261014f565b9050919050565b60006101488261012b565b9050919050565b600073ffffffffffffffffffffffffffffffffffffffff82169050919050565b6000819050919050565b600080fd5b6101878161013d565b811461019257600080fd5b50565b61019e8161016f565b81146101a957600080fd5b50565b6108a4806101bb6000396000f3fe60806040526004361061004a5760003560e01c80633610724e1461004f578063380d831b1461006b578063518ab2a81461008257806355a373d6146100ad5780637ff9b596146100d8575b600080fd5b6100696004803603810190610064919061058f565b610103565b005b34801561007757600080fd5b506100806102de565b005b34801561008e57600080fd5b506100976104ba565b6040516100a49190610675565b60405180910390f35b3480156100b957600080fd5b506100c26104c0565b6040516100cf919061065a565b60405180910390f35b3480156100e457600080fd5b506100ed6104e6565b6040516100fa9190610675565b60405180910390f35b61010f816002546104ec565b341461011a57600080fd5b80600160009054906101000a900473ffffffffffffffffffffffffffffffffffffffff1673ffffffffffffffffffffffffffffffffffffffff166370a08231306040518263ffffffff1660e01b81526004016101769190610616565b60206040518083038186803b15801561018e57600080fd5b505afa1580156101a2573d6000803e3d6000fd5b505050506040513d601f19601f820116820180604052508101906101c691906105bc565b10156101d157600080fd5b600160009054906101000a900473ffffffffffffffffffffffffffffffffffffffff1673ffffffffffffffffffffffffffffffffffffffff1663a9059cbb33836040518363ffffffff1660e01b815260040161022e929190610631565b602060405180830381600087803b15801561024857600080fd5b505af115801561025c573d6000803e3d6000fd5b505050506040513d601f19601f820116820180604052508101906102809190610562565b61028957600080fd5b806003600082825461029b9190610690565b925050819055507f5e5e995ce3133561afceaa51a9a154d5db228cd7525d34df5185582c18d3df0933826040516102d3929190610631565b60405180910390a150565b60008054906101000a900473ffffffffffffffffffffffffffffffffffffffff1673ffffffffffffffffffffffffffffffffffffffff163373ffffffffffffffffffffffffffffffffffffffff161461033657600080fd5b600160009054906101000a900473ffffffffffffffffffffffffffffffffffffffff1673ffffffffffffffffffffffffffffffffffffffff1663a9059cbb60008054906101000a900473ffffffffffffffffffffffffffffffffffffffff16600160009054906101000a900473ffffffffffffffffffffffffffffffffffffffff1673ffffffffffffffffffffffffffffffffffffffff166370a08231306040518263ffffffff1660e01b81526004016103f09190610616565b60206040518083038186803b15801561040857600080fd5b505afa15801561041c573d6000803e3d6000fd5b505050506040513d601f19601f8201168201806040525081019061044091906105bc565b6040518363ffffffff1660e01b815260040161045d929190610631565b602060405180830381600087803b15801561047757600080fd5b505af115801561048b573d6000803e3d6000fd5b505050506040513d601f19601f820116820180604052508101906104af9190610562565b6104b857600080fd5b565b60035481565b600160009054906101000a900473ffffffffffffffffffffffffffffffffffffffff1681565b60025481565b6000808214806105145750828283856105059190610717565b92508261051291906106e6565b145b61051d57600080fd5b92915050565b60008151905061053281610840565b92915050565b60008135905061054781610857565b92915050565b60008151905061055c81610857565b92915050565b6000602082840312156105785761057761083b565b5b600061058684828501610523565b91505092915050565b6000602082840312156105a5576105a461083b565b5b60006105b384828501610538565b91505092915050565b6000602082840312156105d2576105d161083b565b5b60006105e08482850161054d565b91505092915050565b6105f281610771565b82525050565b610601816107b9565b82525050565b610610816107af565b82525050565b600060208201905061062b60008301846105e9565b92915050565b600060408201905061064660008301856105e9565b6106536020830184610607565b9392505050565b600060208201905061066f60008301846105f8565b92915050565b600060208201905061068a6000830184610607565b92915050565b600061069b826107af565b91506106a6836107af565b9250827fffffffffffffffffffffffffffffffffffffffffffffffffffffffffffffffff038211156106db576106da6107dd565b5b828201905092915050565b60006106f1826107af565b91506106fc836107af565b92508261070c5761070b61080c565b5b828204905092915050565b6000610722826107af565b915061072d836107af565b9250817fffffffffffffffffffffffffffffffffffffffffffffffffffffffffffffffff0483118215151615610766576107656107dd565b5b828202905092915050565b600061077c8261078f565b9050919050565b60008115159050919050565b600073ffffffffffffffffffffffffffffffffffffffff82169050919050565b6000819050919050565b60006107c4826107cb565b9050919050565b60006107d68261078f565b9050919050565b7f4e487b7100000000000000000000000000000000000000000000000000000000600052601160045260246000fd5b7f4e487b7100000000000000000000000000000000000000000000000000000000600052601260045260246000fd5b600080fd5b61084981610783565b811461085457600080fd5b50565b610860816107af565b811461086b57600080fd5b5056fea264697066735822122057b5cfd08b196a007d6016259d3037e5001ed702d0a62ab1946dd68186a90c4264736f6c63430008060033",
  "immutableReferences": {},
  "source": "pragma solidity ^0.8.0;\n\nimport \"./Token.sol\";\n\ncontract DappTokenSale {\n    address admin;\n    Token public tokenContract;\n    uint256 public tokenPrice;\n    uint256 public tokensSold;\n\n    event Sell(address _buyer, uint256 _amount);\n\n    constructor(Token _tokenContract, uint256 _tokenPrice) public {\n        admin = msg.sender;\n        tokenContract = _tokenContract;\n        tokenPrice = _tokenPrice;\n    }\n\n    function multiply(uint256 x, uint256 y) internal pure returns (uint256 z) {\n        require(y == 0 || (z = x * y) / y == x);\n    }\n\n    function buyTokens(uint256 _numberOfTokens) public payable {\n        require(msg.value == multiply(_numberOfTokens, tokenPrice));\n        require(tokenContract.balanceOf(address(this)) >= _numberOfTokens);\n        require(tokenContract.transfer(msg.sender, _numberOfTokens));\n\n        tokensSold += _numberOfTokens;\n\n        emit Sell(msg.sender, _numberOfTokens);\n    }\n\n    function endSale() public {\n        require(msg.sender == admin);\n        require(\n            tokenContract.transfer(\n                admin,\n                tokenContract.balanceOf(address(this))\n            )\n        );\n\n        // UPDATE: Let's not destroy the contract here\n        // Just transfer the balance to the admin\n        // payable(admin).transfer(address(this).balance);\n        // admin.transfer(address(this).balance);\n    }\n}\n",
  "sourcePath": "/Users/aravinth/Repo/codegama/blockchain/token-buy-sell/src/contracts/DappTokenSale.sol",
  "compiler": {
    "name": "solc",
    "version": "0.8.6+commit.11564f7e.Emscripten.clang"
  },
  "schemaVersion": "3.2.3",
  "updatedAt": "2021-07-23T06:20:11.760Z",
  "devdoc": {
    "kind": "dev",
    "methods": {},
    "version": 1
  },
  "userdoc": {
    "kind": "user",
    "methods": {},
    "version": 1
  }
}