{
  "contractName": "Owned",
  "abi": [
    {
      "inputs": [
        {
          "internalType": "address",
          "name": "_owner",
          "type": "address"
        }
      ],
      "stateMutability": "nonpayable",
      "type": "constructor"
    },
    {
      "anonymous": false,
      "inputs": [
        {
          "indexed": false,
          "internalType": "address",
          "name": "oldOwner",
          "type": "address"
        },
        {
          "indexed": false,
          "internalType": "address",
          "name": "newOwner",
          "type": "address"
        }
      ],
      "name": "OwnerChanged",
      "type": "event"
    },
    {
      "anonymous": false,
      "inputs": [
        {
          "indexed": false,
          "internalType": "address",
          "name": "newOwner",
          "type": "address"
        }
      ],
      "name": "OwnerNominated",
      "type": "event"
    },
    {
      "inputs": [],
      "name": "nominatedOwner",
      "outputs": [
        {
          "internalType": "address",
          "name": "",
          "type": "address"
        }
      ],
      "stateMutability": "view",
      "type": "function"
    },
    {
      "inputs": [],
      "name": "owner",
      "outputs": [
        {
          "internalType": "address",
          "name": "",
          "type": "address"
        }
      ],
      "stateMutability": "view",
      "type": "function"
    },
    {
      "inputs": [
        {
          "internalType": "address",
          "name": "_owner",
          "type": "address"
        }
      ],
      "name": "nominateNewOwner",
      "outputs": [],
      "stateMutability": "nonpayable",
      "type": "function"
    },
    {
      "inputs": [],
      "name": "acceptOwnership",
      "outputs": [],
      "stateMutability": "nonpayable",
      "type": "function"
    }
  ],
  "bytecode": "0x608060405234801561001057600080fd5b5060405161088538038061088583398181016040528101906100329190610185565b600073ffffffffffffffffffffffffffffffffffffffff168173ffffffffffffffffffffffffffffffffffffffff1614156100a2576040517f08c379a00000000000000000000000000000000000000000000000000000000081526004016100999061020f565b60405180910390fd5b806000806101000a81548173ffffffffffffffffffffffffffffffffffffffff021916908373ffffffffffffffffffffffffffffffffffffffff1602179055507fb532073b38c83145e3e5135377a08bf9aab55bc0fd7c1179cd4fb995d2a5159c60008260405161011492919061023e565b60405180910390a150610267565b600080fd5b600073ffffffffffffffffffffffffffffffffffffffff82169050919050565b600061015282610127565b9050919050565b61016281610147565b811461016d57600080fd5b50565b60008151905061017f81610159565b92915050565b60006020828403121561019b5761019a610122565b5b60006101a984828501610170565b91505092915050565b600082825260208201905092915050565b7f4f776e657220616464726573732063616e6e6f74206265203000000000000000600082015250565b60006101f96019836101b2565b9150610204826101c3565b602082019050919050565b60006020820190508181036000830152610228816101ec565b9050919050565b61023881610147565b82525050565b6000604082019050610253600083018561022f565b610260602083018461022f565b9392505050565b61060f806102766000396000f3fe608060405234801561001057600080fd5b506004361061004c5760003560e01c80631627540c1461005157806353a47bb71461006d57806379ba50971461008b5780638da5cb5b14610095575b600080fd5b61006b60048036038101906100669190610424565b6100b3565b005b610075610136565b6040516100829190610460565b60405180910390f35b61009361015c565b005b61009d61030d565b6040516100aa9190610460565b60405180910390f35b6100bb610331565b80600160006101000a81548173ffffffffffffffffffffffffffffffffffffffff021916908373ffffffffffffffffffffffffffffffffffffffff1602179055507f906a1c6bd7e3091ea86693dd029a831c19049ce77f1dce2ce0bab1cacbabce228160405161012b9190610460565b60405180910390a150565b600160009054906101000a900473ffffffffffffffffffffffffffffffffffffffff1681565b600160009054906101000a900473ffffffffffffffffffffffffffffffffffffffff1673ffffffffffffffffffffffffffffffffffffffff163373ffffffffffffffffffffffffffffffffffffffff16146101ec576040517f08c379a00000000000000000000000000000000000000000000000000000000081526004016101e3906104fe565b60405180910390fd5b7fb532073b38c83145e3e5135377a08bf9aab55bc0fd7c1179cd4fb995d2a5159c60008054906101000a900473ffffffffffffffffffffffffffffffffffffffff16600160009054906101000a900473ffffffffffffffffffffffffffffffffffffffff1660405161025f92919061051e565b60405180910390a1600160009054906101000a900473ffffffffffffffffffffffffffffffffffffffff166000806101000a81548173ffffffffffffffffffffffffffffffffffffffff021916908373ffffffffffffffffffffffffffffffffffffffff1602179055506000600160006101000a81548173ffffffffffffffffffffffffffffffffffffffff021916908373ffffffffffffffffffffffffffffffffffffffff160217905550565b60008054906101000a900473ffffffffffffffffffffffffffffffffffffffff1681565b60008054906101000a900473ffffffffffffffffffffffffffffffffffffffff1673ffffffffffffffffffffffffffffffffffffffff163373ffffffffffffffffffffffffffffffffffffffff16146103bf576040517f08c379a00000000000000000000000000000000000000000000000000000000081526004016103b6906105b9565b60405180910390fd5b565b600080fd5b600073ffffffffffffffffffffffffffffffffffffffff82169050919050565b60006103f1826103c6565b9050919050565b610401816103e6565b811461040c57600080fd5b50565b60008135905061041e816103f8565b92915050565b60006020828403121561043a576104396103c1565b5b60006104488482850161040f565b91505092915050565b61045a816103e6565b82525050565b60006020820190506104756000830184610451565b92915050565b600082825260208201905092915050565b7f596f75206d757374206265206e6f6d696e61746564206265666f726520796f7560008201527f2063616e20616363657074206f776e6572736869700000000000000000000000602082015250565b60006104e860358361047b565b91506104f38261048c565b604082019050919050565b60006020820190508181036000830152610517816104db565b9050919050565b60006040820190506105336000830185610451565b6105406020830184610451565b9392505050565b7f4f6e6c792074686520636f6e7472616374206f776e6572206d6179207065726660008201527f6f726d207468697320616374696f6e0000000000000000000000000000000000602082015250565b60006105a3602f8361047b565b91506105ae82610547565b604082019050919050565b600060208201905081810360008301526105d281610596565b905091905056fea2646970667358221220057ed5104d60f83571b97292b121d8306cdd1944525a9a03afd05a2f7951e65a64736f6c634300080b0033",
  "immutableReferences": {},
  "source": "pragma solidity ^0.8.2;\n\n// https://docs.synthetix.io/contracts/source/contracts/owned\ncontract Owned {\n    address public owner;\n    address public nominatedOwner;\n\n    constructor(address _owner) public {\n        require(_owner != address(0), \"Owner address cannot be 0\");\n        owner = _owner;\n        emit OwnerChanged(address(0), _owner);\n    }\n\n    function nominateNewOwner(address _owner) external onlyOwner {\n        nominatedOwner = _owner;\n        emit OwnerNominated(_owner);\n    }\n\n    function acceptOwnership() external {\n        require(\n            msg.sender == nominatedOwner,\n            \"You must be nominated before you can accept ownership\"\n        );\n        emit OwnerChanged(owner, nominatedOwner);\n        owner = nominatedOwner;\n        nominatedOwner = address(0);\n    }\n\n    modifier onlyOwner() {\n        _onlyOwner();\n        _;\n    }\n\n    function _onlyOwner() private view {\n        require(\n            msg.sender == owner,\n            \"Only the contract owner may perform this action\"\n        );\n    }\n\n    event OwnerNominated(address newOwner);\n    event OwnerChanged(address oldOwner, address newOwner);\n}\n",
  "sourcePath": "/Users/aravinth/Repo/codegama/blockchain/ido_projects/ido-frontend-jason/src/contracts/Owned.sol",
  "compiler": {
    "name": "solc",
    "version": "0.8.11+commit.d7f03943.Emscripten.clang"
  },
  "schemaVersion": "3.3.4",
  "updatedAt": "2021-12-28T09:30:45.101Z",
  "devdoc": {
    "kind": "dev",
    "methods": {},
    "version": 1
  },
  "userdoc": {
    "kind": "user",
    "methods": {},
    "version": 1
  }
}