{
  "contractName": "PolygonToken",
  "abi": [
    {
      "inputs": [],
      "stateMutability": "nonpayable",
      "type": "constructor"
    },
    {
      "anonymous": false,
      "inputs": [
        {
          "indexed": true,
          "internalType": "address",
          "name": "owner",
          "type": "address"
        },
        {
          "indexed": true,
          "internalType": "address",
          "name": "spender",
          "type": "address"
        },
        {
          "indexed": false,
          "internalType": "uint256",
          "name": "value",
          "type": "uint256"
        }
      ],
      "name": "Approval",
      "type": "event"
    },
    {
      "anonymous": false,
      "inputs": [
        {
          "indexed": true,
          "internalType": "address",
          "name": "previousOwner",
          "type": "address"
        },
        {
          "indexed": true,
          "internalType": "address",
          "name": "newOwner",
          "type": "address"
        }
      ],
      "name": "OwnershipTransferred",
      "type": "event"
    },
    {
      "anonymous": false,
      "inputs": [
        {
          "indexed": true,
          "internalType": "bytes32",
          "name": "role",
          "type": "bytes32"
        },
        {
          "indexed": true,
          "internalType": "bytes32",
          "name": "previousAdminRole",
          "type": "bytes32"
        },
        {
          "indexed": true,
          "internalType": "bytes32",
          "name": "newAdminRole",
          "type": "bytes32"
        }
      ],
      "name": "RoleAdminChanged",
      "type": "event"
    },
    {
      "anonymous": false,
      "inputs": [
        {
          "indexed": true,
          "internalType": "bytes32",
          "name": "role",
          "type": "bytes32"
        },
        {
          "indexed": true,
          "internalType": "address",
          "name": "account",
          "type": "address"
        },
        {
          "indexed": true,
          "internalType": "address",
          "name": "sender",
          "type": "address"
        }
      ],
      "name": "RoleGranted",
      "type": "event"
    },
    {
      "anonymous": false,
      "inputs": [
        {
          "indexed": true,
          "internalType": "bytes32",
          "name": "role",
          "type": "bytes32"
        },
        {
          "indexed": true,
          "internalType": "address",
          "name": "account",
          "type": "address"
        },
        {
          "indexed": true,
          "internalType": "address",
          "name": "sender",
          "type": "address"
        }
      ],
      "name": "RoleRevoked",
      "type": "event"
    },
    {
      "anonymous": false,
      "inputs": [
        {
          "indexed": true,
          "internalType": "address",
          "name": "from",
          "type": "address"
        },
        {
          "indexed": true,
          "internalType": "address",
          "name": "to",
          "type": "address"
        },
        {
          "indexed": false,
          "internalType": "uint256",
          "name": "value",
          "type": "uint256"
        }
      ],
      "name": "Transfer",
      "type": "event"
    },
    {
      "inputs": [],
      "name": "DEFAULT_ADMIN_ROLE",
      "outputs": [
        {
          "internalType": "bytes32",
          "name": "",
          "type": "bytes32"
        }
      ],
      "stateMutability": "view",
      "type": "function"
    },
    {
      "inputs": [],
      "name": "MINTER_BURNER_ROLE",
      "outputs": [
        {
          "internalType": "bytes32",
          "name": "",
          "type": "bytes32"
        }
      ],
      "stateMutability": "view",
      "type": "function"
    },
    {
      "inputs": [
        {
          "internalType": "address",
          "name": "owner",
          "type": "address"
        },
        {
          "internalType": "address",
          "name": "spender",
          "type": "address"
        }
      ],
      "name": "allowance",
      "outputs": [
        {
          "internalType": "uint256",
          "name": "",
          "type": "uint256"
        }
      ],
      "stateMutability": "view",
      "type": "function"
    },
    {
      "inputs": [
        {
          "internalType": "address",
          "name": "spender",
          "type": "address"
        },
        {
          "internalType": "uint256",
          "name": "amount",
          "type": "uint256"
        }
      ],
      "name": "approve",
      "outputs": [
        {
          "internalType": "bool",
          "name": "",
          "type": "bool"
        }
      ],
      "stateMutability": "nonpayable",
      "type": "function"
    },
    {
      "inputs": [
        {
          "internalType": "address",
          "name": "account",
          "type": "address"
        }
      ],
      "name": "balanceOf",
      "outputs": [
        {
          "internalType": "uint256",
          "name": "",
          "type": "uint256"
        }
      ],
      "stateMutability": "view",
      "type": "function"
    },
    {
      "inputs": [],
      "name": "decimals",
      "outputs": [
        {
          "internalType": "uint8",
          "name": "",
          "type": "uint8"
        }
      ],
      "stateMutability": "view",
      "type": "function"
    },
    {
      "inputs": [
        {
          "internalType": "address",
          "name": "spender",
          "type": "address"
        },
        {
          "internalType": "uint256",
          "name": "subtractedValue",
          "type": "uint256"
        }
      ],
      "name": "decreaseAllowance",
      "outputs": [
        {
          "internalType": "bool",
          "name": "",
          "type": "bool"
        }
      ],
      "stateMutability": "nonpayable",
      "type": "function"
    },
    {
      "inputs": [
        {
          "internalType": "bytes32",
          "name": "role",
          "type": "bytes32"
        }
      ],
      "name": "getRoleAdmin",
      "outputs": [
        {
          "internalType": "bytes32",
          "name": "",
          "type": "bytes32"
        }
      ],
      "stateMutability": "view",
      "type": "function"
    },
    {
      "inputs": [
        {
          "internalType": "bytes32",
          "name": "role",
          "type": "bytes32"
        },
        {
          "internalType": "address",
          "name": "account",
          "type": "address"
        }
      ],
      "name": "grantRole",
      "outputs": [],
      "stateMutability": "nonpayable",
      "type": "function"
    },
    {
      "inputs": [
        {
          "internalType": "bytes32",
          "name": "role",
          "type": "bytes32"
        },
        {
          "internalType": "address",
          "name": "account",
          "type": "address"
        }
      ],
      "name": "hasRole",
      "outputs": [
        {
          "internalType": "bool",
          "name": "",
          "type": "bool"
        }
      ],
      "stateMutability": "view",
      "type": "function"
    },
    {
      "inputs": [
        {
          "internalType": "address",
          "name": "spender",
          "type": "address"
        },
        {
          "internalType": "uint256",
          "name": "addedValue",
          "type": "uint256"
        }
      ],
      "name": "increaseAllowance",
      "outputs": [
        {
          "internalType": "bool",
          "name": "",
          "type": "bool"
        }
      ],
      "stateMutability": "nonpayable",
      "type": "function"
    },
    {
      "inputs": [],
      "name": "name",
      "outputs": [
        {
          "internalType": "string",
          "name": "",
          "type": "string"
        }
      ],
      "stateMutability": "view",
      "type": "function"
    },
    {
      "inputs": [],
      "name": "owner",
      "outputs": [
        {
          "internalType": "address",
          "name": "",
          "type": "address"
        }
      ],
      "stateMutability": "view",
      "type": "function"
    },
    {
      "inputs": [],
      "name": "renounceOwnership",
      "outputs": [],
      "stateMutability": "nonpayable",
      "type": "function"
    },
    {
      "inputs": [
        {
          "internalType": "bytes32",
          "name": "role",
          "type": "bytes32"
        },
        {
          "internalType": "address",
          "name": "account",
          "type": "address"
        }
      ],
      "name": "renounceRole",
      "outputs": [],
      "stateMutability": "nonpayable",
      "type": "function"
    },
    {
      "inputs": [
        {
          "internalType": "bytes32",
          "name": "role",
          "type": "bytes32"
        },
        {
          "internalType": "address",
          "name": "account",
          "type": "address"
        }
      ],
      "name": "revokeRole",
      "outputs": [],
      "stateMutability": "nonpayable",
      "type": "function"
    },
    {
      "inputs": [
        {
          "internalType": "bytes4",
          "name": "interfaceId",
          "type": "bytes4"
        }
      ],
      "name": "supportsInterface",
      "outputs": [
        {
          "internalType": "bool",
          "name": "",
          "type": "bool"
        }
      ],
      "stateMutability": "view",
      "type": "function"
    },
    {
      "inputs": [],
      "name": "symbol",
      "outputs": [
        {
          "internalType": "string",
          "name": "",
          "type": "string"
        }
      ],
      "stateMutability": "view",
      "type": "function"
    },
    {
      "inputs": [],
      "name": "totalBurnedToken",
      "outputs": [
        {
          "internalType": "uint256",
          "name": "",
          "type": "uint256"
        }
      ],
      "stateMutability": "view",
      "type": "function"
    },
    {
      "inputs": [],
      "name": "totalMintedToken",
      "outputs": [
        {
          "internalType": "uint256",
          "name": "",
          "type": "uint256"
        }
      ],
      "stateMutability": "view",
      "type": "function"
    },
    {
      "inputs": [],
      "name": "totalSupply",
      "outputs": [
        {
          "internalType": "uint256",
          "name": "",
          "type": "uint256"
        }
      ],
      "stateMutability": "view",
      "type": "function"
    },
    {
      "inputs": [
        {
          "internalType": "address",
          "name": "recipient",
          "type": "address"
        },
        {
          "internalType": "uint256",
          "name": "amount",
          "type": "uint256"
        }
      ],
      "name": "transfer",
      "outputs": [
        {
          "internalType": "bool",
          "name": "",
          "type": "bool"
        }
      ],
      "stateMutability": "nonpayable",
      "type": "function"
    },
    {
      "inputs": [
        {
          "internalType": "address",
          "name": "sender",
          "type": "address"
        },
        {
          "internalType": "address",
          "name": "recipient",
          "type": "address"
        },
        {
          "internalType": "uint256",
          "name": "amount",
          "type": "uint256"
        }
      ],
      "name": "transferFrom",
      "outputs": [
        {
          "internalType": "bool",
          "name": "",
          "type": "bool"
        }
      ],
      "stateMutability": "nonpayable",
      "type": "function"
    },
    {
      "inputs": [
        {
          "internalType": "address",
          "name": "newOwner",
          "type": "address"
        }
      ],
      "name": "transferOwnership",
      "outputs": [],
      "stateMutability": "nonpayable",
      "type": "function"
    },
    {
      "inputs": [
        {
          "internalType": "address",
          "name": "minterBurnerAddress",
          "type": "address"
        }
      ],
      "name": "grandAccessRole",
      "outputs": [],
      "stateMutability": "nonpayable",
      "type": "function"
    },
    {
      "inputs": [
        {
          "internalType": "string",
          "name": "role",
          "type": "string"
        },
        {
          "internalType": "address",
          "name": "account",
          "type": "address"
        }
      ],
      "name": "revokeAccess",
      "outputs": [],
      "stateMutability": "nonpayable",
      "type": "function"
    },
    {
      "inputs": [
        {
          "internalType": "address",
          "name": "to",
          "type": "address"
        },
        {
          "internalType": "uint256",
          "name": "amount",
          "type": "uint256"
        }
      ],
      "name": "mint",
      "outputs": [],
      "stateMutability": "nonpayable",
      "type": "function"
    },
    {
      "inputs": [
        {
          "internalType": "address",
          "name": "from",
          "type": "address"
        },
        {
          "internalType": "uint256",
          "name": "amount",
          "type": "uint256"
        }
      ],
      "name": "burn",
      "outputs": [],
      "stateMutability": "nonpayable",
      "type": "function"
    }
  ],
  "bytecode": "0x60806040523480156200001157600080fd5b506040518060400160405280600c81526020017f4c61756e636820546f6b656e00000000000000000000000000000000000000008152506040518060400160405280600281526020017f4c54000000000000000000000000000000000000000000000000000000000000815250816003908051906020019062000096929190620004fc565b508060049080519060200190620000af929190620004fc565b505050620000d2620000c66200012f60201b60201c565b6200013760201b60201c565b6200011433620000e7620001fd60201b60201c565b60ff16600a620000f89190620006ec565b620f424062000108919062000829565b6200020660201b60201c565b620001296000801b336200037f60201b60201c565b6200095e565b600033905090565b6000600560009054906101000a900473ffffffffffffffffffffffffffffffffffffffff16905081600560006101000a81548173ffffffffffffffffffffffffffffffffffffffff021916908373ffffffffffffffffffffffffffffffffffffffff1602179055508173ffffffffffffffffffffffffffffffffffffffff168173ffffffffffffffffffffffffffffffffffffffff167f8be0079c531659141344cd1fd0a4f28419497f9722a3daafe3b4186f6b6457e060405160405180910390a35050565b60006012905090565b600073ffffffffffffffffffffffffffffffffffffffff168273ffffffffffffffffffffffffffffffffffffffff16141562000279576040517f08c379a00000000000000000000000000000000000000000000000000000000081526004016200027090620005e4565b60405180910390fd5b6200028d600083836200039560201b60201c565b8060026000828254620002a1919062000634565b92505081905550806000808473ffffffffffffffffffffffffffffffffffffffff1673ffffffffffffffffffffffffffffffffffffffff1681526020019081526020016000206000828254620002f8919062000634565b925050819055508173ffffffffffffffffffffffffffffffffffffffff16600073ffffffffffffffffffffffffffffffffffffffff167fddf252ad1be2c89b69c2b068fc378daa952ba7f163c4a11628f55a4df523b3ef836040516200035f919062000606565b60405180910390a36200037b600083836200039a60201b60201c565b5050565b6200039182826200039f60201b60201c565b5050565b505050565b505050565b620003b182826200049160201b60201c565b6200048d5760016006600084815260200190815260200160002060000160008373ffffffffffffffffffffffffffffffffffffffff1673ffffffffffffffffffffffffffffffffffffffff16815260200190815260200160002060006101000a81548160ff021916908315150217905550620004326200012f60201b60201c565b73ffffffffffffffffffffffffffffffffffffffff168173ffffffffffffffffffffffffffffffffffffffff16837f2f8788117e7eff1d82e926ec794901d17c78024a50270940304540a733656f0d60405160405180910390a45b5050565b60006006600084815260200190815260200160002060000160008373ffffffffffffffffffffffffffffffffffffffff1673ffffffffffffffffffffffffffffffffffffffff16815260200190815260200160002060009054906101000a900460ff16905092915050565b8280546200050a9062000894565b90600052602060002090601f0160209004810192826200052e57600085556200057a565b82601f106200054957805160ff19168380011785556200057a565b828001600101855582156200057a579182015b82811115620005795782518255916020019190600101906200055c565b5b5090506200058991906200058d565b5090565b5b80821115620005a85760008160009055506001016200058e565b5090565b6000620005bb601f8362000623565b9150620005c88262000935565b602082019050919050565b620005de816200088a565b82525050565b60006020820190508181036000830152620005ff81620005ac565b9050919050565b60006020820190506200061d6000830184620005d3565b92915050565b600082825260208201905092915050565b600062000641826200088a565b91506200064e836200088a565b9250827fffffffffffffffffffffffffffffffffffffffffffffffffffffffffffffffff03821115620006865762000685620008ca565b5b828201905092915050565b6000808291508390505b6001851115620006e357808604811115620006bb57620006ba620008ca565b5b6001851615620006cb5780820291505b8081029050620006db8562000928565b94506200069b565b94509492505050565b6000620006f9826200088a565b915062000706836200088a565b9250620007357fffffffffffffffffffffffffffffffffffffffffffffffffffffffffffffffff84846200073d565b905092915050565b6000826200074f576001905062000822565b816200075f576000905062000822565b81600181146200077857600281146200078357620007b9565b600191505062000822565b60ff841115620007985762000797620008ca565b5b8360020a915084821115620007b257620007b1620008ca565b5b5062000822565b5060208310610133831016604e8410600b8410161715620007f35782820a905083811115620007ed57620007ec620008ca565b5b62000822565b62000802848484600162000691565b925090508184048111156200081c576200081b620008ca565b5b81810290505b9392505050565b600062000836826200088a565b915062000843836200088a565b9250817fffffffffffffffffffffffffffffffffffffffffffffffffffffffffffffffff04831182151516156200087f576200087e620008ca565b5b828202905092915050565b6000819050919050565b60006002820490506001821680620008ad57607f821691505b60208210811415620008c457620008c3620008f9565b5b50919050565b7f4e487b7100000000000000000000000000000000000000000000000000000000600052601160045260246000fd5b7f4e487b7100000000000000000000000000000000000000000000000000000000600052602260045260246000fd5b60008160011c9050919050565b7f45524332303a206d696e7420746f20746865207a65726f206164647265737300600082015250565b613155806200096e6000396000f3fe608060405234801561001057600080fd5b50600436106101c45760003560e01c8063715018a6116100f9578063a217fddf11610097578063d547741f11610071578063d547741f1461051d578063dd62ed3e14610539578063dfe0b5fe14610569578063f2fde38b14610585576101c4565b8063a217fddf1461049f578063a457c2d7146104bd578063a9059cbb146104ed576101c4565b806391d14854116100d357806391d1485414610419578063925dc4e01461044957806395d89b41146104655780639dc29fac14610483576101c4565b8063715018a6146103d357806372c32860146103dd5780638da5cb5b146103fb576101c4565b80632898410b1161016657806336568abe1161014057806336568abe1461033b578063395093511461035757806340c10f191461038757806370a08231146103a3576101c4565b80632898410b146102e35780632f2ff15d14610301578063313ce5671461031d576101c4565b80630de97c41116101a25780630de97c411461024757806318160ddd1461026557806323b872dd14610283578063248a9ca3146102b3576101c4565b806301ffc9a7146101c957806306fdde03146101f9578063095ea7b314610217575b600080fd5b6101e360048036038101906101de91906120d1565b6105a1565b6040516101f09190612537565b60405180910390f35b61020161061b565b60405161020e919061256d565b60405180910390f35b610231600480360381019061022c9190612024565b6106ad565b60405161023e9190612537565b60405180910390f35b61024f6106cb565b60405161025c91906127cf565b60405180910390f35b61026d6106d1565b60405161027a91906127cf565b60405180910390f35b61029d60048036038101906102989190611fd1565b6106db565b6040516102aa9190612537565b60405180910390f35b6102cd60048036038101906102c89190612064565b6107d3565b6040516102da9190612552565b60405180910390f35b6102eb6107f3565b6040516102f891906127cf565b60405180910390f35b61031b60048036038101906103169190612091565b6107f9565b005b610325610822565b60405161033291906127ea565b60405180910390f35b61035560048036038101906103509190612091565b61082b565b005b610371600480360381019061036c9190612024565b6108ae565b60405161037e9190612537565b60405180910390f35b6103a1600480360381019061039c9190612024565b61095a565b005b6103bd60048036038101906103b89190611f64565b6109e5565b6040516103ca91906127cf565b60405180910390f35b6103db610a2d565b005b6103e5610ab5565b6040516103f29190612552565b60405180910390f35b610403610ad9565b604051610410919061251c565b60405180910390f35b610433600480360381019061042e9190612091565b610b03565b6040516104409190612537565b60405180910390f35b610463600480360381019061045e9190611f64565b610b6e565b005b61046d610c17565b60405161047a919061256d565b60405180910390f35b61049d60048036038101906104989190612024565b610ca9565b005b6104a7610d34565b6040516104b49190612552565b60405180910390f35b6104d760048036038101906104d29190612024565b610d3b565b6040516104e49190612537565b60405180910390f35b61050760048036038101906105029190612024565b610e26565b6040516105149190612537565b60405180910390f35b61053760048036038101906105329190612091565b610e44565b005b610553600480360381019061054e9190611f91565b610e6d565b60405161056091906127cf565b60405180910390f35b610583600480360381019061057e91906120fe565b610ef4565b005b61059f600480360381019061059a9190611f64565b611039565b005b60007f7965db0b000000000000000000000000000000000000000000000000000000007bffffffffffffffffffffffffffffffffffffffffffffffffffffffff1916827bffffffffffffffffffffffffffffffffffffffffffffffffffffffff19161480610614575061061382611131565b5b9050919050565b60606003805461062a90612a5d565b80601f016020809104026020016040519081016040528092919081815260200182805461065690612a5d565b80156106a35780601f10610678576101008083540402835291602001916106a3565b820191906000526020600020905b81548152906001019060200180831161068657829003601f168201915b5050505050905090565b60006106c16106ba61119b565b84846111a3565b6001905092915050565b60075481565b6000600254905090565b60006106e884848461136e565b6000600160008673ffffffffffffffffffffffffffffffffffffffff1673ffffffffffffffffffffffffffffffffffffffff168152602001908152602001600020600061073361119b565b73ffffffffffffffffffffffffffffffffffffffff1673ffffffffffffffffffffffffffffffffffffffff168152602001908152602001600020549050828110156107b3576040517f08c379a00000000000000000000000000000000000000000000000000000000081526004016107aa9061268f565b60405180910390fd5b6107c7856107bf61119b565b8584036111a3565b60019150509392505050565b600060066000838152602001908152602001600020600101549050919050565b60085481565b610802826107d3565b6108138161080e61119b565b6115ef565b61081d838361168c565b505050565b60006012905090565b61083361119b565b73ffffffffffffffffffffffffffffffffffffffff168173ffffffffffffffffffffffffffffffffffffffff16146108a0576040517f08c379a00000000000000000000000000000000000000000000000000000000081526004016108979061278f565b60405180910390fd5b6108aa828261176d565b5050565b60006109506108bb61119b565b8484600160006108c961119b565b73ffffffffffffffffffffffffffffffffffffffff1673ffffffffffffffffffffffffffffffffffffffff16815260200190815260200160002060008873ffffffffffffffffffffffffffffffffffffffff1673ffffffffffffffffffffffffffffffffffffffff1681526020019081526020016000205461094b9190612882565b6111a3565b6001905092915050565b6109847fcfd53186d792f1ec9d0679afc2dc3ffc86fc31fe1e0f342b838eb6c3eade62b333610b03565b6109c3576040517f08c379a00000000000000000000000000000000000000000000000000000000081526004016109ba9061266f565b60405180910390fd5b6109cd828261184f565b806008546109db9190612882565b6008819055505050565b60008060008373ffffffffffffffffffffffffffffffffffffffff1673ffffffffffffffffffffffffffffffffffffffff168152602001908152602001600020549050919050565b610a3561119b565b73ffffffffffffffffffffffffffffffffffffffff16610a53610ad9565b73ffffffffffffffffffffffffffffffffffffffff1614610aa9576040517f08c379a0000000000000000000000000000000000000000000000000000000008152600401610aa0906126af565b60405180910390fd5b610ab360006119af565b565b7fcfd53186d792f1ec9d0679afc2dc3ffc86fc31fe1e0f342b838eb6c3eade62b381565b6000600560009054906101000a900473ffffffffffffffffffffffffffffffffffffffff16905090565b60006006600084815260200190815260200160002060000160008373ffffffffffffffffffffffffffffffffffffffff1673ffffffffffffffffffffffffffffffffffffffff16815260200190815260200160002060009054906101000a900460ff16905092915050565b610b7661119b565b73ffffffffffffffffffffffffffffffffffffffff16610b94610ad9565b73ffffffffffffffffffffffffffffffffffffffff1614610bea576040517f08c379a0000000000000000000000000000000000000000000000000000000008152600401610be1906126af565b60405180910390fd5b610c147fcfd53186d792f1ec9d0679afc2dc3ffc86fc31fe1e0f342b838eb6c3eade62b382611a75565b50565b606060048054610c2690612a5d565b80601f0160208091040260200160405190810160405280929190818152602001828054610c5290612a5d565b8015610c9f5780601f10610c7457610100808354040283529160200191610c9f565b820191906000526020600020905b815481529060010190602001808311610c8257829003601f168201915b5050505050905090565b610cd37fcfd53186d792f1ec9d0679afc2dc3ffc86fc31fe1e0f342b838eb6c3eade62b333610b03565b610d12576040517f08c379a0000000000000000000000000000000000000000000000000000000008152600401610d09906125cf565b60405180910390fd5b610d1c8282611a83565b80600754610d2a9190612882565b6007819055505050565b6000801b81565b60008060016000610d4a61119b565b73ffffffffffffffffffffffffffffffffffffffff1673ffffffffffffffffffffffffffffffffffffffff16815260200190815260200160002060008573ffffffffffffffffffffffffffffffffffffffff1673ffffffffffffffffffffffffffffffffffffffff16815260200190815260200160002054905082811015610e07576040517f08c379a0000000000000000000000000000000000000000000000000000000008152600401610dfe9061276f565b60405180910390fd5b610e1b610e1261119b565b858584036111a3565b600191505092915050565b6000610e3a610e3361119b565b848461136e565b6001905092915050565b610e4d826107d3565b610e5e81610e5961119b565b6115ef565b610e68838361176d565b505050565b6000600160008473ffffffffffffffffffffffffffffffffffffffff1673ffffffffffffffffffffffffffffffffffffffff16815260200190815260200160002060008373ffffffffffffffffffffffffffffffffffffffff1673ffffffffffffffffffffffffffffffffffffffff16815260200190815260200160002054905092915050565b610efc61119b565b73ffffffffffffffffffffffffffffffffffffffff16610f1a610ad9565b73ffffffffffffffffffffffffffffffffffffffff1614610f70576040517f08c379a0000000000000000000000000000000000000000000000000000000008152600401610f67906126af565b60405180910390fd5b600082604051602001610f8391906124cb565b6040516020818303038152906040528051906020012090506000801b811415610fe1576040517f08c379a0000000000000000000000000000000000000000000000000000000008152600401610fd89061272f565b60405180910390fd5b610feb8183610b03565b61102a576040517f08c379a00000000000000000000000000000000000000000000000000000000081526004016110219061270f565b60405180910390fd5b6110348183610e44565b505050565b61104161119b565b73ffffffffffffffffffffffffffffffffffffffff1661105f610ad9565b73ffffffffffffffffffffffffffffffffffffffff16146110b5576040517f08c379a00000000000000000000000000000000000000000000000000000000081526004016110ac906126af565b60405180910390fd5b600073ffffffffffffffffffffffffffffffffffffffff168173ffffffffffffffffffffffffffffffffffffffff161415611125576040517f08c379a000000000000000000000000000000000000000000000000000000000815260040161111c9061260f565b60405180910390fd5b61112e816119af565b50565b60007f01ffc9a7000000000000000000000000000000000000000000000000000000007bffffffffffffffffffffffffffffffffffffffffffffffffffffffff1916827bffffffffffffffffffffffffffffffffffffffffffffffffffffffff1916149050919050565b600033905090565b600073ffffffffffffffffffffffffffffffffffffffff168373ffffffffffffffffffffffffffffffffffffffff161415611213576040517f08c379a000000000000000000000000000000000000000000000000000000000815260040161120a9061274f565b60405180910390fd5b600073ffffffffffffffffffffffffffffffffffffffff168273ffffffffffffffffffffffffffffffffffffffff161415611283576040517f08c379a000000000000000000000000000000000000000000000000000000000815260040161127a9061262f565b60405180910390fd5b80600160008573ffffffffffffffffffffffffffffffffffffffff1673ffffffffffffffffffffffffffffffffffffffff16815260200190815260200160002060008473ffffffffffffffffffffffffffffffffffffffff1673ffffffffffffffffffffffffffffffffffffffff168152602001908152602001600020819055508173ffffffffffffffffffffffffffffffffffffffff168373ffffffffffffffffffffffffffffffffffffffff167f8c5be1e5ebec7d5bd14f71427d1e84f3dd0314c0f7b2291e5b200ac8c7c3b9258360405161136191906127cf565b60405180910390a3505050565b600073ffffffffffffffffffffffffffffffffffffffff168373ffffffffffffffffffffffffffffffffffffffff1614156113de576040517f08c379a00000000000000000000000000000000000000000000000000000000081526004016113d5906126ef565b60405180910390fd5b600073ffffffffffffffffffffffffffffffffffffffff168273ffffffffffffffffffffffffffffffffffffffff16141561144e576040517f08c379a0000000000000000000000000000000000000000000000000000000008152600401611445906125af565b60405180910390fd5b611459838383611c5a565b60008060008573ffffffffffffffffffffffffffffffffffffffff1673ffffffffffffffffffffffffffffffffffffffff168152602001908152602001600020549050818110156114df576040517f08c379a00000000000000000000000000000000000000000000000000000000081526004016114d69061264f565b60405180910390fd5b8181036000808673ffffffffffffffffffffffffffffffffffffffff1673ffffffffffffffffffffffffffffffffffffffff16815260200190815260200160002081905550816000808573ffffffffffffffffffffffffffffffffffffffff1673ffffffffffffffffffffffffffffffffffffffff16815260200190815260200160002060008282546115729190612882565b925050819055508273ffffffffffffffffffffffffffffffffffffffff168473ffffffffffffffffffffffffffffffffffffffff167fddf252ad1be2c89b69c2b068fc378daa952ba7f163c4a11628f55a4df523b3ef846040516115d691906127cf565b60405180910390a36115e9848484611c5f565b50505050565b6115f98282610b03565b6116885761161e8173ffffffffffffffffffffffffffffffffffffffff166014611c64565b61162c8360001c6020611c64565b60405160200161163d9291906124e2565b6040516020818303038152906040526040517f08c379a000000000000000000000000000000000000000000000000000000000815260040161167f919061256d565b60405180910390fd5b5050565b6116968282610b03565b6117695760016006600084815260200190815260200160002060000160008373ffffffffffffffffffffffffffffffffffffffff1673ffffffffffffffffffffffffffffffffffffffff16815260200190815260200160002060006101000a81548160ff02191690831515021790555061170e61119b565b73ffffffffffffffffffffffffffffffffffffffff168173ffffffffffffffffffffffffffffffffffffffff16837f2f8788117e7eff1d82e926ec794901d17c78024a50270940304540a733656f0d60405160405180910390a45b5050565b6117778282610b03565b1561184b5760006006600084815260200190815260200160002060000160008373ffffffffffffffffffffffffffffffffffffffff1673ffffffffffffffffffffffffffffffffffffffff16815260200190815260200160002060006101000a81548160ff0219169083151502179055506117f061119b565b73ffffffffffffffffffffffffffffffffffffffff168173ffffffffffffffffffffffffffffffffffffffff16837ff6391f5c32d9c69d2a47ea670b442974b53935d1edc7fd64eb21e047a839171b60405160405180910390a45b5050565b600073ffffffffffffffffffffffffffffffffffffffff168273ffffffffffffffffffffffffffffffffffffffff1614156118bf576040517f08c379a00000000000000000000000000000000000000000000000000000000081526004016118b6906127af565b60405180910390fd5b6118cb60008383611c5a565b80600260008282546118dd9190612882565b92505081905550806000808473ffffffffffffffffffffffffffffffffffffffff1673ffffffffffffffffffffffffffffffffffffffff16815260200190815260200160002060008282546119329190612882565b925050819055508173ffffffffffffffffffffffffffffffffffffffff16600073ffffffffffffffffffffffffffffffffffffffff167fddf252ad1be2c89b69c2b068fc378daa952ba7f163c4a11628f55a4df523b3ef8360405161199791906127cf565b60405180910390a36119ab60008383611c5f565b5050565b6000600560009054906101000a900473ffffffffffffffffffffffffffffffffffffffff16905081600560006101000a81548173ffffffffffffffffffffffffffffffffffffffff021916908373ffffffffffffffffffffffffffffffffffffffff1602179055508173ffffffffffffffffffffffffffffffffffffffff168173ffffffffffffffffffffffffffffffffffffffff167f8be0079c531659141344cd1fd0a4f28419497f9722a3daafe3b4186f6b6457e060405160405180910390a35050565b611a7f828261168c565b5050565b600073ffffffffffffffffffffffffffffffffffffffff168273ffffffffffffffffffffffffffffffffffffffff161415611af3576040517f08c379a0000000000000000000000000000000000000000000000000000000008152600401611aea906126cf565b60405180910390fd5b611aff82600083611c5a565b60008060008473ffffffffffffffffffffffffffffffffffffffff1673ffffffffffffffffffffffffffffffffffffffff16815260200190815260200160002054905081811015611b85576040517f08c379a0000000000000000000000000000000000000000000000000000000008152600401611b7c906125ef565b60405180910390fd5b8181036000808573ffffffffffffffffffffffffffffffffffffffff1673ffffffffffffffffffffffffffffffffffffffff168152602001908152602001600020819055508160026000828254611bdc9190612932565b92505081905550600073ffffffffffffffffffffffffffffffffffffffff168373ffffffffffffffffffffffffffffffffffffffff167fddf252ad1be2c89b69c2b068fc378daa952ba7f163c4a11628f55a4df523b3ef84604051611c4191906127cf565b60405180910390a3611c5583600084611c5f565b505050565b505050565b505050565b606060006002836002611c7791906128d8565b611c819190612882565b67ffffffffffffffff811115611c9a57611c99612b4d565b5b6040519080825280601f01601f191660200182016040528015611ccc5781602001600182028036833780820191505090505b5090507f300000000000000000000000000000000000000000000000000000000000000081600081518110611d0457611d03612b1e565b5b60200101907effffffffffffffffffffffffffffffffffffffffffffffffffffffffffffff1916908160001a9053507f780000000000000000000000000000000000000000000000000000000000000081600181518110611d6857611d67612b1e565b5b60200101907effffffffffffffffffffffffffffffffffffffffffffffffffffffffffffff1916908160001a90535060006001846002611da891906128d8565b611db29190612882565b90505b6001811115611e52577f3031323334353637383961626364656600000000000000000000000000000000600f861660108110611df457611df3612b1e565b5b1a60f81b828281518110611e0b57611e0a612b1e565b5b60200101907effffffffffffffffffffffffffffffffffffffffffffffffffffffffffffff1916908160001a905350600485901c945080611e4b90612a33565b9050611db5565b5060008414611e96576040517f08c379a0000000000000000000000000000000000000000000000000000000008152600401611e8d9061258f565b60405180910390fd5b8091505092915050565b6000611eb3611eae8461282a565b612805565b905082815260208101848484011115611ecf57611ece612b81565b5b611eda8482856129f1565b509392505050565b600081359050611ef1816130c3565b92915050565b600081359050611f06816130da565b92915050565b600081359050611f1b816130f1565b92915050565b600082601f830112611f3657611f35612b7c565b5b8135611f46848260208601611ea0565b91505092915050565b600081359050611f5e81613108565b92915050565b600060208284031215611f7a57611f79612b8b565b5b6000611f8884828501611ee2565b91505092915050565b60008060408385031215611fa857611fa7612b8b565b5b6000611fb685828601611ee2565b9250506020611fc785828601611ee2565b9150509250929050565b600080600060608486031215611fea57611fe9612b8b565b5b6000611ff886828701611ee2565b935050602061200986828701611ee2565b925050604061201a86828701611f4f565b9150509250925092565b6000806040838503121561203b5761203a612b8b565b5b600061204985828601611ee2565b925050602061205a85828601611f4f565b9150509250929050565b60006020828403121561207a57612079612b8b565b5b600061208884828501611ef7565b91505092915050565b600080604083850312156120a8576120a7612b8b565b5b60006120b685828601611ef7565b92505060206120c785828601611ee2565b9150509250929050565b6000602082840312156120e7576120e6612b8b565b5b60006120f584828501611f0c565b91505092915050565b6000806040838503121561211557612114612b8b565b5b600083013567ffffffffffffffff81111561213357612132612b86565b5b61213f85828601611f21565b925050602061215085828601611ee2565b9150509250929050565b61216381612966565b82525050565b61217281612978565b82525050565b61218181612984565b82525050565b60006121928261285b565b61219c8185612866565b93506121ac818560208601612a00565b6121b581612b90565b840191505092915050565b60006121cb8261285b565b6121d58185612877565b93506121e5818560208601612a00565b80840191505092915050565b60006121fe602083612866565b915061220982612ba1565b602082019050919050565b6000612221602383612866565b915061222c82612bca565b604082019050919050565b6000612244601683612866565b915061224f82612c19565b602082019050919050565b6000612267602283612866565b915061227282612c42565b604082019050919050565b600061228a602683612866565b915061229582612c91565b604082019050919050565b60006122ad602283612866565b91506122b882612ce0565b604082019050919050565b60006122d0602683612866565b91506122db82612d2f565b604082019050919050565b60006122f3601683612866565b91506122fe82612d7e565b602082019050919050565b6000612316602883612866565b915061232182612da7565b604082019050919050565b6000612339602083612866565b915061234482612df6565b602082019050919050565b600061235c602183612866565b915061236782612e1f565b604082019050919050565b600061237f602583612866565b915061238a82612e6e565b604082019050919050565b60006123a2602983612866565b91506123ad82612ebd565b604082019050919050565b60006123c5603783612866565b91506123d082612f0c565b604082019050919050565b60006123e8602483612866565b91506123f382612f5b565b604082019050919050565b600061240b601783612877565b915061241682612faa565b601782019050919050565b600061242e602583612866565b915061243982612fd3565b604082019050919050565b6000612451601183612877565b915061245c82613022565b601182019050919050565b6000612474602f83612866565b915061247f8261304b565b604082019050919050565b6000612497601f83612866565b91506124a28261309a565b602082019050919050565b6124b6816129da565b82525050565b6124c5816129e4565b82525050565b60006124d782846121c0565b915081905092915050565b60006124ed826123fe565b91506124f982856121c0565b915061250482612444565b915061251082846121c0565b91508190509392505050565b6000602082019050612531600083018461215a565b92915050565b600060208201905061254c6000830184612169565b92915050565b60006020820190506125676000830184612178565b92915050565b600060208201905081810360008301526125878184612187565b905092915050565b600060208201905081810360008301526125a8816121f1565b9050919050565b600060208201905081810360008301526125c881612214565b9050919050565b600060208201905081810360008301526125e881612237565b9050919050565b600060208201905081810360008301526126088161225a565b9050919050565b600060208201905081810360008301526126288161227d565b9050919050565b60006020820190508181036000830152612648816122a0565b9050919050565b60006020820190508181036000830152612668816122c3565b9050919050565b60006020820190508181036000830152612688816122e6565b9050919050565b600060208201905081810360008301526126a881612309565b9050919050565b600060208201905081810360008301526126c88161232c565b9050919050565b600060208201905081810360008301526126e88161234f565b9050919050565b6000602082019050818103600083015261270881612372565b9050919050565b6000602082019050818103600083015261272881612395565b9050919050565b60006020820190508181036000830152612748816123b8565b9050919050565b60006020820190508181036000830152612768816123db565b9050919050565b6000602082019050818103600083015261278881612421565b9050919050565b600060208201905081810360008301526127a881612467565b9050919050565b600060208201905081810360008301526127c88161248a565b9050919050565b60006020820190506127e460008301846124ad565b92915050565b60006020820190506127ff60008301846124bc565b92915050565b600061280f612820565b905061281b8282612a8f565b919050565b6000604051905090565b600067ffffffffffffffff82111561284557612844612b4d565b5b61284e82612b90565b9050602081019050919050565b600081519050919050565b600082825260208201905092915050565b600081905092915050565b600061288d826129da565b9150612898836129da565b9250827fffffffffffffffffffffffffffffffffffffffffffffffffffffffffffffffff038211156128cd576128cc612ac0565b5b828201905092915050565b60006128e3826129da565b91506128ee836129da565b9250817fffffffffffffffffffffffffffffffffffffffffffffffffffffffffffffffff048311821515161561292757612926612ac0565b5b828202905092915050565b600061293d826129da565b9150612948836129da565b92508282101561295b5761295a612ac0565b5b828203905092915050565b6000612971826129ba565b9050919050565b60008115159050919050565b6000819050919050565b60007fffffffff0000000000000000000000000000000000000000000000000000000082169050919050565b600073ffffffffffffffffffffffffffffffffffffffff82169050919050565b6000819050919050565b600060ff82169050919050565b82818337600083830152505050565b60005b83811015612a1e578082015181840152602081019050612a03565b83811115612a2d576000848401525b50505050565b6000612a3e826129da565b91506000821415612a5257612a51612ac0565b5b600182039050919050565b60006002820490506001821680612a7557607f821691505b60208210811415612a8957612a88612aef565b5b50919050565b612a9882612b90565b810181811067ffffffffffffffff82111715612ab757612ab6612b4d565b5b80604052505050565b7f4e487b7100000000000000000000000000000000000000000000000000000000600052601160045260246000fd5b7f4e487b7100000000000000000000000000000000000000000000000000000000600052602260045260246000fd5b7f4e487b7100000000000000000000000000000000000000000000000000000000600052603260045260246000fd5b7f4e487b7100000000000000000000000000000000000000000000000000000000600052604160045260246000fd5b600080fd5b600080fd5b600080fd5b600080fd5b6000601f19601f8301169050919050565b7f537472696e67733a20686578206c656e67746820696e73756666696369656e74600082015250565b7f45524332303a207472616e7366657220746f20746865207a65726f206164647260008201527f6573730000000000000000000000000000000000000000000000000000000000602082015250565b7f43616c6c6572206973206e6f742061204275726e657200000000000000000000600082015250565b7f45524332303a206275726e20616d6f756e7420657863656564732062616c616e60008201527f6365000000000000000000000000000000000000000000000000000000000000602082015250565b7f4f776e61626c653a206e6577206f776e657220697320746865207a65726f206160008201527f6464726573730000000000000000000000000000000000000000000000000000602082015250565b7f45524332303a20617070726f766520746f20746865207a65726f20616464726560008201527f7373000000000000000000000000000000000000000000000000000000000000602082015250565b7f45524332303a207472616e7366657220616d6f756e742065786365656473206260008201527f616c616e63650000000000000000000000000000000000000000000000000000602082015250565b7f43616c6c6572206973206e6f742061206d696e74657200000000000000000000600082015250565b7f45524332303a207472616e7366657220616d6f756e742065786365656473206160008201527f6c6c6f77616e6365000000000000000000000000000000000000000000000000602082015250565b7f4f776e61626c653a2063616c6c6572206973206e6f7420746865206f776e6572600082015250565b7f45524332303a206275726e2066726f6d20746865207a65726f2061646472657360008201527f7300000000000000000000000000000000000000000000000000000000000000602082015250565b7f45524332303a207472616e736665722066726f6d20746865207a65726f20616460008201527f6472657373000000000000000000000000000000000000000000000000000000602082015250565b7f436f756c646e27742066696e642074686973206164647265737320696e20746860008201527f6520726f6c65732e200000000000000000000000000000000000000000000000602082015250565b7f4d6f646966696564416363657373436f6e74726f6c3a2063616e6e6f7420726560008201527f766f6b652064656661756c742061646d696e20726f6c65000000000000000000602082015250565b7f45524332303a20617070726f76652066726f6d20746865207a65726f2061646460008201527f7265737300000000000000000000000000000000000000000000000000000000602082015250565b7f416363657373436f6e74726f6c3a206163636f756e7420000000000000000000600082015250565b7f45524332303a2064656372656173656420616c6c6f77616e63652062656c6f7760008201527f207a65726f000000000000000000000000000000000000000000000000000000602082015250565b7f206973206d697373696e6720726f6c6520000000000000000000000000000000600082015250565b7f416363657373436f6e74726f6c3a2063616e206f6e6c792072656e6f756e636560008201527f20726f6c657320666f722073656c660000000000000000000000000000000000602082015250565b7f45524332303a206d696e7420746f20746865207a65726f206164647265737300600082015250565b6130cc81612966565b81146130d757600080fd5b50565b6130e381612984565b81146130ee57600080fd5b50565b6130fa8161298e565b811461310557600080fd5b50565b613111816129da565b811461311c57600080fd5b5056fea26469706673582212203bb0c5839f91b49d24de90937625ed32aca9274ed3437ccd207b83d18b4242d164736f6c63430008070033",
  "immutableReferences": {},
  "source": "pragma solidity ^0.8.0;\n\nimport \"@openzeppelin/contracts/token/ERC20/ERC20.sol\";\n\nimport \"@openzeppelin/contracts/access/Ownable.sol\";\n\nimport \"@openzeppelin/contracts/access/AccessControl.sol\";\n\ncontract PolygonToken is ERC20, Ownable, AccessControl {\n    bytes32 public constant MINTER_BURNER_ROLE =\n        keccak256(\"MINTER_BURNER_ROLE\");\n\n    uint256 public totalBurnedToken;\n    uint256 public totalMintedToken;\n\n    constructor() ERC20(\"Launch Token\", \"LT\") {\n        _mint(msg.sender, 1000000 * (10**uint256(decimals())));\n        _setupRole(DEFAULT_ADMIN_ROLE, msg.sender);\n    }\n\n    function grandAccessRole(address minterBurnerAddress) public onlyOwner {\n        _setupRole(MINTER_BURNER_ROLE, minterBurnerAddress);\n    }\n\n    function revokeAccess(string memory role, address account)\n        public\n        onlyOwner\n    {\n        bytes32 roleName = keccak256(abi.encodePacked(role));\n        require(\n            roleName != DEFAULT_ADMIN_ROLE,\n            \"ModifiedAccessControl: cannot revoke default admin role\"\n        );\n        require(\n            hasRole(roleName, account),\n            \"Couldn't find this address in the roles. \"\n        );\n        revokeRole(roleName, account);\n    }\n\n    function mint(address to, uint256 amount) public {\n        // Check that the calling account has the minter role\n        require(\n            hasRole(MINTER_BURNER_ROLE, msg.sender),\n            \"Caller is not a minter\"\n        );\n        _mint(to, amount);\n        totalMintedToken = totalMintedToken + amount;\n    }\n\n    function burn(address from, uint256 amount) public {\n        // Check that the calling account has the Burner role\n        require(\n            hasRole(MINTER_BURNER_ROLE, msg.sender),\n            \"Caller is not a Burner\"\n        );\n        _burn(from, amount);\n        totalBurnedToken = totalBurnedToken + amount;\n    }\n}\n",
  "sourcePath": "/Users/aravinth/Repo/codegama/blockchain/token-buy-sell/src/contracts/PolygonToken.sol",
  "compiler": {
    "name": "solc",
    "version": "0.8.7+commit.e28d00a7.Emscripten.clang"
  },
  "schemaVersion": "3.2.3",
  "updatedAt": "2021-08-23T11:48:05.111Z",
  "devdoc": {
    "kind": "dev",
    "methods": {
      "allowance(address,address)": {
        "details": "See {IERC20-allowance}."
      },
      "approve(address,uint256)": {
        "details": "See {IERC20-approve}. Requirements: - `spender` cannot be the zero address."
      },
      "balanceOf(address)": {
        "details": "See {IERC20-balanceOf}."
      },
      "decimals()": {
        "details": "Returns the number of decimals used to get its user representation. For example, if `decimals` equals `2`, a balance of `505` tokens should be displayed to a user as `5,05` (`505 / 10 ** 2`). Tokens usually opt for a value of 18, imitating the relationship between Ether and Wei. This is the value {ERC20} uses, unless this function is overridden; NOTE: This information is only used for _display_ purposes: it in no way affects any of the arithmetic of the contract, including {IERC20-balanceOf} and {IERC20-transfer}."
      },
      "decreaseAllowance(address,uint256)": {
        "details": "Atomically decreases the allowance granted to `spender` by the caller. This is an alternative to {approve} that can be used as a mitigation for problems described in {IERC20-approve}. Emits an {Approval} event indicating the updated allowance. Requirements: - `spender` cannot be the zero address. - `spender` must have allowance for the caller of at least `subtractedValue`."
      },
      "getRoleAdmin(bytes32)": {
        "details": "Returns the admin role that controls `role`. See {grantRole} and {revokeRole}. To change a role's admin, use {_setRoleAdmin}."
      },
      "grantRole(bytes32,address)": {
        "details": "Grants `role` to `account`. If `account` had not been already granted `role`, emits a {RoleGranted} event. Requirements: - the caller must have ``role``'s admin role."
      },
      "hasRole(bytes32,address)": {
        "details": "Returns `true` if `account` has been granted `role`."
      },
      "increaseAllowance(address,uint256)": {
        "details": "Atomically increases the allowance granted to `spender` by the caller. This is an alternative to {approve} that can be used as a mitigation for problems described in {IERC20-approve}. Emits an {Approval} event indicating the updated allowance. Requirements: - `spender` cannot be the zero address."
      },
      "name()": {
        "details": "Returns the name of the token."
      },
      "owner()": {
        "details": "Returns the address of the current owner."
      },
      "renounceOwnership()": {
        "details": "Leaves the contract without owner. It will not be possible to call `onlyOwner` functions anymore. Can only be called by the current owner. NOTE: Renouncing ownership will leave the contract without an owner, thereby removing any functionality that is only available to the owner."
      },
      "renounceRole(bytes32,address)": {
        "details": "Revokes `role` from the calling account. Roles are often managed via {grantRole} and {revokeRole}: this function's purpose is to provide a mechanism for accounts to lose their privileges if they are compromised (such as when a trusted device is misplaced). If the calling account had been granted `role`, emits a {RoleRevoked} event. Requirements: - the caller must be `account`."
      },
      "revokeRole(bytes32,address)": {
        "details": "Revokes `role` from `account`. If `account` had been granted `role`, emits a {RoleRevoked} event. Requirements: - the caller must have ``role``'s admin role."
      },
      "supportsInterface(bytes4)": {
        "details": "See {IERC165-supportsInterface}."
      },
      "symbol()": {
        "details": "Returns the symbol of the token, usually a shorter version of the name."
      },
      "totalSupply()": {
        "details": "See {IERC20-totalSupply}."
      },
      "transfer(address,uint256)": {
        "details": "See {IERC20-transfer}. Requirements: - `recipient` cannot be the zero address. - the caller must have a balance of at least `amount`."
      },
      "transferFrom(address,address,uint256)": {
        "details": "See {IERC20-transferFrom}. Emits an {Approval} event indicating the updated allowance. This is not required by the EIP. See the note at the beginning of {ERC20}. Requirements: - `sender` and `recipient` cannot be the zero address. - `sender` must have a balance of at least `amount`. - the caller must have allowance for ``sender``'s tokens of at least `amount`."
      },
      "transferOwnership(address)": {
        "details": "Transfers ownership of the contract to a new account (`newOwner`). Can only be called by the current owner."
      }
    },
    "version": 1
  },
  "userdoc": {
    "kind": "user",
    "methods": {},
    "version": 1
  }
}