{
  "contractName": "RewardStaking",
  "abi": [
    {
      "inputs": [
        {
          "internalType": "contract ERC20",
          "name": "_busdxToken",
          "type": "address"
        },
        {
          "internalType": "contract ERC20",
          "name": "_busd",
          "type": "address"
        },
        {
          "internalType": "string",
          "name": "_name",
          "type": "string"
        },
        {
          "internalType": "address",
          "name": "_rewardsDistribution",
          "type": "address"
        },
        {
          "internalType": "address",
          "name": "_ownerAddress",
          "type": "address"
        }
      ],
      "stateMutability": "nonpayable",
      "type": "constructor"
    },
    {
      "anonymous": false,
      "inputs": [
        {
          "indexed": true,
          "internalType": "address",
          "name": "previousOwner",
          "type": "address"
        },
        {
          "indexed": true,
          "internalType": "address",
          "name": "newOwner",
          "type": "address"
        }
      ],
      "name": "OwnershipTransferred",
      "type": "event"
    },
    {
      "anonymous": false,
      "inputs": [
        {
          "indexed": false,
          "internalType": "address",
          "name": "account",
          "type": "address"
        }
      ],
      "name": "Paused",
      "type": "event"
    },
    {
      "anonymous": false,
      "inputs": [
        {
          "indexed": false,
          "internalType": "address",
          "name": "token",
          "type": "address"
        },
        {
          "indexed": false,
          "internalType": "uint256",
          "name": "amount",
          "type": "uint256"
        }
      ],
      "name": "Recovered",
      "type": "event"
    },
    {
      "anonymous": false,
      "inputs": [
        {
          "indexed": false,
          "internalType": "uint256",
          "name": "reward",
          "type": "uint256"
        }
      ],
      "name": "RewardAdded",
      "type": "event"
    },
    {
      "anonymous": false,
      "inputs": [
        {
          "indexed": true,
          "internalType": "address",
          "name": "user",
          "type": "address"
        },
        {
          "indexed": false,
          "internalType": "uint256",
          "name": "reward",
          "type": "uint256"
        }
      ],
      "name": "RewardPaid",
      "type": "event"
    },
    {
      "anonymous": false,
      "inputs": [
        {
          "indexed": false,
          "internalType": "uint256",
          "name": "newDuration",
          "type": "uint256"
        }
      ],
      "name": "RewardsDurationUpdated",
      "type": "event"
    },
    {
      "anonymous": false,
      "inputs": [
        {
          "indexed": true,
          "internalType": "bytes32",
          "name": "role",
          "type": "bytes32"
        },
        {
          "indexed": true,
          "internalType": "bytes32",
          "name": "previousAdminRole",
          "type": "bytes32"
        },
        {
          "indexed": true,
          "internalType": "bytes32",
          "name": "newAdminRole",
          "type": "bytes32"
        }
      ],
      "name": "RoleAdminChanged",
      "type": "event"
    },
    {
      "anonymous": false,
      "inputs": [
        {
          "indexed": true,
          "internalType": "bytes32",
          "name": "role",
          "type": "bytes32"
        },
        {
          "indexed": true,
          "internalType": "address",
          "name": "account",
          "type": "address"
        },
        {
          "indexed": true,
          "internalType": "address",
          "name": "sender",
          "type": "address"
        }
      ],
      "name": "RoleGranted",
      "type": "event"
    },
    {
      "anonymous": false,
      "inputs": [
        {
          "indexed": true,
          "internalType": "bytes32",
          "name": "role",
          "type": "bytes32"
        },
        {
          "indexed": true,
          "internalType": "address",
          "name": "account",
          "type": "address"
        },
        {
          "indexed": true,
          "internalType": "address",
          "name": "sender",
          "type": "address"
        }
      ],
      "name": "RoleRevoked",
      "type": "event"
    },
    {
      "anonymous": false,
      "inputs": [
        {
          "indexed": true,
          "internalType": "address",
          "name": "user",
          "type": "address"
        },
        {
          "indexed": false,
          "internalType": "uint256",
          "name": "amount",
          "type": "uint256"
        }
      ],
      "name": "Staked",
      "type": "event"
    },
    {
      "anonymous": false,
      "inputs": [
        {
          "indexed": false,
          "internalType": "address",
          "name": "account",
          "type": "address"
        }
      ],
      "name": "Unpaused",
      "type": "event"
    },
    {
      "anonymous": false,
      "inputs": [
        {
          "indexed": true,
          "internalType": "address",
          "name": "user",
          "type": "address"
        },
        {
          "indexed": false,
          "internalType": "uint256",
          "name": "amount",
          "type": "uint256"
        }
      ],
      "name": "Withdrawn",
      "type": "event"
    },
    {
      "inputs": [],
      "name": "BURNER_ROLE",
      "outputs": [
        {
          "internalType": "bytes32",
          "name": "",
          "type": "bytes32"
        }
      ],
      "stateMutability": "view",
      "type": "function"
    },
    {
      "inputs": [],
      "name": "DEFAULT_ADMIN_ROLE",
      "outputs": [
        {
          "internalType": "bytes32",
          "name": "",
          "type": "bytes32"
        }
      ],
      "stateMutability": "view",
      "type": "function"
    },
    {
      "inputs": [],
      "name": "MINTER_ROLE",
      "outputs": [
        {
          "internalType": "bytes32",
          "name": "",
          "type": "bytes32"
        }
      ],
      "stateMutability": "view",
      "type": "function"
    },
    {
      "inputs": [],
      "name": "busd",
      "outputs": [
        {
          "internalType": "contract ERC20",
          "name": "",
          "type": "address"
        }
      ],
      "stateMutability": "view",
      "type": "function"
    },
    {
      "inputs": [],
      "name": "busdRewardAllocated",
      "outputs": [
        {
          "internalType": "uint256",
          "name": "",
          "type": "uint256"
        }
      ],
      "stateMutability": "view",
      "type": "function"
    },
    {
      "inputs": [
        {
          "internalType": "address",
          "name": "",
          "type": "address"
        }
      ],
      "name": "busdRewards",
      "outputs": [
        {
          "internalType": "uint256",
          "name": "",
          "type": "uint256"
        }
      ],
      "stateMutability": "view",
      "type": "function"
    },
    {
      "inputs": [],
      "name": "busdxToken",
      "outputs": [
        {
          "internalType": "contract ERC20",
          "name": "",
          "type": "address"
        }
      ],
      "stateMutability": "view",
      "type": "function"
    },
    {
      "inputs": [
        {
          "internalType": "bytes32",
          "name": "role",
          "type": "bytes32"
        }
      ],
      "name": "getRoleAdmin",
      "outputs": [
        {
          "internalType": "bytes32",
          "name": "",
          "type": "bytes32"
        }
      ],
      "stateMutability": "view",
      "type": "function"
    },
    {
      "inputs": [],
      "name": "grantBalance",
      "outputs": [
        {
          "internalType": "uint256",
          "name": "",
          "type": "uint256"
        }
      ],
      "stateMutability": "view",
      "type": "function"
    },
    {
      "inputs": [
        {
          "internalType": "bytes32",
          "name": "role",
          "type": "bytes32"
        },
        {
          "internalType": "address",
          "name": "account",
          "type": "address"
        }
      ],
      "name": "grantRole",
      "outputs": [],
      "stateMutability": "nonpayable",
      "type": "function"
    },
    {
      "inputs": [
        {
          "internalType": "bytes32",
          "name": "role",
          "type": "bytes32"
        },
        {
          "internalType": "address",
          "name": "account",
          "type": "address"
        }
      ],
      "name": "hasRole",
      "outputs": [
        {
          "internalType": "bool",
          "name": "",
          "type": "bool"
        }
      ],
      "stateMutability": "view",
      "type": "function"
    },
    {
      "inputs": [
        {
          "internalType": "address",
          "name": "",
          "type": "address"
        }
      ],
      "name": "hasStaked",
      "outputs": [
        {
          "internalType": "bool",
          "name": "",
          "type": "bool"
        }
      ],
      "stateMutability": "view",
      "type": "function"
    },
    {
      "inputs": [
        {
          "internalType": "address",
          "name": "",
          "type": "address"
        }
      ],
      "name": "hasUnstaked",
      "outputs": [
        {
          "internalType": "bool",
          "name": "",
          "type": "bool"
        }
      ],
      "stateMutability": "view",
      "type": "function"
    },
    {
      "inputs": [
        {
          "internalType": "address",
          "name": "",
          "type": "address"
        }
      ],
      "name": "isStaking",
      "outputs": [
        {
          "internalType": "bool",
          "name": "",
          "type": "bool"
        }
      ],
      "stateMutability": "view",
      "type": "function"
    },
    {
      "inputs": [],
      "name": "name",
      "outputs": [
        {
          "internalType": "string",
          "name": "",
          "type": "string"
        }
      ],
      "stateMutability": "view",
      "type": "function"
    },
    {
      "inputs": [],
      "name": "owner",
      "outputs": [
        {
          "internalType": "address",
          "name": "",
          "type": "address"
        }
      ],
      "stateMutability": "view",
      "type": "function"
    },
    {
      "inputs": [],
      "name": "paused",
      "outputs": [
        {
          "internalType": "bool",
          "name": "",
          "type": "bool"
        }
      ],
      "stateMutability": "view",
      "type": "function"
    },
    {
      "inputs": [],
      "name": "previousBalance",
      "outputs": [
        {
          "internalType": "uint256",
          "name": "",
          "type": "uint256"
        }
      ],
      "stateMutability": "view",
      "type": "function"
    },
    {
      "inputs": [],
      "name": "renounceOwnership",
      "outputs": [],
      "stateMutability": "nonpayable",
      "type": "function"
    },
    {
      "inputs": [
        {
          "internalType": "bytes32",
          "name": "role",
          "type": "bytes32"
        },
        {
          "internalType": "address",
          "name": "account",
          "type": "address"
        }
      ],
      "name": "renounceRole",
      "outputs": [],
      "stateMutability": "nonpayable",
      "type": "function"
    },
    {
      "inputs": [
        {
          "internalType": "bytes32",
          "name": "role",
          "type": "bytes32"
        },
        {
          "internalType": "address",
          "name": "account",
          "type": "address"
        }
      ],
      "name": "revokeRole",
      "outputs": [],
      "stateMutability": "nonpayable",
      "type": "function"
    },
    {
      "inputs": [],
      "name": "rewardRate",
      "outputs": [
        {
          "internalType": "uint256",
          "name": "",
          "type": "uint256"
        }
      ],
      "stateMutability": "view",
      "type": "function"
    },
    {
      "inputs": [
        {
          "internalType": "address",
          "name": "",
          "type": "address"
        }
      ],
      "name": "rewards",
      "outputs": [
        {
          "internalType": "uint256",
          "name": "",
          "type": "uint256"
        }
      ],
      "stateMutability": "view",
      "type": "function"
    },
    {
      "inputs": [],
      "name": "rewardsDistribution",
      "outputs": [
        {
          "internalType": "address",
          "name": "",
          "type": "address"
        }
      ],
      "stateMutability": "view",
      "type": "function"
    },
    {
      "inputs": [
        {
          "internalType": "address",
          "name": "",
          "type": "address"
        }
      ],
      "name": "stakedTimeStamp",
      "outputs": [
        {
          "internalType": "uint256",
          "name": "",
          "type": "uint256"
        }
      ],
      "stateMutability": "view",
      "type": "function"
    },
    {
      "inputs": [
        {
          "internalType": "uint256",
          "name": "",
          "type": "uint256"
        }
      ],
      "name": "stakers",
      "outputs": [
        {
          "internalType": "address",
          "name": "",
          "type": "address"
        }
      ],
      "stateMutability": "view",
      "type": "function"
    },
    {
      "inputs": [
        {
          "internalType": "address",
          "name": "",
          "type": "address"
        }
      ],
      "name": "stakingBalance",
      "outputs": [
        {
          "internalType": "uint256",
          "name": "",
          "type": "uint256"
        }
      ],
      "stateMutability": "view",
      "type": "function"
    },
    {
      "inputs": [
        {
          "internalType": "bytes4",
          "name": "interfaceId",
          "type": "bytes4"
        }
      ],
      "name": "supportsInterface",
      "outputs": [
        {
          "internalType": "bool",
          "name": "",
          "type": "bool"
        }
      ],
      "stateMutability": "view",
      "type": "function"
    },
    {
      "inputs": [
        {
          "internalType": "address",
          "name": "newOwner",
          "type": "address"
        }
      ],
      "name": "transferOwnership",
      "outputs": [],
      "stateMutability": "nonpayable",
      "type": "function"
    },
    {
      "inputs": [
        {
          "internalType": "address",
          "name": "",
          "type": "address"
        }
      ],
      "name": "unStakedUserDetails",
      "outputs": [
        {
          "internalType": "uint256",
          "name": "",
          "type": "uint256"
        }
      ],
      "stateMutability": "view",
      "type": "function"
    },
    {
      "inputs": [
        {
          "internalType": "uint256",
          "name": "",
          "type": "uint256"
        }
      ],
      "name": "unStakers",
      "outputs": [
        {
          "internalType": "address",
          "name": "",
          "type": "address"
        }
      ],
      "stateMutability": "view",
      "type": "function"
    },
    {
      "inputs": [
        {
          "internalType": "address",
          "name": "",
          "type": "address"
        }
      ],
      "name": "userRewardPerTokenPaid",
      "outputs": [
        {
          "internalType": "uint256",
          "name": "",
          "type": "uint256"
        }
      ],
      "stateMutability": "view",
      "type": "function"
    },
    {
      "inputs": [],
      "name": "totalSupply",
      "outputs": [
        {
          "internalType": "uint256",
          "name": "",
          "type": "uint256"
        }
      ],
      "stateMutability": "view",
      "type": "function"
    },
    {
      "inputs": [
        {
          "internalType": "address",
          "name": "account",
          "type": "address"
        }
      ],
      "name": "balanceOf",
      "outputs": [
        {
          "internalType": "uint256",
          "name": "",
          "type": "uint256"
        }
      ],
      "stateMutability": "view",
      "type": "function"
    },
    {
      "inputs": [],
      "name": "numberOfStakers",
      "outputs": [
        {
          "internalType": "uint256",
          "name": "",
          "type": "uint256"
        }
      ],
      "stateMutability": "view",
      "type": "function"
    },
    {
      "inputs": [
        {
          "internalType": "uint256",
          "name": "_amount",
          "type": "uint256"
        }
      ],
      "name": "addGrandAmount",
      "outputs": [],
      "stateMutability": "nonpayable",
      "type": "function"
    },
    {
      "inputs": [
        {
          "internalType": "uint256",
          "name": "_amount",
          "type": "uint256"
        }
      ],
      "name": "removeGrandAmount",
      "outputs": [],
      "stateMutability": "nonpayable",
      "type": "function"
    },
    {
      "inputs": [],
      "name": "removeBUSD",
      "outputs": [],
      "stateMutability": "nonpayable",
      "type": "function"
    },
    {
      "inputs": [
        {
          "internalType": "address",
          "name": "account",
          "type": "address"
        }
      ],
      "name": "timeStampDiff",
      "outputs": [
        {
          "internalType": "uint256",
          "name": "",
          "type": "uint256"
        }
      ],
      "stateMutability": "view",
      "type": "function"
    },
    {
      "inputs": [
        {
          "internalType": "address",
          "name": "account",
          "type": "address"
        }
      ],
      "name": "rewardTokenPerAnnum",
      "outputs": [
        {
          "internalType": "uint256",
          "name": "",
          "type": "uint256"
        }
      ],
      "stateMutability": "view",
      "type": "function"
    },
    {
      "inputs": [
        {
          "internalType": "address",
          "name": "account",
          "type": "address"
        }
      ],
      "name": "earned",
      "outputs": [
        {
          "internalType": "uint256",
          "name": "",
          "type": "uint256"
        }
      ],
      "stateMutability": "view",
      "type": "function"
    },
    {
      "inputs": [
        {
          "internalType": "address",
          "name": "account",
          "type": "address"
        },
        {
          "internalType": "uint256",
          "name": "balance",
          "type": "uint256"
        }
      ],
      "name": "busdEarned",
      "outputs": [
        {
          "internalType": "uint256",
          "name": "",
          "type": "uint256"
        }
      ],
      "stateMutability": "view",
      "type": "function"
    },
    {
      "inputs": [
        {
          "internalType": "uint256",
          "name": "amount",
          "type": "uint256"
        }
      ],
      "name": "stake",
      "outputs": [],
      "stateMutability": "nonpayable",
      "type": "function"
    },
    {
      "inputs": [
        {
          "internalType": "uint256",
          "name": "amount",
          "type": "uint256"
        }
      ],
      "name": "withdraw",
      "outputs": [],
      "stateMutability": "nonpayable",
      "type": "function"
    },
    {
      "inputs": [],
      "name": "getReward",
      "outputs": [],
      "stateMutability": "nonpayable",
      "type": "function"
    },
    {
      "inputs": [],
      "name": "exit",
      "outputs": [],
      "stateMutability": "nonpayable",
      "type": "function"
    },
    {
      "inputs": [],
      "name": "stakeRewardTokens",
      "outputs": [],
      "stateMutability": "nonpayable",
      "type": "function"
    },
    {
      "inputs": [],
      "name": "distributeBUSDReward",
      "outputs": [],
      "stateMutability": "nonpayable",
      "type": "function"
    },
    {
      "inputs": [
        {
          "internalType": "address",
          "name": "_rewardsDistribution",
          "type": "address"
        }
      ],
      "name": "setRewardsDistribution",
      "outputs": [],
      "stateMutability": "nonpayable",
      "type": "function"
    },
    {
      "inputs": [
        {
          "internalType": "uint256",
          "name": "_rewardRate",
          "type": "uint256"
        }
      ],
      "name": "setRewardRate",
      "outputs": [],
      "stateMutability": "nonpayable",
      "type": "function"
    },
    {
      "inputs": [],
      "name": "pause",
      "outputs": [],
      "stateMutability": "nonpayable",
      "type": "function"
    },
    {
      "inputs": [],
      "name": "unpause",
      "outputs": [],
      "stateMutability": "nonpayable",
      "type": "function"
    }
  ],
  "bytecode": "0x6080604052601e600f553480156200001657600080fd5b5060405162004f0c38038062004f0c83398181016040528101906200003c919062000714565b6200005c62000050620001df60201b60201c565b620001e760201b60201c565b60016002819055506000600360006101000a81548160ff02191690831515021790555084600560006101000a81548173ffffffffffffffffffffffffffffffffffffffff021916908373ffffffffffffffffffffffffffffffffffffffff16021790555083600660006101000a81548173ffffffffffffffffffffffffffffffffffffffff021916908373ffffffffffffffffffffffffffffffffffffffff1602179055508260049080519060200190620001199291906200041d565b5081600e60006101000a81548173ffffffffffffffffffffffffffffffffffffffff021916908373ffffffffffffffffffffffffffffffffffffffff160217905550620001706000801b82620002ab60201b60201c565b620001a27f9f2df0fed2c77648de5860a4cc508cd0818c85b8b8a1ab4ceeef8d981c8956a682620002ab60201b60201c565b620001d47f3c11d16cbaffd01df69ce1c404f6340ee057498f5f00246190ea54220576a84882620002ab60201b60201c565b505050505062000820565b600033905090565b60008060009054906101000a900473ffffffffffffffffffffffffffffffffffffffff169050816000806101000a81548173ffffffffffffffffffffffffffffffffffffffff021916908373ffffffffffffffffffffffffffffffffffffffff1602179055508173ffffffffffffffffffffffffffffffffffffffff168173ffffffffffffffffffffffffffffffffffffffff167f8be0079c531659141344cd1fd0a4f28419497f9722a3daafe3b4186f6b6457e060405160405180910390a35050565b620002bd8282620002c160201b60201c565b5050565b620002d38282620003b260201b60201c565b620003ae57600180600084815260200190815260200160002060000160008373ffffffffffffffffffffffffffffffffffffffff1673ffffffffffffffffffffffffffffffffffffffff16815260200190815260200160002060006101000a81548160ff02191690831515021790555062000353620001df60201b60201c565b73ffffffffffffffffffffffffffffffffffffffff168173ffffffffffffffffffffffffffffffffffffffff16837f2f8788117e7eff1d82e926ec794901d17c78024a50270940304540a733656f0d60405160405180910390a45b5050565b60006001600084815260200190815260200160002060000160008373ffffffffffffffffffffffffffffffffffffffff1673ffffffffffffffffffffffffffffffffffffffff16815260200190815260200160002060009054906101000a900460ff16905092915050565b8280546200042b90620007ea565b90600052602060002090601f0160209004810192826200044f57600085556200049b565b82601f106200046a57805160ff19168380011785556200049b565b828001600101855582156200049b579182015b828111156200049a5782518255916020019190600101906200047d565b5b509050620004aa9190620004ae565b5090565b5b80821115620004c9576000816000905550600101620004af565b5090565b6000604051905090565b600080fd5b600080fd5b600073ffffffffffffffffffffffffffffffffffffffff82169050919050565b60006200050e82620004e1565b9050919050565b6000620005228262000501565b9050919050565b620005348162000515565b81146200054057600080fd5b50565b600081519050620005548162000529565b92915050565b600080fd5b600080fd5b6000601f19601f8301169050919050565b7f4e487b7100000000000000000000000000000000000000000000000000000000600052604160045260246000fd5b620005af8262000564565b810181811067ffffffffffffffff82111715620005d157620005d062000575565b5b80604052505050565b6000620005e6620004cd565b9050620005f48282620005a4565b919050565b600067ffffffffffffffff82111562000617576200061662000575565b5b620006228262000564565b9050602081019050919050565b60005b838110156200064f57808201518184015260208101905062000632565b838111156200065f576000848401525b50505050565b60006200067c6200067684620005f9565b620005da565b9050828152602081018484840111156200069b576200069a6200055f565b5b620006a88482856200062f565b509392505050565b600082601f830112620006c857620006c76200055a565b5b8151620006da84826020860162000665565b91505092915050565b620006ee8162000501565b8114620006fa57600080fd5b50565b6000815190506200070e81620006e3565b92915050565b600080600080600060a08688031215620007335762000732620004d7565b5b6000620007438882890162000543565b9550506020620007568882890162000543565b945050604086015167ffffffffffffffff8111156200077a5762000779620004dc565b5b6200078888828901620006b0565b93505060606200079b88828901620006fd565b9250506080620007ae88828901620006fd565b9150509295509295909350565b7f4e487b7100000000000000000000000000000000000000000000000000000000600052602260045260246000fd5b600060028204905060018216806200080357607f821691505b602082108114156200081a5762000819620007bb565b5b50919050565b6146dc80620008306000396000f3fe608060405234801561001057600080fd5b506004361061030b5760003560e01c80635eabf5771161019d578063a217fddf116100e9578063d5391393116100a2578063e9fad8ee1161007c578063e9fad8ee14610944578063f2fde38b1461094e578063f895d1c21461096a578063fd5e6dd11461099a5761030b565b8063d5391393146108da578063d547741f146108f8578063e0359d2a146109145761030b565b8063a217fddf14610804578063a694fc3a14610822578063b113e7ce1461083e578063b252ccc11461085c578063c93c8f341461088c578063cf066d98146108bc5761030b565b80637c50c724116101565780638b876347116101305780638b8763471461076a5780638da5cb5b1461079a57806391d14854146107b85780639e447fc6146107e85761030b565b80637c50c724146107265780638456cb591461073057806386b242751461073a5761030b565b80635eabf577146106505780635f9954041461066e5780636f49712b1461069e57806370a08231146106ce578063715018a6146106fe5780637b0a47ee146107085761030b565b80632e1a7d4d1161025c5780633d18b9121161021557806342e4fc76116101ef57806342e4fc76146105b657806345bc78ab146105d25780635c975abb146106025780635d0da4b5146106205761030b565b80633d18b912146105845780633f4ba83a1461058e5780633fc6df6e146105985761030b565b80632e1a7d4d146104c45780632f2ff15d146104e0578063306ef31b146104fc57806333b1b3bc1461052c57806336568abe1461054a5780633ca5b234146105665761030b565b806318160ddd116102c957806321de22aa116102a357806321de22aa1461044e578063237ba55f1461046c578063248a9ca314610476578063282c51f3146104a65761030b565b806318160ddd146103e457806318582b861461040257806319762143146104325761030b565b80628cc2621461031057806301ffc9a71461034057806306fdde03146103705780630700037d1461038e57806311638f4a146103be578063142b5c7c146103da575b600080fd5b61032a600480360381019061032591906136df565b6109ca565b6040516103379190613725565b60405180910390f35b61035a60048036038101906103559190613798565b610a64565b60405161036791906137e0565b60405180910390f35b610378610ade565b6040516103859190613894565b60405180910390f35b6103a860048036038101906103a391906136df565b610b6c565b6040516103b59190613725565b60405180910390f35b6103d860048036038101906103d391906138e2565b610b84565b005b6103e2610c5c565b005b6103ec610fcb565b6040516103f99190613725565b60405180910390f35b61041c600480360381019061041791906136df565b610fd5565b6040516104299190613725565b60405180910390f35b61044c600480360381019061044791906136df565b610fed565b005b6104566110ad565b6040516104639190613725565b60405180910390f35b6104746110b3565b005b610490600480360381019061048b9190613945565b611593565b60405161049d9190613981565b60405180910390f35b6104ae6115b3565b6040516104bb9190613981565b60405180910390f35b6104de60048036038101906104d991906138e2565b6115d7565b005b6104fa60048036038101906104f5919061399c565b611b87565b005b610516600480360381019061051191906136df565b611bb0565b6040516105239190613725565b60405180910390f35b610534611c12565b6040516105419190613a3b565b60405180910390f35b610564600480360381019061055f919061399c565b611c38565b005b61056e611cbb565b60405161057b9190613a3b565b60405180910390f35b61058c611ce1565b005b610596611fda565b005b6105a0612060565b6040516105ad9190613a65565b60405180910390f35b6105d060048036038101906105cb91906138e2565b612086565b005b6105ec60048036038101906105e791906136df565b6121bc565b6040516105f99190613725565b60405180910390f35b61060a6121d4565b60405161061791906137e0565b60405180910390f35b61063a600480360381019061063591906136df565b6121eb565b6040516106479190613725565b60405180910390f35b61065861223f565b6040516106659190613725565b60405180910390f35b61068860048036038101906106839190613a80565b61224c565b6040516106959190613725565b60405180910390f35b6106b860048036038101906106b391906136df565b6122df565b6040516106c591906137e0565b60405180910390f35b6106e860048036038101906106e391906136df565b6122ff565b6040516106f59190613725565b60405180910390f35b610706612348565b005b6107106123d0565b60405161071d9190613725565b60405180910390f35b61072e6123d6565b005b610738612675565b005b610754600480360381019061074f91906136df565b6126fb565b6040516107619190613725565b60405180910390f35b610784600480360381019061077f91906136df565b612713565b6040516107919190613725565b60405180910390f35b6107a261272b565b6040516107af9190613a65565b60405180910390f35b6107d260048036038101906107cd919061399c565b612754565b6040516107df91906137e0565b60405180910390f35b61080260048036038101906107fd91906138e2565b6127bf565b005b61080c612845565b6040516108199190613981565b60405180910390f35b61083c600480360381019061083791906138e2565b61284c565b005b610846612ced565b6040516108539190613725565b60405180910390f35b610876600480360381019061087191906136df565b612cf3565b6040516108839190613725565b60405180910390f35b6108a660048036038101906108a191906136df565b612d0b565b6040516108b391906137e0565b60405180910390f35b6108c4612d2b565b6040516108d19190613725565b60405180910390f35b6108e2612d31565b6040516108ef9190613981565b60405180910390f35b610912600480360381019061090d919061399c565b612d55565b005b61092e600480360381019061092991906136df565b612d7e565b60405161093b91906137e0565b60405180910390f35b61094c612d9e565b005b610968600480360381019061096391906136df565b612df0565b005b610984600480360381019061097f91906138e2565b612ee8565b6040516109919190613a65565b60405180910390f35b6109b460048036038101906109af91906138e2565b612f27565b6040516109c19190613a65565b60405180910390f35b600080603c6109d8846121eb565b6109e29190613b1e565b90506000620805206109f385611bb0565b6109fd9190613b1e565b905060008282610a0d9190613b4f565b9050601160008673ffffffffffffffffffffffffffffffffffffffff1673ffffffffffffffffffffffffffffffffffffffff1681526020019081526020016000205481610a5a9190613ba9565b9350505050919050565b60007f7965db0b000000000000000000000000000000000000000000000000000000007bffffffffffffffffffffffffffffffffffffffffffffffffffffffff1916827bffffffffffffffffffffffffffffffffffffffffffffffffffffffff19161480610ad75750610ad682612f66565b5b9050919050565b60048054610aeb90613c2e565b80601f0160208091040260200160405190810160405280929190818152602001828054610b1790613c2e565b8015610b645780601f10610b3957610100808354040283529160200191610b64565b820191906000526020600020905b815481529060010190602001808311610b4757829003601f168201915b505050505081565b60116020528060005260406000206000915090505481565b610b8c612fd0565b73ffffffffffffffffffffffffffffffffffffffff16610baa61272b565b73ffffffffffffffffffffffffffffffffffffffff1614610c00576040517f08c379a0000000000000000000000000000000000000000000000000000000008152600401610bf790613cac565b60405180910390fd5b601854811115610c45576040517f08c379a0000000000000000000000000000000000000000000000000000000008152600401610c3c90613d3e565b60405180910390fd5b80601854610c539190613d5e565b60188190555050565b610c64612fd0565b73ffffffffffffffffffffffffffffffffffffffff16610c8261272b565b73ffffffffffffffffffffffffffffffffffffffff1614610cd8576040517f08c379a0000000000000000000000000000000000000000000000000000000008152600401610ccf90613cac565b60405180910390fd5b6000600660009054906101000a900473ffffffffffffffffffffffffffffffffffffffff1673ffffffffffffffffffffffffffffffffffffffff166370a08231306040518263ffffffff1660e01b8152600401610d359190613a65565b602060405180830381865afa158015610d52573d6000803e3d6000fd5b505050506040513d601f19601f82011682018060405250810190610d769190613da7565b905060005b600780549050811015610fc757600060078281548110610d9e57610d9d613dd4565b5b9060005260206000200160009054906101000a900473ffffffffffffffffffffffffffffffffffffffff16905060011515600a60008373ffffffffffffffffffffffffffffffffffffffff1673ffffffffffffffffffffffffffffffffffffffff16815260200190815260200160002060009054906101000a900460ff1615151415610fb3576000610e30828561224c565b9050600660009054906101000a900473ffffffffffffffffffffffffffffffffffffffff1673ffffffffffffffffffffffffffffffffffffffff166370a08231306040518263ffffffff1660e01b8152600401610e8d9190613a65565b602060405180830381865afa158015610eaa573d6000803e3d6000fd5b505050506040513d601f19601f82011682018060405250810190610ece9190613da7565b811115610f10576040517f08c379a0000000000000000000000000000000000000000000000000000000008152600401610f0790613e4f565b60405180910390fd5b600660009054906101000a900473ffffffffffffffffffffffffffffffffffffffff1673ffffffffffffffffffffffffffffffffffffffff1663a9059cbb83836040518363ffffffff1660e01b8152600401610f6d929190613e6f565b6020604051808303816000875af1158015610f8c573d6000803e3d6000fd5b505050506040513d601f19601f82011682018060405250810190610fb09190613ec4565b50505b508080610fbf90613ef1565b915050610d7b565b5050565b6000601554905090565b60126020528060005260406000206000915090505481565b610ff5612fd0565b73ffffffffffffffffffffffffffffffffffffffff1661101361272b565b73ffffffffffffffffffffffffffffffffffffffff1614611069576040517f08c379a000000000000000000000000000000000000000000000000000000000815260040161106090613cac565b60405180910390fd5b80600e60006101000a81548173ffffffffffffffffffffffffffffffffffffffff021916908373ffffffffffffffffffffffffffffffffffffffff16021790555050565b60135481565b6002805414156110f8576040517f08c379a00000000000000000000000000000000000000000000000000000000081526004016110ef90613f86565b60405180910390fd5b600280819055506111076121d4565b15611147576040517f08c379a000000000000000000000000000000000000000000000000000000000815260040161113e90613ff2565b60405180910390fd5b33600073ffffffffffffffffffffffffffffffffffffffff168173ffffffffffffffffffffffffffffffffffffffff16146111c957611185816109ca565b601160008373ffffffffffffffffffffffffffffffffffffffff1673ffffffffffffffffffffffffffffffffffffffff168152602001908152602001600020819055505b6000601160003373ffffffffffffffffffffffffffffffffffffffff1673ffffffffffffffffffffffffffffffffffffffff168152602001908152602001600020549050601854811115611252576040517f08c379a000000000000000000000000000000000000000000000000000000000815260040161124990614084565b60405180910390fd5b60008111611295576040517f08c379a000000000000000000000000000000000000000000000000000000000815260040161128c90614116565b60405180910390fd5b6000601160003373ffffffffffffffffffffffffffffffffffffffff1673ffffffffffffffffffffffffffffffffffffffff16815260200190815260200160002081905550806015546112e89190613ba9565b60158190555080601660003373ffffffffffffffffffffffffffffffffffffffff1673ffffffffffffffffffffffffffffffffffffffff168152602001908152602001600020546113399190613ba9565b601660003373ffffffffffffffffffffffffffffffffffffffff1673ffffffffffffffffffffffffffffffffffffffff1681526020019081526020016000208190555042601760003373ffffffffffffffffffffffffffffffffffffffff1673ffffffffffffffffffffffffffffffffffffffff16815260200190815260200160002081905550806018546113ce9190613d5e565b601881905550600960003373ffffffffffffffffffffffffffffffffffffffff1673ffffffffffffffffffffffffffffffffffffffff16815260200190815260200160002060009054906101000a900460ff16611489576007339080600181540180825580915050600190039060005260206000200160009091909190916101000a81548173ffffffffffffffffffffffffffffffffffffffff021916908373ffffffffffffffffffffffffffffffffffffffff1602179055505b6001600a60003373ffffffffffffffffffffffffffffffffffffffff1673ffffffffffffffffffffffffffffffffffffffff16815260200190815260200160002060006101000a81548160ff0219169083151502179055506001600960003373ffffffffffffffffffffffffffffffffffffffff1673ffffffffffffffffffffffffffffffffffffffff16815260200190815260200160002060006101000a81548160ff0219169083151502179055503373ffffffffffffffffffffffffffffffffffffffff167f9e71bc8eea02a63969f509818f2dafb9254532904319f9dbda79b67bd34a5f3d8260405161157f9190613725565b60405180910390a250506001600281905550565b600060016000838152602001908152602001600020600101549050919050565b7f3c11d16cbaffd01df69ce1c404f6340ee057498f5f00246190ea54220576a84881565b60028054141561161c576040517f08c379a000000000000000000000000000000000000000000000000000000000815260040161161390613f86565b60405180910390fd5b6002808190555033600073ffffffffffffffffffffffffffffffffffffffff168173ffffffffffffffffffffffffffffffffffffffff16146116a557611661816109ca565b601160008373ffffffffffffffffffffffffffffffffffffffff1673ffffffffffffffffffffffffffffffffffffffff168152602001908152602001600020819055505b600082116116e8576040517f08c379a00000000000000000000000000000000000000000000000000000000081526004016116df90614182565b60405180910390fd5b6000601660003373ffffffffffffffffffffffffffffffffffffffff1673ffffffffffffffffffffffffffffffffffffffff168152602001908152602001600020541161176a576040517f08c379a000000000000000000000000000000000000000000000000000000000815260040161176190614214565b60405180910390fd5b816015546117789190613d5e565b60158190555081601660003373ffffffffffffffffffffffffffffffffffffffff1673ffffffffffffffffffffffffffffffffffffffff168152602001908152602001600020546117c99190613d5e565b601660003373ffffffffffffffffffffffffffffffffffffffff1673ffffffffffffffffffffffffffffffffffffffff16815260200190815260200160002081905550600560009054906101000a900473ffffffffffffffffffffffffffffffffffffffff1673ffffffffffffffffffffffffffffffffffffffff1663a9059cbb33846040518363ffffffff1660e01b8152600401611869929190613e6f565b6020604051808303816000875af1158015611888573d6000803e3d6000fd5b505050506040513d601f19601f820116820180604052508101906118ac9190613ec4565b5042601760003373ffffffffffffffffffffffffffffffffffffffff1673ffffffffffffffffffffffffffffffffffffffff1681526020019081526020016000208190555081600b60003373ffffffffffffffffffffffffffffffffffffffff1673ffffffffffffffffffffffffffffffffffffffff1681526020019081526020016000205461193c9190613ba9565b600b60003373ffffffffffffffffffffffffffffffffffffffff1673ffffffffffffffffffffffffffffffffffffffff16815260200190815260200160002081905550600d60003373ffffffffffffffffffffffffffffffffffffffff1673ffffffffffffffffffffffffffffffffffffffff16815260200190815260200160002060009054906101000a900460ff16611a3457600c339080600181540180825580915050600190039060005260206000200160009091909190916101000a81548173ffffffffffffffffffffffffffffffffffffffff021916908373ffffffffffffffffffffffffffffffffffffffff1602179055505b6001600d60003373ffffffffffffffffffffffffffffffffffffffff1673ffffffffffffffffffffffffffffffffffffffff16815260200190815260200160002060006101000a81548160ff0219169083151502179055506000601660003373ffffffffffffffffffffffffffffffffffffffff1673ffffffffffffffffffffffffffffffffffffffff168152602001908152602001600020541415611b2d576000600a60003373ffffffffffffffffffffffffffffffffffffffff1673ffffffffffffffffffffffffffffffffffffffff16815260200190815260200160002060006101000a81548160ff0219169083151502179055505b3373ffffffffffffffffffffffffffffffffffffffff167f7084f5476618d8e60b11ef0d7d3f06914655adb8793e28ff7f018d4c76d505d583604051611b739190613725565b60405180910390a250600160028190555050565b611b9082611593565b611ba181611b9c612fd0565b612fd8565b611bab8383613075565b505050565b60006064600f54601660008573ffffffffffffffffffffffffffffffffffffffff1673ffffffffffffffffffffffffffffffffffffffff16815260200190815260200160002054611c019190613b4f565b611c0b9190613b1e565b9050919050565b600560009054906101000a900473ffffffffffffffffffffffffffffffffffffffff1681565b611c40612fd0565b73ffffffffffffffffffffffffffffffffffffffff168173ffffffffffffffffffffffffffffffffffffffff1614611cad576040517f08c379a0000000000000000000000000000000000000000000000000000000008152600401611ca4906142a6565b60405180910390fd5b611cb78282613155565b5050565b600660009054906101000a900473ffffffffffffffffffffffffffffffffffffffff1681565b600280541415611d26576040517f08c379a0000000000000000000000000000000000000000000000000000000008152600401611d1d90613f86565b60405180910390fd5b6002808190555033600073ffffffffffffffffffffffffffffffffffffffff168173ffffffffffffffffffffffffffffffffffffffff1614611daf57611d6b816109ca565b601160008373ffffffffffffffffffffffffffffffffffffffff1673ffffffffffffffffffffffffffffffffffffffff168152602001908152602001600020819055505b6000601160003373ffffffffffffffffffffffffffffffffffffffff1673ffffffffffffffffffffffffffffffffffffffff168152602001908152602001600020549050601854811115611e38576040517f08c379a0000000000000000000000000000000000000000000000000000000008152600401611e2f90614084565b60405180910390fd5b6000811115611fce576000601160003373ffffffffffffffffffffffffffffffffffffffff1673ffffffffffffffffffffffffffffffffffffffff16815260200190815260200160002081905550600560009054906101000a900473ffffffffffffffffffffffffffffffffffffffff1673ffffffffffffffffffffffffffffffffffffffff1663a9059cbb33836040518363ffffffff1660e01b8152600401611ee3929190613e6f565b6020604051808303816000875af1158015611f02573d6000803e3d6000fd5b505050506040513d601f19601f82011682018060405250810190611f269190613ec4565b5080601854611f359190613d5e565b60188190555042601760003373ffffffffffffffffffffffffffffffffffffffff1673ffffffffffffffffffffffffffffffffffffffff168152602001908152602001600020819055503373ffffffffffffffffffffffffffffffffffffffff167fe2403640ba68fed3a2f88b7557551d1993f84b99bb10ff833f0cf8db0c5e048682604051611fc59190613725565b60405180910390a25b50506001600281905550565b611fe2612fd0565b73ffffffffffffffffffffffffffffffffffffffff1661200061272b565b73ffffffffffffffffffffffffffffffffffffffff1614612056576040517f08c379a000000000000000000000000000000000000000000000000000000000815260040161204d90613cac565b60405180910390fd5b61205e613237565b565b600e60009054906101000a900473ffffffffffffffffffffffffffffffffffffffff1681565b61208e612fd0565b73ffffffffffffffffffffffffffffffffffffffff166120ac61272b565b73ffffffffffffffffffffffffffffffffffffffff1614612102576040517f08c379a00000000000000000000000000000000000000000000000000000000081526004016120f990613cac565b60405180910390fd5b600560009054906101000a900473ffffffffffffffffffffffffffffffffffffffff1673ffffffffffffffffffffffffffffffffffffffff166323b872dd3330846040518463ffffffff1660e01b8152600401612161939291906142c6565b6020604051808303816000875af1158015612180573d6000803e3d6000fd5b505050506040513d601f19601f820116820180604052508101906121a49190613ec4565b50601854816121b39190613ba9565b60188190555050565b60086020528060005260406000206000915090505481565b6000600360009054906101000a900460ff16905090565b6000601760008373ffffffffffffffffffffffffffffffffffffffff1673ffffffffffffffffffffffffffffffffffffffff16815260200190815260200160002054426122389190613d5e565b9050919050565b6000600780549050905090565b60008060155467016345785d8a0000601660008773ffffffffffffffffffffffffffffffffffffffff1673ffffffffffffffffffffffffffffffffffffffff168152602001908152602001600020546122a59190613b4f565b6122af9190613b1e565b9050600067016345785d8a000082856122c89190613b4f565b6122d29190613b1e565b9050809250505092915050565b600a6020528060005260406000206000915054906101000a900460ff1681565b6000601660008373ffffffffffffffffffffffffffffffffffffffff1673ffffffffffffffffffffffffffffffffffffffff168152602001908152602001600020549050919050565b612350612fd0565b73ffffffffffffffffffffffffffffffffffffffff1661236e61272b565b73ffffffffffffffffffffffffffffffffffffffff16146123c4576040517f08c379a00000000000000000000000000000000000000000000000000000000081526004016123bb90613cac565b60405180910390fd5b6123ce60006132d9565b565b600f5481565b6123de612fd0565b73ffffffffffffffffffffffffffffffffffffffff166123fc61272b565b73ffffffffffffffffffffffffffffffffffffffff1614612452576040517f08c379a000000000000000000000000000000000000000000000000000000000815260040161244990613cac565b60405180910390fd5b6000600660009054906101000a900473ffffffffffffffffffffffffffffffffffffffff1673ffffffffffffffffffffffffffffffffffffffff166370a08231306040518263ffffffff1660e01b81526004016124af9190613a65565b602060405180830381865afa1580156124cc573d6000803e3d6000fd5b505050506040513d601f19601f820116820180604052508101906124f09190613da7565b11612530576040517f08c379a000000000000000000000000000000000000000000000000000000000815260040161252790614349565b60405180910390fd5b600660009054906101000a900473ffffffffffffffffffffffffffffffffffffffff1673ffffffffffffffffffffffffffffffffffffffff1663a9059cbb61257661272b565b600660009054906101000a900473ffffffffffffffffffffffffffffffffffffffff1673ffffffffffffffffffffffffffffffffffffffff166370a08231306040518263ffffffff1660e01b81526004016125d19190613a65565b602060405180830381865afa1580156125ee573d6000803e3d6000fd5b505050506040513d601f19601f820116820180604052508101906126129190613da7565b6040518363ffffffff1660e01b815260040161262f929190613e6f565b6020604051808303816000875af115801561264e573d6000803e3d6000fd5b505050506040513d601f19601f820116820180604052508101906126729190613ec4565b50565b61267d612fd0565b73ffffffffffffffffffffffffffffffffffffffff1661269b61272b565b73ffffffffffffffffffffffffffffffffffffffff16146126f1576040517f08c379a00000000000000000000000000000000000000000000000000000000081526004016126e890613cac565b60405180910390fd5b6126f961339d565b565b60176020528060005260406000206000915090505481565b60106020528060005260406000206000915090505481565b60008060009054906101000a900473ffffffffffffffffffffffffffffffffffffffff16905090565b60006001600084815260200190815260200160002060000160008373ffffffffffffffffffffffffffffffffffffffff1673ffffffffffffffffffffffffffffffffffffffff16815260200190815260200160002060009054906101000a900460ff16905092915050565b6127c7612fd0565b73ffffffffffffffffffffffffffffffffffffffff166127e561272b565b73ffffffffffffffffffffffffffffffffffffffff161461283b576040517f08c379a000000000000000000000000000000000000000000000000000000000815260040161283290613cac565b60405180910390fd5b80600f8190555050565b6000801b81565b600280541415612891576040517f08c379a000000000000000000000000000000000000000000000000000000000815260040161288890613f86565b60405180910390fd5b600280819055506128a06121d4565b156128e0576040517f08c379a00000000000000000000000000000000000000000000000000000000081526004016128d790613ff2565b60405180910390fd5b33600073ffffffffffffffffffffffffffffffffffffffff168173ffffffffffffffffffffffffffffffffffffffff16146129625761291e816109ca565b601160008373ffffffffffffffffffffffffffffffffffffffff1673ffffffffffffffffffffffffffffffffffffffff168152602001908152602001600020819055505b600082116129a5576040517f08c379a000000000000000000000000000000000000000000000000000000000815260040161299c906143b5565b60405180910390fd5b816015546129b39190613ba9565b60158190555081601660003373ffffffffffffffffffffffffffffffffffffffff1673ffffffffffffffffffffffffffffffffffffffff16815260200190815260200160002054612a049190613ba9565b601660003373ffffffffffffffffffffffffffffffffffffffff1673ffffffffffffffffffffffffffffffffffffffff16815260200190815260200160002081905550600560009054906101000a900473ffffffffffffffffffffffffffffffffffffffff1673ffffffffffffffffffffffffffffffffffffffff166323b872dd3330856040518463ffffffff1660e01b8152600401612aa6939291906142c6565b6020604051808303816000875af1158015612ac5573d6000803e3d6000fd5b505050506040513d601f19601f82011682018060405250810190612ae99190613ec4565b5042601760003373ffffffffffffffffffffffffffffffffffffffff1673ffffffffffffffffffffffffffffffffffffffff16815260200190815260200160002081905550600960003373ffffffffffffffffffffffffffffffffffffffff1673ffffffffffffffffffffffffffffffffffffffff16815260200190815260200160002060009054906101000a900460ff16612be3576007339080600181540180825580915050600190039060005260206000200160009091909190916101000a81548173ffffffffffffffffffffffffffffffffffffffff021916908373ffffffffffffffffffffffffffffffffffffffff1602179055505b6001600a60003373ffffffffffffffffffffffffffffffffffffffff1673ffffffffffffffffffffffffffffffffffffffff16815260200190815260200160002060006101000a81548160ff0219169083151502179055506001600960003373ffffffffffffffffffffffffffffffffffffffff1673ffffffffffffffffffffffffffffffffffffffff16815260200190815260200160002060006101000a81548160ff0219169083151502179055503373ffffffffffffffffffffffffffffffffffffffff167f9e71bc8eea02a63969f509818f2dafb9254532904319f9dbda79b67bd34a5f3d83604051612cd99190613725565b60405180910390a250600160028190555050565b60145481565b600b6020528060005260406000206000915090505481565b60096020528060005260406000206000915054906101000a900460ff1681565b60185481565b7f9f2df0fed2c77648de5860a4cc508cd0818c85b8b8a1ab4ceeef8d981c8956a681565b612d5e82611593565b612d6f81612d6a612fd0565b612fd8565b612d798383613155565b505050565b600d6020528060005260406000206000915054906101000a900460ff1681565b612de6601660003373ffffffffffffffffffffffffffffffffffffffff1673ffffffffffffffffffffffffffffffffffffffff168152602001908152602001600020546115d7565b612dee611ce1565b565b612df8612fd0565b73ffffffffffffffffffffffffffffffffffffffff16612e1661272b565b73ffffffffffffffffffffffffffffffffffffffff1614612e6c576040517f08c379a0000000000000000000000000000000000000000000000000000000008152600401612e6390613cac565b60405180910390fd5b600073ffffffffffffffffffffffffffffffffffffffff168173ffffffffffffffffffffffffffffffffffffffff161415612edc576040517f08c379a0000000000000000000000000000000000000000000000000000000008152600401612ed390614447565b60405180910390fd5b612ee5816132d9565b50565b600c8181548110612ef857600080fd5b906000526020600020016000915054906101000a900473ffffffffffffffffffffffffffffffffffffffff1681565b60078181548110612f3757600080fd5b906000526020600020016000915054906101000a900473ffffffffffffffffffffffffffffffffffffffff1681565b60007f01ffc9a7000000000000000000000000000000000000000000000000000000007bffffffffffffffffffffffffffffffffffffffffffffffffffffffff1916827bffffffffffffffffffffffffffffffffffffffffffffffffffffffff1916149050919050565b600033905090565b612fe28282612754565b613071576130078173ffffffffffffffffffffffffffffffffffffffff166014613440565b6130158360001c6020613440565b60405160200161302692919061453b565b6040516020818303038152906040526040517f08c379a00000000000000000000000000000000000000000000000000000000081526004016130689190613894565b60405180910390fd5b5050565b61307f8282612754565b61315157600180600084815260200190815260200160002060000160008373ffffffffffffffffffffffffffffffffffffffff1673ffffffffffffffffffffffffffffffffffffffff16815260200190815260200160002060006101000a81548160ff0219169083151502179055506130f6612fd0565b73ffffffffffffffffffffffffffffffffffffffff168173ffffffffffffffffffffffffffffffffffffffff16837f2f8788117e7eff1d82e926ec794901d17c78024a50270940304540a733656f0d60405160405180910390a45b5050565b61315f8282612754565b156132335760006001600084815260200190815260200160002060000160008373ffffffffffffffffffffffffffffffffffffffff1673ffffffffffffffffffffffffffffffffffffffff16815260200190815260200160002060006101000a81548160ff0219169083151502179055506131d8612fd0565b73ffffffffffffffffffffffffffffffffffffffff168173ffffffffffffffffffffffffffffffffffffffff16837ff6391f5c32d9c69d2a47ea670b442974b53935d1edc7fd64eb21e047a839171b60405160405180910390a45b5050565b61323f6121d4565b61327e576040517f08c379a0000000000000000000000000000000000000000000000000000000008152600401613275906145c1565b60405180910390fd5b6000600360006101000a81548160ff0219169083151502179055507f5db9ee0a495bf2e6ff9c91a7834c1ba4fdd244a5e8aa4e537bd38aeae4b073aa6132c2612fd0565b6040516132cf9190613a65565b60405180910390a1565b60008060009054906101000a900473ffffffffffffffffffffffffffffffffffffffff169050816000806101000a81548173ffffffffffffffffffffffffffffffffffffffff021916908373ffffffffffffffffffffffffffffffffffffffff1602179055508173ffffffffffffffffffffffffffffffffffffffff168173ffffffffffffffffffffffffffffffffffffffff167f8be0079c531659141344cd1fd0a4f28419497f9722a3daafe3b4186f6b6457e060405160405180910390a35050565b6133a56121d4565b156133e5576040517f08c379a00000000000000000000000000000000000000000000000000000000081526004016133dc90613ff2565b60405180910390fd5b6001600360006101000a81548160ff0219169083151502179055507f62e78cea01bee320cd4e420270b5ea74000d11b0c9f74754ebdbfc544b05a258613429612fd0565b6040516134369190613a65565b60405180910390a1565b6060600060028360026134539190613b4f565b61345d9190613ba9565b67ffffffffffffffff811115613476576134756145e1565b5b6040519080825280601f01601f1916602001820160405280156134a85781602001600182028036833780820191505090505b5090507f3000000000000000000000000000000000000000000000000000000000000000816000815181106134e0576134df613dd4565b5b60200101907effffffffffffffffffffffffffffffffffffffffffffffffffffffffffffff1916908160001a9053507f78000000000000000000000000000000000000000000000000000000000000008160018151811061354457613543613dd4565b5b60200101907effffffffffffffffffffffffffffffffffffffffffffffffffffffffffffff1916908160001a905350600060018460026135849190613b4f565b61358e9190613ba9565b90505b600181111561362e577f3031323334353637383961626364656600000000000000000000000000000000600f8616601081106135d0576135cf613dd4565b5b1a60f81b8282815181106135e7576135e6613dd4565b5b60200101907effffffffffffffffffffffffffffffffffffffffffffffffffffffffffffff1916908160001a905350600485901c94508061362790614610565b9050613591565b5060008414613672576040517f08c379a000000000000000000000000000000000000000000000000000000000815260040161366990614686565b60405180910390fd5b8091505092915050565b600080fd5b600073ffffffffffffffffffffffffffffffffffffffff82169050919050565b60006136ac82613681565b9050919050565b6136bc816136a1565b81146136c757600080fd5b50565b6000813590506136d9816136b3565b92915050565b6000602082840312156136f5576136f461367c565b5b6000613703848285016136ca565b91505092915050565b6000819050919050565b61371f8161370c565b82525050565b600060208201905061373a6000830184613716565b92915050565b60007fffffffff0000000000000000000000000000000000000000000000000000000082169050919050565b61377581613740565b811461378057600080fd5b50565b6000813590506137928161376c565b92915050565b6000602082840312156137ae576137ad61367c565b5b60006137bc84828501613783565b91505092915050565b60008115159050919050565b6137da816137c5565b82525050565b60006020820190506137f560008301846137d1565b92915050565b600081519050919050565b600082825260208201905092915050565b60005b8381101561383557808201518184015260208101905061381a565b83811115613844576000848401525b50505050565b6000601f19601f8301169050919050565b6000613866826137fb565b6138708185613806565b9350613880818560208601613817565b6138898161384a565b840191505092915050565b600060208201905081810360008301526138ae818461385b565b905092915050565b6138bf8161370c565b81146138ca57600080fd5b50565b6000813590506138dc816138b6565b92915050565b6000602082840312156138f8576138f761367c565b5b6000613906848285016138cd565b91505092915050565b6000819050919050565b6139228161390f565b811461392d57600080fd5b50565b60008135905061393f81613919565b92915050565b60006020828403121561395b5761395a61367c565b5b600061396984828501613930565b91505092915050565b61397b8161390f565b82525050565b60006020820190506139966000830184613972565b92915050565b600080604083850312156139b3576139b261367c565b5b60006139c185828601613930565b92505060206139d2858286016136ca565b9150509250929050565b6000819050919050565b6000613a016139fc6139f784613681565b6139dc565b613681565b9050919050565b6000613a13826139e6565b9050919050565b6000613a2582613a08565b9050919050565b613a3581613a1a565b82525050565b6000602082019050613a506000830184613a2c565b92915050565b613a5f816136a1565b82525050565b6000602082019050613a7a6000830184613a56565b92915050565b60008060408385031215613a9757613a9661367c565b5b6000613aa5858286016136ca565b9250506020613ab6858286016138cd565b9150509250929050565b7f4e487b7100000000000000000000000000000000000000000000000000000000600052601260045260246000fd5b7f4e487b7100000000000000000000000000000000000000000000000000000000600052601160045260246000fd5b6000613b298261370c565b9150613b348361370c565b925082613b4457613b43613ac0565b5b828204905092915050565b6000613b5a8261370c565b9150613b658361370c565b9250817fffffffffffffffffffffffffffffffffffffffffffffffffffffffffffffffff0483118215151615613b9e57613b9d613aef565b5b828202905092915050565b6000613bb48261370c565b9150613bbf8361370c565b9250827fffffffffffffffffffffffffffffffffffffffffffffffffffffffffffffffff03821115613bf457613bf3613aef565b5b828201905092915050565b7f4e487b7100000000000000000000000000000000000000000000000000000000600052602260045260246000fd5b60006002820490506001821680613c4657607f821691505b60208210811415613c5a57613c59613bff565b5b50919050565b7f4f776e61626c653a2063616c6c6572206973206e6f7420746865206f776e6572600082015250565b6000613c96602083613806565b9150613ca182613c60565b602082019050919050565b60006020820190508181036000830152613cc581613c89565b9050919050565b7f416d6f756e742073686f756c64206265206c657373207468616e206772616e6460008201527f416d6f756e740000000000000000000000000000000000000000000000000000602082015250565b6000613d28602683613806565b9150613d3382613ccc565b604082019050919050565b60006020820190508181036000830152613d5781613d1b565b9050919050565b6000613d698261370c565b9150613d748361370c565b925082821015613d8757613d86613aef565b5b828203905092915050565b600081519050613da1816138b6565b92915050565b600060208284031215613dbd57613dbc61367c565b5b6000613dcb84828501613d92565b91505092915050565b7f4e487b7100000000000000000000000000000000000000000000000000000000600052603260045260246000fd5b7f5265776172642062616c616e6365206973206e6f7420617661696c61626c652e600082015250565b6000613e39602083613806565b9150613e4482613e03565b602082019050919050565b60006020820190508181036000830152613e6881613e2c565b9050919050565b6000604082019050613e846000830185613a56565b613e916020830184613716565b9392505050565b613ea1816137c5565b8114613eac57600080fd5b50565b600081519050613ebe81613e98565b92915050565b600060208284031215613eda57613ed961367c565b5b6000613ee884828501613eaf565b91505092915050565b6000613efc8261370c565b91507fffffffffffffffffffffffffffffffffffffffffffffffffffffffffffffffff821415613f2f57613f2e613aef565b5b600182019050919050565b7f5265656e7472616e637947756172643a207265656e7472616e742063616c6c00600082015250565b6000613f70601f83613806565b9150613f7b82613f3a565b602082019050919050565b60006020820190508181036000830152613f9f81613f63565b9050919050565b7f5061757361626c653a2070617573656400000000000000000000000000000000600082015250565b6000613fdc601083613806565b9150613fe782613fa6565b602082019050919050565b6000602082019050818103600083015261400b81613fcf565b9050919050565b7f4772616e642062616c616e6365206973206c65737320706c6561736520636f6e60008201527f746163742041646d696e00000000000000000000000000000000000000000000602082015250565b600061406e602a83613806565b915061407982614012565b604082019050919050565b6000602082019050818103600083015261409d81614061565b9050919050565b7f52657761726420616d6f756e742073686f756c6420626520677265617465722060008201527f7468616e20300000000000000000000000000000000000000000000000000000602082015250565b6000614100602683613806565b915061410b826140a4565b604082019050919050565b6000602082019050818103600083015261412f816140f3565b9050919050565b7f43616e6e6f742077697468647261772030000000000000000000000000000000600082015250565b600061416c601183613806565b915061417782614136565b602082019050919050565b6000602082019050818103600083015261419b8161415f565b9050919050565b7f4f6e6c79207374616b656420757365722063616e20626520556e7374616b656460008201527f2e00000000000000000000000000000000000000000000000000000000000000602082015250565b60006141fe602183613806565b9150614209826141a2565b604082019050919050565b6000602082019050818103600083015261422d816141f1565b9050919050565b7f416363657373436f6e74726f6c3a2063616e206f6e6c792072656e6f756e636560008201527f20726f6c657320666f722073656c660000000000000000000000000000000000602082015250565b6000614290602f83613806565b915061429b82614234565b604082019050919050565b600060208201905081810360008301526142bf81614283565b9050919050565b60006060820190506142db6000830186613a56565b6142e86020830185613a56565b6142f56040830184613716565b949350505050565b7f5468657265206973206e6f20425553442062616c616e63650000000000000000600082015250565b6000614333601883613806565b915061433e826142fd565b602082019050919050565b6000602082019050818103600083015261436281614326565b9050919050565b7f43616e6e6f74207374616b652030000000000000000000000000000000000000600082015250565b600061439f600e83613806565b91506143aa82614369565b602082019050919050565b600060208201905081810360008301526143ce81614392565b9050919050565b7f4f776e61626c653a206e6577206f776e657220697320746865207a65726f206160008201527f6464726573730000000000000000000000000000000000000000000000000000602082015250565b6000614431602683613806565b915061443c826143d5565b604082019050919050565b6000602082019050818103600083015261446081614424565b9050919050565b600081905092915050565b7f416363657373436f6e74726f6c3a206163636f756e7420000000000000000000600082015250565b60006144a8601783614467565b91506144b382614472565b601782019050919050565b60006144c9826137fb565b6144d38185614467565b93506144e3818560208601613817565b80840191505092915050565b7f206973206d697373696e6720726f6c6520000000000000000000000000000000600082015250565b6000614525601183614467565b9150614530826144ef565b601182019050919050565b60006145468261449b565b915061455282856144be565b915061455d82614518565b915061456982846144be565b91508190509392505050565b7f5061757361626c653a206e6f7420706175736564000000000000000000000000600082015250565b60006145ab601483613806565b91506145b682614575565b602082019050919050565b600060208201905081810360008301526145da8161459e565b9050919050565b7f4e487b7100000000000000000000000000000000000000000000000000000000600052604160045260246000fd5b600061461b8261370c565b9150600082141561462f5761462e613aef565b5b600182039050919050565b7f537472696e67733a20686578206c656e67746820696e73756666696369656e74600082015250565b6000614670602083613806565b915061467b8261463a565b602082019050919050565b6000602082019050818103600083015261469f81614663565b905091905056fea2646970667358221220ea86a39eba09bde72f18e9384474c766edce35df9a8bf6462e55a6c0660f9cdb64736f6c634300080b0033",
  "immutableReferences": {},
  "source": "pragma solidity ^0.8.0;\n\nimport \"@openzeppelin/contracts/token/ERC20/ERC20.sol\";\n\nimport \"@openzeppelin/contracts/utils/math/SafeMath.sol\";\n\nimport \"@openzeppelin/contracts/access/Ownable.sol\";\n\nimport \"@openzeppelin/contracts/access/AccessControl.sol\";\n\nimport \"@openzeppelin/contracts/security/ReentrancyGuard.sol\";\n\nimport \"@openzeppelin/contracts/security/Pausable.sol\";\n\ncontract RewardStaking is Ownable, AccessControl, ReentrancyGuard, Pausable {\n    string public name;\n    ERC20 public busdxToken;\n    ERC20 public busd;\n    bytes32 public constant MINTER_ROLE = keccak256(\"MINTER_ROLE\");\n    bytes32 public constant BURNER_ROLE = keccak256(\"BURNER_ROLE\");\n\n    address[] public stakers;\n    mapping(address => uint256) public stakingBalance;\n    mapping(address => bool) public hasStaked;\n    mapping(address => bool) public isStaking;\n\n    // This unstake is variables used for minting the unstaked tokens.\n    mapping(address => uint256) public unStakedUserDetails;\n    address[] public unStakers;\n    mapping(address => bool) public hasUnstaked;\n\n    // Reward Distribution\n    address public rewardsDistribution;\n\n    uint256 public rewardRate = 30;\n\n    mapping(address => uint256) public userRewardPerTokenPaid;\n    mapping(address => uint256) public rewards;\n\n    // busd reward\n    mapping(address => uint256) public busdRewards;\n    uint256 public busdRewardAllocated;\n    uint256 public previousBalance;\n\n    uint256 private _totalSupply;\n    mapping(address => uint256) private _balances;\n\n    // save TimeStamp\n    mapping(address => uint256) public stakedTimeStamp;\n\n    uint256 public grantBalance;\n\n    // using SafeMath for uint256;\n    /* ========== EVENTS ========== */\n\n    event RewardAdded(uint256 reward);\n    event Staked(address indexed user, uint256 amount);\n    event Withdrawn(address indexed user, uint256 amount);\n    event RewardPaid(address indexed user, uint256 reward);\n    event RewardsDurationUpdated(uint256 newDuration);\n    event Recovered(address token, uint256 amount);\n\n    constructor(\n        ERC20 _busdxToken,\n        ERC20 _busd,\n        string memory _name,\n        address _rewardsDistribution,\n        address _ownerAddress\n    ) {\n        busdxToken = _busdxToken;\n        busd = _busd;\n        name = _name;\n        rewardsDistribution = _rewardsDistribution;\n        _setupRole(DEFAULT_ADMIN_ROLE, _ownerAddress);\n        _setupRole(MINTER_ROLE, _ownerAddress);\n        _setupRole(BURNER_ROLE, _ownerAddress);\n    }\n\n    function totalSupply() external view returns (uint256) {\n        return _totalSupply;\n    }\n\n    function balanceOf(address account) external view returns (uint256) {\n        return _balances[account];\n    }\n\n    function numberOfStakers() public view returns (uint256) {\n        return stakers.length;\n    }\n\n    function addGrandAmount(uint256 _amount) external onlyOwner {\n        busdxToken.transferFrom(msg.sender, address(this), _amount);\n        grantBalance = _amount + grantBalance;\n    }\n\n    function removeGrandAmount(uint256 _amount) external onlyOwner {\n        require(\n            _amount <= grantBalance,\n            \"Amount should be less than grandAmount\"\n        );\n        grantBalance = grantBalance - _amount;\n    }\n\n    function removeBUSD() external onlyOwner {\n        require(busd.balanceOf(address(this)) > 0, \"There is no BUSD balance\");\n        busd.transfer(owner(), busd.balanceOf(address(this)));\n    }\n\n    function timeStampDiff(address account) public view returns (uint256) {\n        return block.timestamp - stakedTimeStamp[account];\n    }\n\n    function rewardTokenPerAnnum(address account)\n        public\n        view\n        returns (uint256)\n    {\n        return (_balances[account] * rewardRate) / 100;\n    }\n\n    function earned(address account) public view returns (uint256) {\n        uint256 tempTimeStamp = timeStampDiff(account) / 60;\n\n        uint256 rewardPerMin = rewardTokenPerAnnum(account) / 525600;\n\n        uint256 rewardAmount = rewardPerMin * tempTimeStamp;\n\n        return rewardAmount + rewards[account];\n    }\n\n    function busdEarned(address account, uint256 balance)\n        public\n        view\n        returns (uint256)\n    {\n        uint256 rewardPercentage = (_balances[account] * 100000000000000000) /\n            _totalSupply;\n\n        uint256 alloctedBusdReward = (balance * rewardPercentage) /\n            100000000000000000;\n\n        return alloctedBusdReward;\n    }\n\n    /* ========== MUTATIVE FUNCTIONS ========== */\n\n    function stake(uint256 amount)\n        external\n        nonReentrant\n        whenNotPaused\n        updateReward(msg.sender)\n    {\n        require(amount > 0, \"Cannot stake 0\");\n        _totalSupply = _totalSupply + amount;\n        _balances[msg.sender] = _balances[msg.sender] + amount;\n        busdxToken.transferFrom(msg.sender, address(this), amount);\n        // Updating current timestamp.\n        stakedTimeStamp[msg.sender] = block.timestamp;\n        // Add user to stakers array *only* if they haven't staked already\n        if (!hasStaked[msg.sender]) {\n            stakers.push(msg.sender);\n        }\n\n        // Update staking status\n        isStaking[msg.sender] = true;\n        hasStaked[msg.sender] = true;\n        emit Staked(msg.sender, amount);\n    }\n\n    function withdraw(uint256 amount)\n        public\n        nonReentrant\n        updateReward(msg.sender)\n    {\n        require(amount > 0, \"Cannot withdraw 0\");\n        require(_balances[msg.sender] > 0, \"Only staked user can be Unstaked.\");\n        _totalSupply = _totalSupply - amount;\n        _balances[msg.sender] = _balances[msg.sender] - amount;\n        busdxToken.transfer(msg.sender, amount);\n        // Updating current timestamp.\n        stakedTimeStamp[msg.sender] = block.timestamp;\n\n        // add unstaked user in the unStakedUserDetails mapping.\n        unStakedUserDetails[msg.sender] =\n            unStakedUserDetails[msg.sender] +\n            amount;\n        // add user to unstakers array *only* if they haven't unstake already.\n        if (!hasUnstaked[msg.sender]) {\n            unStakers.push(msg.sender);\n        }\n\n        hasUnstaked[msg.sender] = true;\n\n        // Update staking status\n        if (_balances[msg.sender] == 0) {\n            isStaking[msg.sender] = false;\n        }\n\n        emit Withdrawn(msg.sender, amount);\n    }\n\n    function getReward() public nonReentrant updateReward(msg.sender) {\n        uint256 reward = rewards[msg.sender];\n        require(\n            reward <= grantBalance,\n            \"Grand balance is less please contact Admin\"\n        );\n        if (reward > 0) {\n            rewards[msg.sender] = 0;\n            busdxToken.transfer(msg.sender, reward);\n            grantBalance = grantBalance - reward;\n            // Updating current timestamp.\n            stakedTimeStamp[msg.sender] = block.timestamp;\n            emit RewardPaid(msg.sender, reward);\n        }\n    }\n\n    function exit() external {\n        withdraw(_balances[msg.sender]);\n        getReward();\n    }\n\n    function stakeRewardTokens()\n        external\n        nonReentrant\n        whenNotPaused\n        updateReward(msg.sender)\n    {\n        uint256 amount = rewards[msg.sender];\n        require(\n            amount <= grantBalance,\n            \"Grand balance is less please contact Admin\"\n        );\n        require(amount > 0, \"Reward amount should be greater than 0\");\n        // Make the reward amount 0.\n        rewards[msg.sender] = 0;\n\n        _totalSupply = _totalSupply + amount;\n        _balances[msg.sender] = _balances[msg.sender] + amount;\n        // Updating current timestamp.\n        stakedTimeStamp[msg.sender] = block.timestamp;\n        grantBalance = grantBalance - amount;\n        // Add user to stakers array *only* if they haven't staked already\n        if (!hasStaked[msg.sender]) {\n            stakers.push(msg.sender);\n        }\n        // Update staking status\n        isStaking[msg.sender] = true;\n        hasStaked[msg.sender] = true;\n        emit Staked(msg.sender, amount);\n    }\n\n    // Distribute BUSD Reward.\n    function distributeBUSDReward() external onlyOwner {\n        uint256 balance = busd.balanceOf(address(this));\n        for (uint256 i = 0; i < stakers.length; i++) {\n            address recipient = stakers[i];\n            if (isStaking[recipient] == true) {\n                uint256 getRewardAmount = busdEarned(recipient, balance);\n                require(\n                    getRewardAmount <= busd.balanceOf(address(this)),\n                    \"Reward balance is not available.\"\n                );\n                busd.transfer(recipient, getRewardAmount);\n            }\n        }\n    }\n\n    // Reward distribution receipient contract.\n\n    modifier onlyRewardsDistribution() {\n        require(\n            msg.sender == rewardsDistribution,\n            \"Caller is not RewardsDistribution contract\"\n        );\n        _;\n    }\n\n    function setRewardsDistribution(address _rewardsDistribution)\n        external\n        onlyOwner\n    {\n        rewardsDistribution = _rewardsDistribution;\n    }\n\n    function setRewardRate(uint256 _rewardRate) external onlyOwner {\n        rewardRate = _rewardRate;\n    }\n\n    modifier updateReward(address account) {\n        if (account != address(0)) {\n            rewards[account] = earned(account);\n        }\n        _;\n    }\n\n    function pause() public onlyOwner {\n        _pause();\n    }\n\n    function unpause() public onlyOwner {\n        _unpause();\n    }\n}\n",
  "sourcePath": "/Users/aravinth/Repo/codegama/blockchain/ido_projects/ido-frontend-jason/src/contracts/RewardStaking.sol",
  "compiler": {
    "name": "solc",
    "version": "0.8.11+commit.d7f03943.Emscripten.clang"
  },
  "schemaVersion": "3.3.4",
  "updatedAt": "2022-01-26T08:26:25.059Z",
  "devdoc": {
    "kind": "dev",
    "methods": {
      "getRoleAdmin(bytes32)": {
        "details": "Returns the admin role that controls `role`. See {grantRole} and {revokeRole}. To change a role's admin, use {_setRoleAdmin}."
      },
      "grantRole(bytes32,address)": {
        "details": "Grants `role` to `account`. If `account` had not been already granted `role`, emits a {RoleGranted} event. Requirements: - the caller must have ``role``'s admin role."
      },
      "hasRole(bytes32,address)": {
        "details": "Returns `true` if `account` has been granted `role`."
      },
      "owner()": {
        "details": "Returns the address of the current owner."
      },
      "paused()": {
        "details": "Returns true if the contract is paused, and false otherwise."
      },
      "renounceOwnership()": {
        "details": "Leaves the contract without owner. It will not be possible to call `onlyOwner` functions anymore. Can only be called by the current owner. NOTE: Renouncing ownership will leave the contract without an owner, thereby removing any functionality that is only available to the owner."
      },
      "renounceRole(bytes32,address)": {
        "details": "Revokes `role` from the calling account. Roles are often managed via {grantRole} and {revokeRole}: this function's purpose is to provide a mechanism for accounts to lose their privileges if they are compromised (such as when a trusted device is misplaced). If the calling account had been revoked `role`, emits a {RoleRevoked} event. Requirements: - the caller must be `account`."
      },
      "revokeRole(bytes32,address)": {
        "details": "Revokes `role` from `account`. If `account` had been granted `role`, emits a {RoleRevoked} event. Requirements: - the caller must have ``role``'s admin role."
      },
      "supportsInterface(bytes4)": {
        "details": "See {IERC165-supportsInterface}."
      },
      "transferOwnership(address)": {
        "details": "Transfers ownership of the contract to a new account (`newOwner`). Can only be called by the current owner."
      }
    },
    "version": 1
  },
  "userdoc": {
    "kind": "user",
    "methods": {},
    "version": 1
  }
}