{
  "contractName": "RewardStakingOld",
  "abi": [
    {
      "inputs": [
        {
          "internalType": "contract ERC20",
          "name": "_busdxToken",
          "type": "address"
        },
        {
          "internalType": "string",
          "name": "_name",
          "type": "string"
        },
        {
          "internalType": "address",
          "name": "_rewardsDistribution",
          "type": "address"
        },
        {
          "internalType": "address",
          "name": "_ownerAddress",
          "type": "address"
        }
      ],
      "stateMutability": "nonpayable",
      "type": "constructor"
    },
    {
      "anonymous": false,
      "inputs": [
        {
          "indexed": true,
          "internalType": "address",
          "name": "previousOwner",
          "type": "address"
        },
        {
          "indexed": true,
          "internalType": "address",
          "name": "newOwner",
          "type": "address"
        }
      ],
      "name": "OwnershipTransferred",
      "type": "event"
    },
    {
      "anonymous": false,
      "inputs": [
        {
          "indexed": false,
          "internalType": "address",
          "name": "account",
          "type": "address"
        }
      ],
      "name": "Paused",
      "type": "event"
    },
    {
      "anonymous": false,
      "inputs": [
        {
          "indexed": false,
          "internalType": "address",
          "name": "token",
          "type": "address"
        },
        {
          "indexed": false,
          "internalType": "uint256",
          "name": "amount",
          "type": "uint256"
        }
      ],
      "name": "Recovered",
      "type": "event"
    },
    {
      "anonymous": false,
      "inputs": [
        {
          "indexed": false,
          "internalType": "uint256",
          "name": "reward",
          "type": "uint256"
        }
      ],
      "name": "RewardAdded",
      "type": "event"
    },
    {
      "anonymous": false,
      "inputs": [
        {
          "indexed": true,
          "internalType": "address",
          "name": "user",
          "type": "address"
        },
        {
          "indexed": false,
          "internalType": "uint256",
          "name": "reward",
          "type": "uint256"
        }
      ],
      "name": "RewardPaid",
      "type": "event"
    },
    {
      "anonymous": false,
      "inputs": [
        {
          "indexed": false,
          "internalType": "uint256",
          "name": "newDuration",
          "type": "uint256"
        }
      ],
      "name": "RewardsDurationUpdated",
      "type": "event"
    },
    {
      "anonymous": false,
      "inputs": [
        {
          "indexed": true,
          "internalType": "bytes32",
          "name": "role",
          "type": "bytes32"
        },
        {
          "indexed": true,
          "internalType": "bytes32",
          "name": "previousAdminRole",
          "type": "bytes32"
        },
        {
          "indexed": true,
          "internalType": "bytes32",
          "name": "newAdminRole",
          "type": "bytes32"
        }
      ],
      "name": "RoleAdminChanged",
      "type": "event"
    },
    {
      "anonymous": false,
      "inputs": [
        {
          "indexed": true,
          "internalType": "bytes32",
          "name": "role",
          "type": "bytes32"
        },
        {
          "indexed": true,
          "internalType": "address",
          "name": "account",
          "type": "address"
        },
        {
          "indexed": true,
          "internalType": "address",
          "name": "sender",
          "type": "address"
        }
      ],
      "name": "RoleGranted",
      "type": "event"
    },
    {
      "anonymous": false,
      "inputs": [
        {
          "indexed": true,
          "internalType": "bytes32",
          "name": "role",
          "type": "bytes32"
        },
        {
          "indexed": true,
          "internalType": "address",
          "name": "account",
          "type": "address"
        },
        {
          "indexed": true,
          "internalType": "address",
          "name": "sender",
          "type": "address"
        }
      ],
      "name": "RoleRevoked",
      "type": "event"
    },
    {
      "anonymous": false,
      "inputs": [
        {
          "indexed": true,
          "internalType": "address",
          "name": "user",
          "type": "address"
        },
        {
          "indexed": false,
          "internalType": "uint256",
          "name": "amount",
          "type": "uint256"
        }
      ],
      "name": "Staked",
      "type": "event"
    },
    {
      "anonymous": false,
      "inputs": [
        {
          "indexed": false,
          "internalType": "address",
          "name": "account",
          "type": "address"
        }
      ],
      "name": "Unpaused",
      "type": "event"
    },
    {
      "anonymous": false,
      "inputs": [
        {
          "indexed": true,
          "internalType": "address",
          "name": "user",
          "type": "address"
        },
        {
          "indexed": false,
          "internalType": "uint256",
          "name": "amount",
          "type": "uint256"
        }
      ],
      "name": "Withdrawn",
      "type": "event"
    },
    {
      "inputs": [],
      "name": "BURNER_ROLE",
      "outputs": [
        {
          "internalType": "bytes32",
          "name": "",
          "type": "bytes32"
        }
      ],
      "stateMutability": "view",
      "type": "function"
    },
    {
      "inputs": [],
      "name": "DEFAULT_ADMIN_ROLE",
      "outputs": [
        {
          "internalType": "bytes32",
          "name": "",
          "type": "bytes32"
        }
      ],
      "stateMutability": "view",
      "type": "function"
    },
    {
      "inputs": [],
      "name": "MINTER_ROLE",
      "outputs": [
        {
          "internalType": "bytes32",
          "name": "",
          "type": "bytes32"
        }
      ],
      "stateMutability": "view",
      "type": "function"
    },
    {
      "inputs": [],
      "name": "busdxToken",
      "outputs": [
        {
          "internalType": "contract ERC20",
          "name": "",
          "type": "address"
        }
      ],
      "stateMutability": "view",
      "type": "function"
    },
    {
      "inputs": [
        {
          "internalType": "bytes32",
          "name": "role",
          "type": "bytes32"
        }
      ],
      "name": "getRoleAdmin",
      "outputs": [
        {
          "internalType": "bytes32",
          "name": "",
          "type": "bytes32"
        }
      ],
      "stateMutability": "view",
      "type": "function"
    },
    {
      "inputs": [
        {
          "internalType": "bytes32",
          "name": "role",
          "type": "bytes32"
        },
        {
          "internalType": "address",
          "name": "account",
          "type": "address"
        }
      ],
      "name": "grantRole",
      "outputs": [],
      "stateMutability": "nonpayable",
      "type": "function"
    },
    {
      "inputs": [
        {
          "internalType": "bytes32",
          "name": "role",
          "type": "bytes32"
        },
        {
          "internalType": "address",
          "name": "account",
          "type": "address"
        }
      ],
      "name": "hasRole",
      "outputs": [
        {
          "internalType": "bool",
          "name": "",
          "type": "bool"
        }
      ],
      "stateMutability": "view",
      "type": "function"
    },
    {
      "inputs": [
        {
          "internalType": "address",
          "name": "",
          "type": "address"
        }
      ],
      "name": "hasStaked",
      "outputs": [
        {
          "internalType": "bool",
          "name": "",
          "type": "bool"
        }
      ],
      "stateMutability": "view",
      "type": "function"
    },
    {
      "inputs": [
        {
          "internalType": "address",
          "name": "",
          "type": "address"
        }
      ],
      "name": "hasUnstaked",
      "outputs": [
        {
          "internalType": "bool",
          "name": "",
          "type": "bool"
        }
      ],
      "stateMutability": "view",
      "type": "function"
    },
    {
      "inputs": [
        {
          "internalType": "address",
          "name": "",
          "type": "address"
        }
      ],
      "name": "isStaking",
      "outputs": [
        {
          "internalType": "bool",
          "name": "",
          "type": "bool"
        }
      ],
      "stateMutability": "view",
      "type": "function"
    },
    {
      "inputs": [],
      "name": "lastUpdateTime",
      "outputs": [
        {
          "internalType": "uint256",
          "name": "",
          "type": "uint256"
        }
      ],
      "stateMutability": "view",
      "type": "function"
    },
    {
      "inputs": [],
      "name": "name",
      "outputs": [
        {
          "internalType": "string",
          "name": "",
          "type": "string"
        }
      ],
      "stateMutability": "view",
      "type": "function"
    },
    {
      "inputs": [],
      "name": "owner",
      "outputs": [
        {
          "internalType": "address",
          "name": "",
          "type": "address"
        }
      ],
      "stateMutability": "view",
      "type": "function"
    },
    {
      "inputs": [],
      "name": "paused",
      "outputs": [
        {
          "internalType": "bool",
          "name": "",
          "type": "bool"
        }
      ],
      "stateMutability": "view",
      "type": "function"
    },
    {
      "inputs": [],
      "name": "periodFinish",
      "outputs": [
        {
          "internalType": "uint256",
          "name": "",
          "type": "uint256"
        }
      ],
      "stateMutability": "view",
      "type": "function"
    },
    {
      "inputs": [],
      "name": "renounceOwnership",
      "outputs": [],
      "stateMutability": "nonpayable",
      "type": "function"
    },
    {
      "inputs": [
        {
          "internalType": "bytes32",
          "name": "role",
          "type": "bytes32"
        },
        {
          "internalType": "address",
          "name": "account",
          "type": "address"
        }
      ],
      "name": "renounceRole",
      "outputs": [],
      "stateMutability": "nonpayable",
      "type": "function"
    },
    {
      "inputs": [
        {
          "internalType": "bytes32",
          "name": "role",
          "type": "bytes32"
        },
        {
          "internalType": "address",
          "name": "account",
          "type": "address"
        }
      ],
      "name": "revokeRole",
      "outputs": [],
      "stateMutability": "nonpayable",
      "type": "function"
    },
    {
      "inputs": [],
      "name": "rewardBalance",
      "outputs": [
        {
          "internalType": "uint256",
          "name": "",
          "type": "uint256"
        }
      ],
      "stateMutability": "view",
      "type": "function"
    },
    {
      "inputs": [],
      "name": "rewardPerTokenStored",
      "outputs": [
        {
          "internalType": "uint256",
          "name": "",
          "type": "uint256"
        }
      ],
      "stateMutability": "view",
      "type": "function"
    },
    {
      "inputs": [],
      "name": "rewardPercentage",
      "outputs": [
        {
          "internalType": "uint256",
          "name": "",
          "type": "uint256"
        }
      ],
      "stateMutability": "view",
      "type": "function"
    },
    {
      "inputs": [],
      "name": "rewardRate",
      "outputs": [
        {
          "internalType": "uint256",
          "name": "",
          "type": "uint256"
        }
      ],
      "stateMutability": "view",
      "type": "function"
    },
    {
      "inputs": [
        {
          "internalType": "address",
          "name": "",
          "type": "address"
        }
      ],
      "name": "rewards",
      "outputs": [
        {
          "internalType": "uint256",
          "name": "",
          "type": "uint256"
        }
      ],
      "stateMutability": "view",
      "type": "function"
    },
    {
      "inputs": [],
      "name": "rewardsDistribution",
      "outputs": [
        {
          "internalType": "address",
          "name": "",
          "type": "address"
        }
      ],
      "stateMutability": "view",
      "type": "function"
    },
    {
      "inputs": [],
      "name": "rewardsDuration",
      "outputs": [
        {
          "internalType": "uint256",
          "name": "",
          "type": "uint256"
        }
      ],
      "stateMutability": "view",
      "type": "function"
    },
    {
      "inputs": [
        {
          "internalType": "uint256",
          "name": "",
          "type": "uint256"
        }
      ],
      "name": "stakers",
      "outputs": [
        {
          "internalType": "address",
          "name": "",
          "type": "address"
        }
      ],
      "stateMutability": "view",
      "type": "function"
    },
    {
      "inputs": [
        {
          "internalType": "address",
          "name": "",
          "type": "address"
        }
      ],
      "name": "stakingBalance",
      "outputs": [
        {
          "internalType": "uint256",
          "name": "",
          "type": "uint256"
        }
      ],
      "stateMutability": "view",
      "type": "function"
    },
    {
      "inputs": [
        {
          "internalType": "bytes4",
          "name": "interfaceId",
          "type": "bytes4"
        }
      ],
      "name": "supportsInterface",
      "outputs": [
        {
          "internalType": "bool",
          "name": "",
          "type": "bool"
        }
      ],
      "stateMutability": "view",
      "type": "function"
    },
    {
      "inputs": [],
      "name": "totalStakingBalance",
      "outputs": [
        {
          "internalType": "uint256",
          "name": "",
          "type": "uint256"
        }
      ],
      "stateMutability": "view",
      "type": "function"
    },
    {
      "inputs": [
        {
          "internalType": "address",
          "name": "newOwner",
          "type": "address"
        }
      ],
      "name": "transferOwnership",
      "outputs": [],
      "stateMutability": "nonpayable",
      "type": "function"
    },
    {
      "inputs": [
        {
          "internalType": "address",
          "name": "",
          "type": "address"
        }
      ],
      "name": "unStakedUserDetails",
      "outputs": [
        {
          "internalType": "uint256",
          "name": "",
          "type": "uint256"
        }
      ],
      "stateMutability": "view",
      "type": "function"
    },
    {
      "inputs": [
        {
          "internalType": "uint256",
          "name": "",
          "type": "uint256"
        }
      ],
      "name": "unStakers",
      "outputs": [
        {
          "internalType": "address",
          "name": "",
          "type": "address"
        }
      ],
      "stateMutability": "view",
      "type": "function"
    },
    {
      "inputs": [
        {
          "internalType": "address",
          "name": "",
          "type": "address"
        }
      ],
      "name": "userRewardPerTokenPaid",
      "outputs": [
        {
          "internalType": "uint256",
          "name": "",
          "type": "uint256"
        }
      ],
      "stateMutability": "view",
      "type": "function"
    },
    {
      "inputs": [],
      "name": "totalSupply",
      "outputs": [
        {
          "internalType": "uint256",
          "name": "",
          "type": "uint256"
        }
      ],
      "stateMutability": "view",
      "type": "function"
    },
    {
      "inputs": [
        {
          "internalType": "address",
          "name": "account",
          "type": "address"
        }
      ],
      "name": "balanceOf",
      "outputs": [
        {
          "internalType": "uint256",
          "name": "",
          "type": "uint256"
        }
      ],
      "stateMutability": "view",
      "type": "function"
    },
    {
      "inputs": [],
      "name": "lastTimeRewardApplicable",
      "outputs": [
        {
          "internalType": "uint256",
          "name": "",
          "type": "uint256"
        }
      ],
      "stateMutability": "view",
      "type": "function"
    },
    {
      "inputs": [],
      "name": "rewardPerToken",
      "outputs": [
        {
          "internalType": "uint256",
          "name": "",
          "type": "uint256"
        }
      ],
      "stateMutability": "view",
      "type": "function"
    },
    {
      "inputs": [
        {
          "internalType": "address",
          "name": "account",
          "type": "address"
        }
      ],
      "name": "earned",
      "outputs": [
        {
          "internalType": "uint256",
          "name": "",
          "type": "uint256"
        }
      ],
      "stateMutability": "view",
      "type": "function"
    },
    {
      "inputs": [],
      "name": "getRewardForDuration",
      "outputs": [
        {
          "internalType": "uint256",
          "name": "",
          "type": "uint256"
        }
      ],
      "stateMutability": "view",
      "type": "function"
    },
    {
      "inputs": [
        {
          "internalType": "uint256",
          "name": "amount",
          "type": "uint256"
        }
      ],
      "name": "stake",
      "outputs": [],
      "stateMutability": "nonpayable",
      "type": "function"
    },
    {
      "inputs": [
        {
          "internalType": "uint256",
          "name": "amount",
          "type": "uint256"
        }
      ],
      "name": "withdraw",
      "outputs": [],
      "stateMutability": "nonpayable",
      "type": "function"
    },
    {
      "inputs": [],
      "name": "getReward",
      "outputs": [],
      "stateMutability": "nonpayable",
      "type": "function"
    },
    {
      "inputs": [],
      "name": "exit",
      "outputs": [],
      "stateMutability": "nonpayable",
      "type": "function"
    },
    {
      "inputs": [
        {
          "internalType": "address",
          "name": "_rewardsDistribution",
          "type": "address"
        }
      ],
      "name": "setRewardsDistribution",
      "outputs": [],
      "stateMutability": "nonpayable",
      "type": "function"
    },
    {
      "inputs": [
        {
          "internalType": "uint256",
          "name": "reward",
          "type": "uint256"
        }
      ],
      "name": "notifyRewardAmount",
      "outputs": [],
      "stateMutability": "nonpayable",
      "type": "function"
    },
    {
      "inputs": [
        {
          "internalType": "address",
          "name": "tokenAddress",
          "type": "address"
        },
        {
          "internalType": "uint256",
          "name": "tokenAmount",
          "type": "uint256"
        }
      ],
      "name": "recoverERC20",
      "outputs": [],
      "stateMutability": "nonpayable",
      "type": "function"
    },
    {
      "inputs": [
        {
          "internalType": "uint256",
          "name": "_rewardsDuration",
          "type": "uint256"
        }
      ],
      "name": "setRewardsDuration",
      "outputs": [],
      "stateMutability": "nonpayable",
      "type": "function"
    },
    {
      "inputs": [],
      "name": "pause",
      "outputs": [],
      "stateMutability": "nonpayable",
      "type": "function"
    },
    {
      "inputs": [],
      "name": "unpause",
      "outputs": [],
      "stateMutability": "nonpayable",
      "type": "function"
    }
  ],
  "bytecode": "0x60806040526000601155600060125562093a806013553480156200002257600080fd5b5060405162004186380380620041868339818101604052810190620000489190620006de565b620000686200005c620001a960201b60201c565b620001b160201b60201c565b60016002819055506000600360006101000a81548160ff02191690831515021790555083600560006101000a81548173ffffffffffffffffffffffffffffffffffffffff021916908373ffffffffffffffffffffffffffffffffffffffff1602179055508260049080519060200190620000e4929190620003e7565b5081601060006101000a81548173ffffffffffffffffffffffffffffffffffffffff021916908373ffffffffffffffffffffffffffffffffffffffff1602179055506200013b6000801b826200027560201b60201c565b6200016d7f9f2df0fed2c77648de5860a4cc508cd0818c85b8b8a1ab4ceeef8d981c8956a6826200027560201b60201c565b6200019f7f3c11d16cbaffd01df69ce1c404f6340ee057498f5f00246190ea54220576a848826200027560201b60201c565b50505050620007d4565b600033905090565b60008060009054906101000a900473ffffffffffffffffffffffffffffffffffffffff169050816000806101000a81548173ffffffffffffffffffffffffffffffffffffffff021916908373ffffffffffffffffffffffffffffffffffffffff1602179055508173ffffffffffffffffffffffffffffffffffffffff168173ffffffffffffffffffffffffffffffffffffffff167f8be0079c531659141344cd1fd0a4f28419497f9722a3daafe3b4186f6b6457e060405160405180910390a35050565b6200028782826200028b60201b60201c565b5050565b6200029d82826200037c60201b60201c565b6200037857600180600084815260200190815260200160002060000160008373ffffffffffffffffffffffffffffffffffffffff1673ffffffffffffffffffffffffffffffffffffffff16815260200190815260200160002060006101000a81548160ff0219169083151502179055506200031d620001a960201b60201c565b73ffffffffffffffffffffffffffffffffffffffff168173ffffffffffffffffffffffffffffffffffffffff16837f2f8788117e7eff1d82e926ec794901d17c78024a50270940304540a733656f0d60405160405180910390a45b5050565b60006001600084815260200190815260200160002060000160008373ffffffffffffffffffffffffffffffffffffffff1673ffffffffffffffffffffffffffffffffffffffff16815260200190815260200160002060009054906101000a900460ff16905092915050565b828054620003f5906200079e565b90600052602060002090601f01602090048101928262000419576000855562000465565b82601f106200043457805160ff191683800117855562000465565b8280016001018555821562000465579182015b828111156200046457825182559160200191906001019062000447565b5b50905062000474919062000478565b5090565b5b808211156200049357600081600090555060010162000479565b5090565b6000604051905090565b600080fd5b600080fd5b600073ffffffffffffffffffffffffffffffffffffffff82169050919050565b6000620004d882620004ab565b9050919050565b6000620004ec82620004cb565b9050919050565b620004fe81620004df565b81146200050a57600080fd5b50565b6000815190506200051e81620004f3565b92915050565b600080fd5b600080fd5b6000601f19601f8301169050919050565b7f4e487b7100000000000000000000000000000000000000000000000000000000600052604160045260246000fd5b62000579826200052e565b810181811067ffffffffffffffff821117156200059b576200059a6200053f565b5b80604052505050565b6000620005b062000497565b9050620005be82826200056e565b919050565b600067ffffffffffffffff821115620005e157620005e06200053f565b5b620005ec826200052e565b9050602081019050919050565b60005b8381101562000619578082015181840152602081019050620005fc565b8381111562000629576000848401525b50505050565b6000620006466200064084620005c3565b620005a4565b90508281526020810184848401111562000665576200066462000529565b5b62000672848285620005f9565b509392505050565b600082601f83011262000692576200069162000524565b5b8151620006a48482602086016200062f565b91505092915050565b620006b881620004cb565b8114620006c457600080fd5b50565b600081519050620006d881620006ad565b92915050565b60008060008060808587031215620006fb57620006fa620004a1565b5b60006200070b878288016200050d565b945050602085015167ffffffffffffffff8111156200072f576200072e620004a6565b5b6200073d878288016200067a565b93505060406200075087828801620006c7565b92505060606200076387828801620006c7565b91505092959194509250565b7f4e487b7100000000000000000000000000000000000000000000000000000000600052602260045260246000fd5b60006002820490506001821680620007b757607f821691505b60208210811415620007ce57620007cd6200076f565b5b50919050565b6139a280620007e46000396000f3fe608060405234801561001057600080fd5b50600436106102ba5760003560e01c80637b0a47ee11610182578063c93c8f34116100e9578063e0359d2a116100a2578063ebe2b12b1161007c578063ebe2b12b14610867578063f2fde38b14610885578063f895d1c2146108a1578063fd5e6dd1146108d1576102ba565b8063e0359d2a1461080f578063e766c8351461083f578063e9fad8ee1461085d576102ba565b8063c93c8f341461074d578063cc1a378f1461077d578063cd3daf9d14610799578063d5391393146107b7578063d547741f146107d5578063df136d65146107f1576102ba565b806391d148541161013b57806391d1485414610677578063a217fddf146106a7578063a694fc3a146106c5578063aa5c3ab4146106e1578063b252ccc1146106ff578063c8f33c911461072f576102ba565b80637b0a47ee146105c757806380faa57d146105e55780638456cb59146106035780638980f11f1461060d5780638b876347146106295780638da5cb5b14610659576102ba565b806336568abe1161022657806345bc78ab116101df57806345bc78ab146104f157806352d472eb146105215780635c975abb1461053f5780636f49712b1461055d57806370a082311461058d578063715018a6146105bd576102ba565b806336568abe14610469578063386a9525146104855780633c6b16ab146104a35780633d18b912146104bf5780633f4ba83a146104c95780633fc6df6e146104d3576102ba565b80631c1f78eb116102785780631c1f78eb146103a7578063248a9ca3146103c5578063282c51f3146103f55780632e1a7d4d146104135780632f2ff15d1461042f57806333b1b3bc1461044b576102ba565b80628cc262146102bf57806301ffc9a7146102ef57806306fdde031461031f5780630700037d1461033d57806318160ddd1461036d578063197621431461038b575b600080fd5b6102d960048036038101906102d49190612ac6565b610901565b6040516102e69190612b0c565b60405180910390f35b61030960048036038101906103049190612b7f565b610a1f565b6040516103169190612bc7565b60405180910390f35b610327610a99565b6040516103349190612c7b565b60405180910390f35b61035760048036038101906103529190612ac6565b610b27565b6040516103649190612b0c565b60405180910390f35b610375610b3f565b6040516103829190612b0c565b60405180910390f35b6103a560048036038101906103a09190612ac6565b610b49565b005b6103af610c09565b6040516103bc9190612b0c565b60405180910390f35b6103df60048036038101906103da9190612cd3565b610c27565b6040516103ec9190612d0f565b60405180910390f35b6103fd610c47565b60405161040a9190612d0f565b60405180910390f35b61042d60048036038101906104289190612d56565b610c6b565b005b61044960048036038101906104449190612d83565b610f89565b005b610453610fb2565b6040516104609190612e22565b60405180910390f35b610483600480360381019061047e9190612d83565b610fd8565b005b61048d61105b565b60405161049a9190612b0c565b60405180910390f35b6104bd60048036038101906104b89190612d56565b611061565b005b6104c76113b8565b005b6104d1611676565b005b6104db6116fc565b6040516104e89190612e4c565b60405180910390f35b61050b60048036038101906105069190612ac6565b611722565b6040516105189190612b0c565b60405180910390f35b61052961173a565b6040516105369190612b0c565b60405180910390f35b610547611740565b6040516105549190612bc7565b60405180910390f35b61057760048036038101906105729190612ac6565b611757565b6040516105849190612bc7565b60405180910390f35b6105a760048036038101906105a29190612ac6565b611777565b6040516105b49190612b0c565b60405180910390f35b6105c56117c0565b005b6105cf611848565b6040516105dc9190612b0c565b60405180910390f35b6105ed61184e565b6040516105fa9190612b0c565b60405180910390f35b61060b611868565b005b61062760048036038101906106229190612e67565b6118ee565b005b610643600480360381019061063e9190612ac6565b611abe565b6040516106509190612b0c565b60405180910390f35b610661611ad6565b60405161066e9190612e4c565b60405180910390f35b610691600480360381019061068c9190612d83565b611aff565b60405161069e9190612bc7565b60405180910390f35b6106af611b6a565b6040516106bc9190612d0f565b60405180910390f35b6106df60048036038101906106da9190612d56565b611b71565b005b6106e9611ed9565b6040516106f69190612b0c565b60405180910390f35b61071960048036038101906107149190612ac6565b611edf565b6040516107269190612b0c565b60405180910390f35b610737611ef7565b6040516107449190612b0c565b60405180910390f35b61076760048036038101906107629190612ac6565b611efd565b6040516107749190612bc7565b60405180910390f35b61079760048036038101906107929190612d56565b611f1d565b005b6107a1612020565b6040516107ae9190612b0c565b60405180910390f35b6107bf6120ae565b6040516107cc9190612d0f565b60405180910390f35b6107ef60048036038101906107ea9190612d83565b6120d2565b005b6107f96120fb565b6040516108069190612b0c565b60405180910390f35b61082960048036038101906108249190612ac6565b612101565b6040516108369190612bc7565b60405180910390f35b610847612121565b6040516108549190612b0c565b60405180910390f35b610865612127565b005b61086f612179565b60405161087c9190612b0c565b60405180910390f35b61089f600480360381019061089a9190612ac6565b61217f565b005b6108bb60048036038101906108b69190612d56565b612277565b6040516108c89190612e4c565b60405180910390f35b6108eb60048036038101906108e69190612d56565b6122b6565b6040516108f89190612e4c565b60405180910390f35b6000610a18601760008473ffffffffffffffffffffffffffffffffffffffff1673ffffffffffffffffffffffffffffffffffffffff16815260200190815260200160002054610a0a670de0b6b3a76400006109fc6109ae601660008973ffffffffffffffffffffffffffffffffffffffff1673ffffffffffffffffffffffffffffffffffffffff168152602001908152602001600020546109a0612020565b6122f590919063ffffffff16565b601960008973ffffffffffffffffffffffffffffffffffffffff1673ffffffffffffffffffffffffffffffffffffffff1681526020019081526020016000205461230b90919063ffffffff16565b61232190919063ffffffff16565b61233790919063ffffffff16565b9050919050565b60007f7965db0b000000000000000000000000000000000000000000000000000000007bffffffffffffffffffffffffffffffffffffffffffffffffffffffff1916827bffffffffffffffffffffffffffffffffffffffffffffffffffffffff19161480610a925750610a918261234d565b5b9050919050565b60048054610aa690612ed6565b80601f0160208091040260200160405190810160405280929190818152602001828054610ad290612ed6565b8015610b1f5780601f10610af457610100808354040283529160200191610b1f565b820191906000526020600020905b815481529060010190602001808311610b0257829003601f168201915b505050505081565b60176020528060005260406000206000915090505481565b6000601854905090565b610b516123b7565b73ffffffffffffffffffffffffffffffffffffffff16610b6f611ad6565b73ffffffffffffffffffffffffffffffffffffffff1614610bc5576040517f08c379a0000000000000000000000000000000000000000000000000000000008152600401610bbc90612f54565b60405180910390fd5b80601060006101000a81548173ffffffffffffffffffffffffffffffffffffffff021916908373ffffffffffffffffffffffffffffffffffffffff16021790555050565b6000610c2260135460125461230b90919063ffffffff16565b905090565b600060016000838152602001908152602001600020600101549050919050565b7f3c11d16cbaffd01df69ce1c404f6340ee057498f5f00246190ea54220576a84881565b600280541415610cb0576040517f08c379a0000000000000000000000000000000000000000000000000000000008152600401610ca790612fc0565b60405180910390fd5b6002808190555033610cc0612020565b601581905550610cce61184e565b601481905550600073ffffffffffffffffffffffffffffffffffffffff168173ffffffffffffffffffffffffffffffffffffffff1614610d9b57610d1181610901565b601760008373ffffffffffffffffffffffffffffffffffffffff1673ffffffffffffffffffffffffffffffffffffffff16815260200190815260200160002081905550601554601660008373ffffffffffffffffffffffffffffffffffffffff1673ffffffffffffffffffffffffffffffffffffffff168152602001908152602001600020819055505b60008211610dde576040517f08c379a0000000000000000000000000000000000000000000000000000000008152600401610dd59061302c565b60405180910390fd5b610df3826018546122f590919063ffffffff16565b601881905550610e4b82601960003373ffffffffffffffffffffffffffffffffffffffff1673ffffffffffffffffffffffffffffffffffffffff168152602001908152602001600020546122f590919063ffffffff16565b601960003373ffffffffffffffffffffffffffffffffffffffff1673ffffffffffffffffffffffffffffffffffffffff16815260200190815260200160002081905550600560009054906101000a900473ffffffffffffffffffffffffffffffffffffffff1673ffffffffffffffffffffffffffffffffffffffff1663a9059cbb33846040518363ffffffff1660e01b8152600401610eeb92919061304c565b6020604051808303816000875af1158015610f0a573d6000803e3d6000fd5b505050506040513d601f19601f82011682018060405250810190610f2e91906130a1565b503373ffffffffffffffffffffffffffffffffffffffff167f7084f5476618d8e60b11ef0d7d3f06914655adb8793e28ff7f018d4c76d505d583604051610f759190612b0c565b60405180910390a250600160028190555050565b610f9282610c27565b610fa381610f9e6123b7565b6123bf565b610fad838361245c565b505050565b600560009054906101000a900473ffffffffffffffffffffffffffffffffffffffff1681565b610fe06123b7565b73ffffffffffffffffffffffffffffffffffffffff168173ffffffffffffffffffffffffffffffffffffffff161461104d576040517f08c379a000000000000000000000000000000000000000000000000000000000815260040161104490613140565b60405180910390fd5b611057828261253c565b5050565b60135481565b601060009054906101000a900473ffffffffffffffffffffffffffffffffffffffff1673ffffffffffffffffffffffffffffffffffffffff163373ffffffffffffffffffffffffffffffffffffffff16146110f1576040517f08c379a00000000000000000000000000000000000000000000000000000000081526004016110e8906131d2565b60405180910390fd5b60006110fb612020565b60158190555061110961184e565b601481905550600073ffffffffffffffffffffffffffffffffffffffff168173ffffffffffffffffffffffffffffffffffffffff16146111d65761114c81610901565b601760008373ffffffffffffffffffffffffffffffffffffffff1673ffffffffffffffffffffffffffffffffffffffff16815260200190815260200160002081905550601554601660008373ffffffffffffffffffffffffffffffffffffffff1673ffffffffffffffffffffffffffffffffffffffff168152602001908152602001600020819055505b60115442106111ff576111f46013548361232190919063ffffffff16565b601281905550611261565b6000611216426011546122f590919063ffffffff16565b9050600061122f6012548361230b90919063ffffffff16565b905061125860135461124a838761233790919063ffffffff16565b61232190919063ffffffff16565b60128190555050505b6000600560009054906101000a900473ffffffffffffffffffffffffffffffffffffffff1673ffffffffffffffffffffffffffffffffffffffff166370a08231306040518263ffffffff1660e01b81526004016112be9190612e4c565b602060405180830381865afa1580156112db573d6000803e3d6000fd5b505050506040513d601f19601f820116820180604052508101906112ff9190613207565b90506113166013548261232190919063ffffffff16565b601254111561135a576040517f08c379a000000000000000000000000000000000000000000000000000000000815260040161135190613280565b60405180910390fd5b426014819055506113766013544261233790919063ffffffff16565b6011819055507fde88a922e0d3b88b24e9623efeb464919c6bf9f66857a65e2bfcf2ce87a9433d836040516113ab9190612b0c565b60405180910390a1505050565b6002805414156113fd576040517f08c379a00000000000000000000000000000000000000000000000000000000081526004016113f490612fc0565b60405180910390fd5b600280819055503361140d612020565b60158190555061141b61184e565b601481905550600073ffffffffffffffffffffffffffffffffffffffff168173ffffffffffffffffffffffffffffffffffffffff16146114e85761145e81610901565b601760008373ffffffffffffffffffffffffffffffffffffffff1673ffffffffffffffffffffffffffffffffffffffff16815260200190815260200160002081905550601554601660008373ffffffffffffffffffffffffffffffffffffffff1673ffffffffffffffffffffffffffffffffffffffff168152602001908152602001600020819055505b6000601760003373ffffffffffffffffffffffffffffffffffffffff1673ffffffffffffffffffffffffffffffffffffffff168152602001908152602001600020549050600081111561166a576000601760003373ffffffffffffffffffffffffffffffffffffffff1673ffffffffffffffffffffffffffffffffffffffff16815260200190815260200160002081905550600560009054906101000a900473ffffffffffffffffffffffffffffffffffffffff1673ffffffffffffffffffffffffffffffffffffffff1663a9059cbb33836040518363ffffffff1660e01b81526004016115d792919061304c565b6020604051808303816000875af11580156115f6573d6000803e3d6000fd5b505050506040513d601f19601f8201168201806040525081019061161a91906130a1565b503373ffffffffffffffffffffffffffffffffffffffff167fe2403640ba68fed3a2f88b7557551d1993f84b99bb10ff833f0cf8db0c5e0486826040516116619190612b0c565b60405180910390a25b50506001600281905550565b61167e6123b7565b73ffffffffffffffffffffffffffffffffffffffff1661169c611ad6565b73ffffffffffffffffffffffffffffffffffffffff16146116f2576040517f08c379a00000000000000000000000000000000000000000000000000000000081526004016116e990612f54565b60405180910390fd5b6116fa61261e565b565b601060009054906101000a900473ffffffffffffffffffffffffffffffffffffffff1681565b60076020528060005260406000206000915090505481565b600f5481565b6000600360009054906101000a900460ff16905090565b60096020528060005260406000206000915054906101000a900460ff1681565b6000601960008373ffffffffffffffffffffffffffffffffffffffff1673ffffffffffffffffffffffffffffffffffffffff168152602001908152602001600020549050919050565b6117c86123b7565b73ffffffffffffffffffffffffffffffffffffffff166117e6611ad6565b73ffffffffffffffffffffffffffffffffffffffff161461183c576040517f08c379a000000000000000000000000000000000000000000000000000000000815260040161183390612f54565b60405180910390fd5b61184660006126c0565b565b60125481565b6000601154421061186157601154611863565b425b905090565b6118706123b7565b73ffffffffffffffffffffffffffffffffffffffff1661188e611ad6565b73ffffffffffffffffffffffffffffffffffffffff16146118e4576040517f08c379a00000000000000000000000000000000000000000000000000000000081526004016118db90612f54565b60405180910390fd5b6118ec612784565b565b6118f66123b7565b73ffffffffffffffffffffffffffffffffffffffff16611914611ad6565b73ffffffffffffffffffffffffffffffffffffffff161461196a576040517f08c379a000000000000000000000000000000000000000000000000000000000815260040161196190612f54565b60405180910390fd5b600560009054906101000a900473ffffffffffffffffffffffffffffffffffffffff1673ffffffffffffffffffffffffffffffffffffffff168273ffffffffffffffffffffffffffffffffffffffff1614156119fb576040517f08c379a00000000000000000000000000000000000000000000000000000000081526004016119f290613312565b60405180910390fd5b8173ffffffffffffffffffffffffffffffffffffffff1663a9059cbb611a1f611ad6565b836040518363ffffffff1660e01b8152600401611a3d92919061304c565b6020604051808303816000875af1158015611a5c573d6000803e3d6000fd5b505050506040513d601f19601f82011682018060405250810190611a8091906130a1565b507f8c1256b8896378cd5044f80c202f9772b9d77dc85c8a6eb51967210b09bfaa288282604051611ab292919061304c565b60405180910390a15050565b60166020528060005260406000206000915090505481565b60008060009054906101000a900473ffffffffffffffffffffffffffffffffffffffff16905090565b60006001600084815260200190815260200160002060000160008373ffffffffffffffffffffffffffffffffffffffff1673ffffffffffffffffffffffffffffffffffffffff16815260200190815260200160002060009054906101000a900460ff16905092915050565b6000801b81565b600280541415611bb6576040517f08c379a0000000000000000000000000000000000000000000000000000000008152600401611bad90612fc0565b60405180910390fd5b60028081905550611bc5611740565b15611c05576040517f08c379a0000000000000000000000000000000000000000000000000000000008152600401611bfc9061337e565b60405180910390fd5b33611c0e612020565b601581905550611c1c61184e565b601481905550600073ffffffffffffffffffffffffffffffffffffffff168173ffffffffffffffffffffffffffffffffffffffff1614611ce957611c5f81610901565b601760008373ffffffffffffffffffffffffffffffffffffffff1673ffffffffffffffffffffffffffffffffffffffff16815260200190815260200160002081905550601554601660008373ffffffffffffffffffffffffffffffffffffffff1673ffffffffffffffffffffffffffffffffffffffff168152602001908152602001600020819055505b60008211611d2c576040517f08c379a0000000000000000000000000000000000000000000000000000000008152600401611d23906133ea565b60405180910390fd5b611d418260185461233790919063ffffffff16565b601881905550611d9982601960003373ffffffffffffffffffffffffffffffffffffffff1673ffffffffffffffffffffffffffffffffffffffff1681526020019081526020016000205461233790919063ffffffff16565b601960003373ffffffffffffffffffffffffffffffffffffffff1673ffffffffffffffffffffffffffffffffffffffff16815260200190815260200160002081905550600560009054906101000a900473ffffffffffffffffffffffffffffffffffffffff1673ffffffffffffffffffffffffffffffffffffffff166323b872dd3330856040518463ffffffff1660e01b8152600401611e3b9392919061340a565b6020604051808303816000875af1158015611e5a573d6000803e3d6000fd5b505050506040513d601f19601f82011682018060405250810190611e7e91906130a1565b503373ffffffffffffffffffffffffffffffffffffffff167f9e71bc8eea02a63969f509818f2dafb9254532904319f9dbda79b67bd34a5f3d83604051611ec59190612b0c565b60405180910390a250600160028190555050565b600e5481565b600b6020528060005260406000206000915090505481565b60145481565b60086020528060005260406000206000915054906101000a900460ff1681565b611f256123b7565b73ffffffffffffffffffffffffffffffffffffffff16611f43611ad6565b73ffffffffffffffffffffffffffffffffffffffff1614611f99576040517f08c379a0000000000000000000000000000000000000000000000000000000008152600401611f9090612f54565b60405180910390fd5b6011544211611fdd576040517f08c379a0000000000000000000000000000000000000000000000000000000008152600401611fd4906134d9565b60405180910390fd5b806013819055507ffb46ca5a5e06d4540d6387b930a7c978bce0db5f449ec6b3f5d07c6e1d44f2d36013546040516120159190612b0c565b60405180910390a150565b60008060185414156120365760155490506120ab565b6120a8612097601854612089670de0b6b3a764000061207b60125461206d60145461205f61184e565b6122f590919063ffffffff16565b61230b90919063ffffffff16565b61230b90919063ffffffff16565b61232190919063ffffffff16565b60155461233790919063ffffffff16565b90505b90565b7f9f2df0fed2c77648de5860a4cc508cd0818c85b8b8a1ab4ceeef8d981c8956a681565b6120db82610c27565b6120ec816120e76123b7565b6123bf565b6120f6838361253c565b505050565b60155481565b600d6020528060005260406000206000915054906101000a900460ff1681565b600a5481565b61216f601960003373ffffffffffffffffffffffffffffffffffffffff1673ffffffffffffffffffffffffffffffffffffffff16815260200190815260200160002054610c6b565b6121776113b8565b565b60115481565b6121876123b7565b73ffffffffffffffffffffffffffffffffffffffff166121a5611ad6565b73ffffffffffffffffffffffffffffffffffffffff16146121fb576040517f08c379a00000000000000000000000000000000000000000000000000000000081526004016121f290612f54565b60405180910390fd5b600073ffffffffffffffffffffffffffffffffffffffff168173ffffffffffffffffffffffffffffffffffffffff16141561226b576040517f08c379a00000000000000000000000000000000000000000000000000000000081526004016122629061356b565b60405180910390fd5b612274816126c0565b50565b600c818154811061228757600080fd5b906000526020600020016000915054906101000a900473ffffffffffffffffffffffffffffffffffffffff1681565b600681815481106122c657600080fd5b906000526020600020016000915054906101000a900473ffffffffffffffffffffffffffffffffffffffff1681565b6000818361230391906135ba565b905092915050565b6000818361231991906135ee565b905092915050565b6000818361232f9190613677565b905092915050565b6000818361234591906136a8565b905092915050565b60007f01ffc9a7000000000000000000000000000000000000000000000000000000007bffffffffffffffffffffffffffffffffffffffffffffffffffffffff1916827bffffffffffffffffffffffffffffffffffffffffffffffffffffffff1916149050919050565b600033905090565b6123c98282611aff565b612458576123ee8173ffffffffffffffffffffffffffffffffffffffff166014612827565b6123fc8360001c6020612827565b60405160200161240d9291906137d2565b6040516020818303038152906040526040517f08c379a000000000000000000000000000000000000000000000000000000000815260040161244f9190612c7b565b60405180910390fd5b5050565b6124668282611aff565b61253857600180600084815260200190815260200160002060000160008373ffffffffffffffffffffffffffffffffffffffff1673ffffffffffffffffffffffffffffffffffffffff16815260200190815260200160002060006101000a81548160ff0219169083151502179055506124dd6123b7565b73ffffffffffffffffffffffffffffffffffffffff168173ffffffffffffffffffffffffffffffffffffffff16837f2f8788117e7eff1d82e926ec794901d17c78024a50270940304540a733656f0d60405160405180910390a45b5050565b6125468282611aff565b1561261a5760006001600084815260200190815260200160002060000160008373ffffffffffffffffffffffffffffffffffffffff1673ffffffffffffffffffffffffffffffffffffffff16815260200190815260200160002060006101000a81548160ff0219169083151502179055506125bf6123b7565b73ffffffffffffffffffffffffffffffffffffffff168173ffffffffffffffffffffffffffffffffffffffff16837ff6391f5c32d9c69d2a47ea670b442974b53935d1edc7fd64eb21e047a839171b60405160405180910390a45b5050565b612626611740565b612665576040517f08c379a000000000000000000000000000000000000000000000000000000000815260040161265c90613858565b60405180910390fd5b6000600360006101000a81548160ff0219169083151502179055507f5db9ee0a495bf2e6ff9c91a7834c1ba4fdd244a5e8aa4e537bd38aeae4b073aa6126a96123b7565b6040516126b69190612e4c565b60405180910390a1565b60008060009054906101000a900473ffffffffffffffffffffffffffffffffffffffff169050816000806101000a81548173ffffffffffffffffffffffffffffffffffffffff021916908373ffffffffffffffffffffffffffffffffffffffff1602179055508173ffffffffffffffffffffffffffffffffffffffff168173ffffffffffffffffffffffffffffffffffffffff167f8be0079c531659141344cd1fd0a4f28419497f9722a3daafe3b4186f6b6457e060405160405180910390a35050565b61278c611740565b156127cc576040517f08c379a00000000000000000000000000000000000000000000000000000000081526004016127c39061337e565b60405180910390fd5b6001600360006101000a81548160ff0219169083151502179055507f62e78cea01bee320cd4e420270b5ea74000d11b0c9f74754ebdbfc544b05a2586128106123b7565b60405161281d9190612e4c565b60405180910390a1565b60606000600283600261283a91906135ee565b61284491906136a8565b67ffffffffffffffff81111561285d5761285c613878565b5b6040519080825280601f01601f19166020018201604052801561288f5781602001600182028036833780820191505090505b5090507f3000000000000000000000000000000000000000000000000000000000000000816000815181106128c7576128c66138a7565b5b60200101907effffffffffffffffffffffffffffffffffffffffffffffffffffffffffffff1916908160001a9053507f78000000000000000000000000000000000000000000000000000000000000008160018151811061292b5761292a6138a7565b5b60200101907effffffffffffffffffffffffffffffffffffffffffffffffffffffffffffff1916908160001a9053506000600184600261296b91906135ee565b61297591906136a8565b90505b6001811115612a15577f3031323334353637383961626364656600000000000000000000000000000000600f8616601081106129b7576129b66138a7565b5b1a60f81b8282815181106129ce576129cd6138a7565b5b60200101907effffffffffffffffffffffffffffffffffffffffffffffffffffffffffffff1916908160001a905350600485901c945080612a0e906138d6565b9050612978565b5060008414612a59576040517f08c379a0000000000000000000000000000000000000000000000000000000008152600401612a509061394c565b60405180910390fd5b8091505092915050565b600080fd5b600073ffffffffffffffffffffffffffffffffffffffff82169050919050565b6000612a9382612a68565b9050919050565b612aa381612a88565b8114612aae57600080fd5b50565b600081359050612ac081612a9a565b92915050565b600060208284031215612adc57612adb612a63565b5b6000612aea84828501612ab1565b91505092915050565b6000819050919050565b612b0681612af3565b82525050565b6000602082019050612b216000830184612afd565b92915050565b60007fffffffff0000000000000000000000000000000000000000000000000000000082169050919050565b612b5c81612b27565b8114612b6757600080fd5b50565b600081359050612b7981612b53565b92915050565b600060208284031215612b9557612b94612a63565b5b6000612ba384828501612b6a565b91505092915050565b60008115159050919050565b612bc181612bac565b82525050565b6000602082019050612bdc6000830184612bb8565b92915050565b600081519050919050565b600082825260208201905092915050565b60005b83811015612c1c578082015181840152602081019050612c01565b83811115612c2b576000848401525b50505050565b6000601f19601f8301169050919050565b6000612c4d82612be2565b612c578185612bed565b9350612c67818560208601612bfe565b612c7081612c31565b840191505092915050565b60006020820190508181036000830152612c958184612c42565b905092915050565b6000819050919050565b612cb081612c9d565b8114612cbb57600080fd5b50565b600081359050612ccd81612ca7565b92915050565b600060208284031215612ce957612ce8612a63565b5b6000612cf784828501612cbe565b91505092915050565b612d0981612c9d565b82525050565b6000602082019050612d246000830184612d00565b92915050565b612d3381612af3565b8114612d3e57600080fd5b50565b600081359050612d5081612d2a565b92915050565b600060208284031215612d6c57612d6b612a63565b5b6000612d7a84828501612d41565b91505092915050565b60008060408385031215612d9a57612d99612a63565b5b6000612da885828601612cbe565b9250506020612db985828601612ab1565b9150509250929050565b6000819050919050565b6000612de8612de3612dde84612a68565b612dc3565b612a68565b9050919050565b6000612dfa82612dcd565b9050919050565b6000612e0c82612def565b9050919050565b612e1c81612e01565b82525050565b6000602082019050612e376000830184612e13565b92915050565b612e4681612a88565b82525050565b6000602082019050612e616000830184612e3d565b92915050565b60008060408385031215612e7e57612e7d612a63565b5b6000612e8c85828601612ab1565b9250506020612e9d85828601612d41565b9150509250929050565b7f4e487b7100000000000000000000000000000000000000000000000000000000600052602260045260246000fd5b60006002820490506001821680612eee57607f821691505b60208210811415612f0257612f01612ea7565b5b50919050565b7f4f776e61626c653a2063616c6c6572206973206e6f7420746865206f776e6572600082015250565b6000612f3e602083612bed565b9150612f4982612f08565b602082019050919050565b60006020820190508181036000830152612f6d81612f31565b9050919050565b7f5265656e7472616e637947756172643a207265656e7472616e742063616c6c00600082015250565b6000612faa601f83612bed565b9150612fb582612f74565b602082019050919050565b60006020820190508181036000830152612fd981612f9d565b9050919050565b7f43616e6e6f742077697468647261772030000000000000000000000000000000600082015250565b6000613016601183612bed565b915061302182612fe0565b602082019050919050565b6000602082019050818103600083015261304581613009565b9050919050565b60006040820190506130616000830185612e3d565b61306e6020830184612afd565b9392505050565b61307e81612bac565b811461308957600080fd5b50565b60008151905061309b81613075565b92915050565b6000602082840312156130b7576130b6612a63565b5b60006130c58482850161308c565b91505092915050565b7f416363657373436f6e74726f6c3a2063616e206f6e6c792072656e6f756e636560008201527f20726f6c657320666f722073656c660000000000000000000000000000000000602082015250565b600061312a602f83612bed565b9150613135826130ce565b604082019050919050565b600060208201905081810360008301526131598161311d565b9050919050565b7f43616c6c6572206973206e6f742052657761726473446973747269627574696f60008201527f6e20636f6e747261637400000000000000000000000000000000000000000000602082015250565b60006131bc602a83612bed565b91506131c782613160565b604082019050919050565b600060208201905081810360008301526131eb816131af565b9050919050565b60008151905061320181612d2a565b92915050565b60006020828403121561321d5761321c612a63565b5b600061322b848285016131f2565b91505092915050565b7f50726f76696465642072657761726420746f6f20686967680000000000000000600082015250565b600061326a601883612bed565b915061327582613234565b602082019050919050565b600060208201905081810360008301526132998161325d565b9050919050565b7f43616e6e6f7420776974686472617720746865207374616b696e6720746f6b6560008201527f6e00000000000000000000000000000000000000000000000000000000000000602082015250565b60006132fc602183612bed565b9150613307826132a0565b604082019050919050565b6000602082019050818103600083015261332b816132ef565b9050919050565b7f5061757361626c653a2070617573656400000000000000000000000000000000600082015250565b6000613368601083612bed565b915061337382613332565b602082019050919050565b600060208201905081810360008301526133978161335b565b9050919050565b7f43616e6e6f74207374616b652030000000000000000000000000000000000000600082015250565b60006133d4600e83612bed565b91506133df8261339e565b602082019050919050565b60006020820190508181036000830152613403816133c7565b9050919050565b600060608201905061341f6000830186612e3d565b61342c6020830185612e3d565b6134396040830184612afd565b949350505050565b7f50726576696f7573207265776172647320706572696f64206d7573742062652060008201527f636f6d706c657465206265666f7265206368616e67696e67207468652064757260208201527f6174696f6e20666f7220746865206e657720706572696f640000000000000000604082015250565b60006134c3605883612bed565b91506134ce82613441565b606082019050919050565b600060208201905081810360008301526134f2816134b6565b9050919050565b7f4f776e61626c653a206e6577206f776e657220697320746865207a65726f206160008201527f6464726573730000000000000000000000000000000000000000000000000000602082015250565b6000613555602683612bed565b9150613560826134f9565b604082019050919050565b6000602082019050818103600083015261358481613548565b9050919050565b7f4e487b7100000000000000000000000000000000000000000000000000000000600052601160045260246000fd5b60006135c582612af3565b91506135d083612af3565b9250828210156135e3576135e261358b565b5b828203905092915050565b60006135f982612af3565b915061360483612af3565b9250817fffffffffffffffffffffffffffffffffffffffffffffffffffffffffffffffff048311821515161561363d5761363c61358b565b5b828202905092915050565b7f4e487b7100000000000000000000000000000000000000000000000000000000600052601260045260246000fd5b600061368282612af3565b915061368d83612af3565b92508261369d5761369c613648565b5b828204905092915050565b60006136b382612af3565b91506136be83612af3565b9250827fffffffffffffffffffffffffffffffffffffffffffffffffffffffffffffffff038211156136f3576136f261358b565b5b828201905092915050565b600081905092915050565b7f416363657373436f6e74726f6c3a206163636f756e7420000000000000000000600082015250565b600061373f6017836136fe565b915061374a82613709565b601782019050919050565b600061376082612be2565b61376a81856136fe565b935061377a818560208601612bfe565b80840191505092915050565b7f206973206d697373696e6720726f6c6520000000000000000000000000000000600082015250565b60006137bc6011836136fe565b91506137c782613786565b601182019050919050565b60006137dd82613732565b91506137e98285613755565b91506137f4826137af565b91506138008284613755565b91508190509392505050565b7f5061757361626c653a206e6f7420706175736564000000000000000000000000600082015250565b6000613842601483612bed565b915061384d8261380c565b602082019050919050565b6000602082019050818103600083015261387181613835565b9050919050565b7f4e487b7100000000000000000000000000000000000000000000000000000000600052604160045260246000fd5b7f4e487b7100000000000000000000000000000000000000000000000000000000600052603260045260246000fd5b60006138e182612af3565b915060008214156138f5576138f461358b565b5b600182039050919050565b7f537472696e67733a20686578206c656e67746820696e73756666696369656e74600082015250565b6000613936602083612bed565b915061394182613900565b602082019050919050565b6000602082019050818103600083015261396581613929565b905091905056fea26469706673582212208b74131b69197bc768beee84248cd48f0f0c844f10b75dbce76cefa42e27a6c764736f6c634300080b0033",
  "immutableReferences": {},
  "source": "pragma solidity ^0.8.0;\n\nimport \"@openzeppelin/contracts/token/ERC20/ERC20.sol\";\n\nimport \"@openzeppelin/contracts/utils/math/SafeMath.sol\";\n\nimport \"@openzeppelin/contracts/access/Ownable.sol\";\n\nimport \"@openzeppelin/contracts/access/AccessControl.sol\";\n\nimport \"@openzeppelin/contracts/security/ReentrancyGuard.sol\";\n\nimport \"@openzeppelin/contracts/security/Pausable.sol\";\n\ncontract RewardStakingOld is Ownable, AccessControl, ReentrancyGuard, Pausable {\n    string public name;\n    ERC20 public busdxToken;\n    bytes32 public constant MINTER_ROLE = keccak256(\"MINTER_ROLE\");\n    bytes32 public constant BURNER_ROLE = keccak256(\"BURNER_ROLE\");\n\n    address[] public stakers;\n    mapping(address => uint256) public stakingBalance;\n    mapping(address => bool) public hasStaked;\n    mapping(address => bool) public isStaking;\n\n    uint256 public totalStakingBalance;\n\n    // This unstake is variables used for minting the unstaked tokens.\n    mapping(address => uint256) public unStakedUserDetails;\n    address[] public unStakers;\n    mapping(address => bool) public hasUnstaked;\n\n    // Reward token balance\n    uint256 public rewardBalance;\n\n    // Reward percentage\n    uint256 public rewardPercentage;\n\n    // Reward Distribution\n    address public rewardsDistribution;\n\n    uint256 public periodFinish = 0;\n    uint256 public rewardRate = 0;\n    uint256 public rewardsDuration = 7 days;\n    uint256 public lastUpdateTime;\n    uint256 public rewardPerTokenStored;\n\n    mapping(address => uint256) public userRewardPerTokenPaid;\n    mapping(address => uint256) public rewards;\n\n    uint256 private _totalSupply;\n    mapping(address => uint256) private _balances;\n\n    using SafeMath for uint256;\n    /* ========== EVENTS ========== */\n\n    event RewardAdded(uint256 reward);\n    event Staked(address indexed user, uint256 amount);\n    event Withdrawn(address indexed user, uint256 amount);\n    event RewardPaid(address indexed user, uint256 reward);\n    event RewardsDurationUpdated(uint256 newDuration);\n    event Recovered(address token, uint256 amount);\n\n    constructor(\n        ERC20 _busdxToken,\n        string memory _name,\n        address _rewardsDistribution,\n        address _ownerAddress\n    ) {\n        busdxToken = _busdxToken;\n        name = _name;\n        rewardsDistribution = _rewardsDistribution;\n        _setupRole(DEFAULT_ADMIN_ROLE, _ownerAddress);\n        _setupRole(MINTER_ROLE, _ownerAddress);\n        _setupRole(BURNER_ROLE, _ownerAddress);\n    }\n\n    function totalSupply() external view returns (uint256) {\n        return _totalSupply;\n    }\n\n    function balanceOf(address account) external view returns (uint256) {\n        return _balances[account];\n    }\n\n    function lastTimeRewardApplicable() public view returns (uint256) {\n        return block.timestamp < periodFinish ? block.timestamp : periodFinish;\n    }\n\n    function rewardPerToken() public view returns (uint256) {\n        if (_totalSupply == 0) {\n            return rewardPerTokenStored;\n        }\n        return\n            rewardPerTokenStored.add(\n                lastTimeRewardApplicable()\n                    .sub(lastUpdateTime)\n                    .mul(rewardRate)\n                    .mul(1e18)\n                    .div(_totalSupply)\n            );\n    }\n\n    function earned(address account) public view returns (uint256) {\n        return\n            _balances[account]\n                .mul(rewardPerToken().sub(userRewardPerTokenPaid[account]))\n                .div(1e18)\n                .add(rewards[account]);\n    }\n\n    function getRewardForDuration() external view returns (uint256) {\n        return rewardRate.mul(rewardsDuration);\n    }\n\n    /* ========== MUTATIVE FUNCTIONS ========== */\n\n    function stake(uint256 amount)\n        external\n        nonReentrant\n        whenNotPaused\n        updateReward(msg.sender)\n    {\n        require(amount > 0, \"Cannot stake 0\");\n        _totalSupply = _totalSupply.add(amount);\n        _balances[msg.sender] = _balances[msg.sender].add(amount);\n        busdxToken.transferFrom(msg.sender, address(this), amount);\n        emit Staked(msg.sender, amount);\n    }\n\n    function withdraw(uint256 amount)\n        public\n        nonReentrant\n        updateReward(msg.sender)\n    {\n        require(amount > 0, \"Cannot withdraw 0\");\n        _totalSupply = _totalSupply.sub(amount);\n        _balances[msg.sender] = _balances[msg.sender].sub(amount);\n        busdxToken.transfer(msg.sender, amount);\n        emit Withdrawn(msg.sender, amount);\n    }\n\n    function getReward() public nonReentrant updateReward(msg.sender) {\n        uint256 reward = rewards[msg.sender];\n        if (reward > 0) {\n            rewards[msg.sender] = 0;\n            busdxToken.transfer(msg.sender, reward);\n            emit RewardPaid(msg.sender, reward);\n        }\n    }\n\n    function exit() external {\n        withdraw(_balances[msg.sender]);\n        getReward();\n    }\n\n    // Reward distribution receipient contract.\n\n    modifier onlyRewardsDistribution() {\n        require(\n            msg.sender == rewardsDistribution,\n            \"Caller is not RewardsDistribution contract\"\n        );\n        _;\n    }\n\n    function setRewardsDistribution(address _rewardsDistribution)\n        external\n        onlyOwner\n    {\n        rewardsDistribution = _rewardsDistribution;\n    }\n\n    /* ========== RESTRICTED FUNCTIONS ========== */\n\n    function notifyRewardAmount(uint256 reward)\n        external\n        onlyRewardsDistribution\n        updateReward(address(0))\n    {\n        if (block.timestamp >= periodFinish) {\n            rewardRate = reward.div(rewardsDuration);\n        } else {\n            uint256 remaining = periodFinish.sub(block.timestamp);\n            uint256 leftover = remaining.mul(rewardRate);\n            rewardRate = reward.add(leftover).div(rewardsDuration);\n        }\n\n        // Ensure the provided reward amount is not more than the balance in the contract.\n        // This keeps the reward rate in the right range, preventing overflows due to\n        // very high values of rewardRate in the earned and rewardsPerToken functions;\n        // Reward + leftover must be less than 2^256 / 10^18 to avoid overflow.\n        uint256 balance = busdxToken.balanceOf(address(this));\n        require(\n            rewardRate <= balance.div(rewardsDuration),\n            \"Provided reward too high\"\n        );\n\n        lastUpdateTime = block.timestamp;\n        periodFinish = block.timestamp.add(rewardsDuration);\n        emit RewardAdded(reward);\n    }\n\n    // Added to support recovering LP Rewards from other systems such as BAL to be distributed to holders\n    function recoverERC20(address tokenAddress, uint256 tokenAmount)\n        external\n        onlyOwner\n    {\n        require(\n            tokenAddress != address(busdxToken),\n            \"Cannot withdraw the staking token\"\n        );\n        ERC20(tokenAddress).transfer(owner(), tokenAmount);\n        emit Recovered(tokenAddress, tokenAmount);\n    }\n\n    function setRewardsDuration(uint256 _rewardsDuration) external onlyOwner {\n        require(\n            block.timestamp > periodFinish,\n            \"Previous rewards period must be complete before changing the duration for the new period\"\n        );\n        rewardsDuration = _rewardsDuration;\n        emit RewardsDurationUpdated(rewardsDuration);\n    }\n\n    // function grandMinterRole(address minterAddress) public onlyOwner {\n    //     _setupRole(MINTER_ROLE, minterAddress);\n    // }\n\n    // function grandBurnerRole(address burnerAddress) public onlyOwner {\n    //     _setupRole(BURNER_ROLE, burnerAddress);\n    // }\n\n    // function revokeMinterAccess(address minterAddress) public onlyOwner {\n    //     require(\n    //         hasRole(MINTER_ROLE, minterAddress),\n    //         \"Couldn't find this address in the roles. \"\n    //     );\n    //     revokeRole(MINTER_ROLE, minterAddress);\n    // }\n\n    // function revokeBurnerAccess(address burnerAddress) public onlyOwner {\n    //     require(\n    //         hasRole(BURNER_ROLE, burnerAddress),\n    //         \"Couldn't find this address in the roles. \"\n    //     );\n    //     revokeRole(BURNER_ROLE, burnerAddress);\n    // }\n\n    // function stakeTokens(uint256 _amount) public {\n    //     // Require amount greater than 0\n    //     require(_amount > 0, \"amount cannot be 0\");\n\n    //     // Trasnfer Mock Dai tokens to this contract for staking\n    //     busdxToken.transferFrom(msg.sender, address(this), _amount);\n\n    //     // Update staking balance\n    //     stakingBalance[msg.sender] = stakingBalance[msg.sender] + _amount;\n\n    //     // Add user to stakers array *only* if they haven't staked already\n    //     if (!hasStaked[msg.sender]) {\n    //         stakers.push(msg.sender);\n    //     }\n\n    //     // Update staking status\n    //     isStaking[msg.sender] = true;\n    //     hasStaked[msg.sender] = true;\n    // }\n\n    // // Unstaking Tokens (Withdraw) -- Just updating the pool.\n    // function unstakeTokens(uint256 _amount) public payable {\n    //     // check the amount is greater than 0\n    //     require(_amount > 0, \"staking balance cannot be 0\");\n\n    //     // Fetch staking balance\n    //     uint256 balance = stakingBalance[msg.sender];\n\n    //     // Require amount greater than 0\n    //     require(balance > 0, \"staking balance cannot be 0\");\n\n    //     // Check given amount is available in the balance.\n    //     require(\n    //         _amount <= balance,\n    //         \"Your staking balace is lesser than the given amount\"\n    //     );\n\n    //     uint256 remaingBalance = balance - _amount;\n\n    //     // add unstaked user in the unStakedUserDetails mapping.\n    //     unStakedUserDetails[msg.sender] =\n    //         unStakedUserDetails[msg.sender] +\n    //         _amount;\n\n    //     // add user to unstakers array *only* if they haven't unstake already.\n    //     if (!hasUnstaked[msg.sender]) {\n    //         unStakers.push(msg.sender);\n    //     }\n\n    //     hasUnstaked[msg.sender] = true;\n\n    //     // Reset staking balance\n    //     stakingBalance[msg.sender] = remaingBalance;\n\n    //     // Update staking status\n    //     if (remaingBalance == 0) {\n    //         isStaking[msg.sender] = false;\n    //     }\n\n    //     // Require that staking pool has enough tokens\n    //     require(busdxToken.balanceOf(address(this)) >= _amount);\n\n    //     // Send the unstaked token to respective investor.\n    //     // busdxToken.transferFrom(address(this), msg.sender, _amount);\n    //     busdxToken.transfer(msg.sender, _amount);\n    // }\n\n    // function totalStakeBalance() public returns (uint256 bal) {\n    //     uint256 balance;\n    //     for (uint256 i = 0; i < stakers.length; i++) {\n    //         address recipient = stakers[i];\n    //         balance = stakingBalance[recipient] + balance;\n    //     }\n    //     totalStakingBalance = balance;\n    //     return balance;\n    // }\n\n    // // get Stakers list\n    // function getStakersList()\n    //     public\n    //     view\n    //     returns (address[] memory stakersList)\n    // {\n    //     return stakers;\n    // }\n\n    // // Receive Reward token from the admin.\n    // function receiveRewardToken(uint256 _amount) public onlyOwner {\n    //     // check the amount is greater than 0\n    //     require(_amount > 0, \"staking balance cannot be 0\");\n\n    //     rewardBalance = rewardBalance + _amount;\n\n    //     // Trasnfer tokens to this contract for staking\n    //     busdxToken.transferFrom(msg.sender, address(this), _amount);\n    // }\n\n    // function getRewardBalance(address _walletAddress)\n    //     public\n    //     returns (uint256 stakingAmount)\n    // {\n    //     uint256 tempStakingBalance = stakingBalance[_walletAddress];\n\n    //     // Calculate the amount with staking balance.\n    // }\n\n    // function deleteVariables() public onlyOwner {\n    //     // Only owner can call this function\n\n    //     delete stakers;\n    //     delete unStakers;\n    // }\n\n    // uint256 tempBalance = _balances[account];\n    // tempBalance = tempBalance * rewardPerToken(account);\n    // tempBalance = tempBalance / 1e18;\n    // tempBalance = tempBalance + rewards[account];\n    // return tempBalance;\n    // return\n    //     _balances[account].mul(rewardPerToken(account)).div(1e18).add(\n    //         rewards[account]\n    //     );\n\n    // function rewardPerToken(address account) public view returns (uint256) {\n    //     uint256 tempTimeStamp = block.timestamp - stakedTimeStamp[account];\n    //     uint256 tempCalValue = rewardRate * 1e18;\n    //     tempCalValue = tempCalValue / 525600;\n    //     tempCalValue = tempCalValue * tempTimeStamp;\n    //     return tempCalValue;\n    //     // return rewardRate.div(525600).mul(tempTimeStamp).mul(1e18);\n    // }\n\n    modifier updateReward(address account) {\n        rewardPerTokenStored = rewardPerToken();\n        lastUpdateTime = lastTimeRewardApplicable(); // nope\n        if (account != address(0)) {\n            rewards[account] = earned(account);\n            userRewardPerTokenPaid[account] = rewardPerTokenStored;\n        }\n        _;\n    }\n\n    function pause() public onlyOwner {\n        _pause();\n    }\n\n    function unpause() public onlyOwner {\n        _unpause();\n    }\n}\n",
  "sourcePath": "/Users/aravinth/Repo/codegama/blockchain/ido_projects/ido-frontend-jason/src/contracts/RewardStakingOld.sol",
  "compiler": {
    "name": "solc",
    "version": "0.8.11+commit.d7f03943.Emscripten.clang"
  },
  "schemaVersion": "3.3.4",
  "updatedAt": "2022-01-04T08:55:04.141Z",
  "devdoc": {
    "kind": "dev",
    "methods": {
      "getRoleAdmin(bytes32)": {
        "details": "Returns the admin role that controls `role`. See {grantRole} and {revokeRole}. To change a role's admin, use {_setRoleAdmin}."
      },
      "grantRole(bytes32,address)": {
        "details": "Grants `role` to `account`. If `account` had not been already granted `role`, emits a {RoleGranted} event. Requirements: - the caller must have ``role``'s admin role."
      },
      "hasRole(bytes32,address)": {
        "details": "Returns `true` if `account` has been granted `role`."
      },
      "owner()": {
        "details": "Returns the address of the current owner."
      },
      "paused()": {
        "details": "Returns true if the contract is paused, and false otherwise."
      },
      "renounceOwnership()": {
        "details": "Leaves the contract without owner. It will not be possible to call `onlyOwner` functions anymore. Can only be called by the current owner. NOTE: Renouncing ownership will leave the contract without an owner, thereby removing any functionality that is only available to the owner."
      },
      "renounceRole(bytes32,address)": {
        "details": "Revokes `role` from the calling account. Roles are often managed via {grantRole} and {revokeRole}: this function's purpose is to provide a mechanism for accounts to lose their privileges if they are compromised (such as when a trusted device is misplaced). If the calling account had been revoked `role`, emits a {RoleRevoked} event. Requirements: - the caller must be `account`."
      },
      "revokeRole(bytes32,address)": {
        "details": "Revokes `role` from `account`. If `account` had been granted `role`, emits a {RoleRevoked} event. Requirements: - the caller must have ``role``'s admin role."
      },
      "supportsInterface(bytes4)": {
        "details": "See {IERC165-supportsInterface}."
      },
      "transferOwnership(address)": {
        "details": "Transfers ownership of the contract to a new account (`newOwner`). Can only be called by the current owner."
      }
    },
    "version": 1
  },
  "userdoc": {
    "kind": "user",
    "methods": {},
    "version": 1
  }
}