{
  "contractName": "StakingPool",
  "abi": [
    {
      "inputs": [
        {
          "internalType": "contract ERC20",
          "name": "_busdxToken",
          "type": "address"
        },
        {
          "internalType": "string",
          "name": "_name",
          "type": "string"
        }
      ],
      "stateMutability": "nonpayable",
      "type": "constructor"
    },
    {
      "inputs": [],
      "name": "busdxToken",
      "outputs": [
        {
          "internalType": "contract ERC20",
          "name": "",
          "type": "address"
        }
      ],
      "stateMutability": "view",
      "type": "function",
      "constant": true
    },
    {
      "inputs": [
        {
          "internalType": "address",
          "name": "",
          "type": "address"
        }
      ],
      "name": "hasStaked",
      "outputs": [
        {
          "internalType": "bool",
          "name": "",
          "type": "bool"
        }
      ],
      "stateMutability": "view",
      "type": "function",
      "constant": true
    },
    {
      "inputs": [
        {
          "internalType": "address",
          "name": "",
          "type": "address"
        }
      ],
      "name": "hasUnstaked",
      "outputs": [
        {
          "internalType": "bool",
          "name": "",
          "type": "bool"
        }
      ],
      "stateMutability": "view",
      "type": "function",
      "constant": true
    },
    {
      "inputs": [
        {
          "internalType": "address",
          "name": "",
          "type": "address"
        }
      ],
      "name": "isStaking",
      "outputs": [
        {
          "internalType": "bool",
          "name": "",
          "type": "bool"
        }
      ],
      "stateMutability": "view",
      "type": "function",
      "constant": true
    },
    {
      "inputs": [],
      "name": "name",
      "outputs": [
        {
          "internalType": "string",
          "name": "",
          "type": "string"
        }
      ],
      "stateMutability": "view",
      "type": "function",
      "constant": true
    },
    {
      "inputs": [],
      "name": "owner",
      "outputs": [
        {
          "internalType": "address",
          "name": "",
          "type": "address"
        }
      ],
      "stateMutability": "view",
      "type": "function",
      "constant": true
    },
    {
      "inputs": [
        {
          "internalType": "address",
          "name": "",
          "type": "address"
        }
      ],
      "name": "projectTokenBalance",
      "outputs": [
        {
          "internalType": "uint256",
          "name": "",
          "type": "uint256"
        }
      ],
      "stateMutability": "view",
      "type": "function",
      "constant": true
    },
    {
      "inputs": [
        {
          "internalType": "uint256",
          "name": "",
          "type": "uint256"
        }
      ],
      "name": "stakers",
      "outputs": [
        {
          "internalType": "address",
          "name": "",
          "type": "address"
        }
      ],
      "stateMutability": "view",
      "type": "function",
      "constant": true
    },
    {
      "inputs": [],
      "name": "stakingBalToBeBurned",
      "outputs": [
        {
          "internalType": "uint256",
          "name": "",
          "type": "uint256"
        }
      ],
      "stateMutability": "view",
      "type": "function",
      "constant": true
    },
    {
      "inputs": [
        {
          "internalType": "address",
          "name": "",
          "type": "address"
        }
      ],
      "name": "stakingBalance",
      "outputs": [
        {
          "internalType": "uint256",
          "name": "",
          "type": "uint256"
        }
      ],
      "stateMutability": "view",
      "type": "function",
      "constant": true
    },
    {
      "inputs": [],
      "name": "totalProjTokens",
      "outputs": [
        {
          "internalType": "uint256",
          "name": "",
          "type": "uint256"
        }
      ],
      "stateMutability": "view",
      "type": "function",
      "constant": true
    },
    {
      "inputs": [],
      "name": "totalStakingBalance",
      "outputs": [
        {
          "internalType": "uint256",
          "name": "",
          "type": "uint256"
        }
      ],
      "stateMutability": "view",
      "type": "function",
      "constant": true
    },
    {
      "inputs": [],
      "name": "totalTokenUsed",
      "outputs": [
        {
          "internalType": "uint256",
          "name": "",
          "type": "uint256"
        }
      ],
      "stateMutability": "view",
      "type": "function",
      "constant": true
    },
    {
      "inputs": [
        {
          "internalType": "address",
          "name": "",
          "type": "address"
        }
      ],
      "name": "unStakedUserDetails",
      "outputs": [
        {
          "internalType": "uint256",
          "name": "",
          "type": "uint256"
        }
      ],
      "stateMutability": "view",
      "type": "function",
      "constant": true
    },
    {
      "inputs": [
        {
          "internalType": "uint256",
          "name": "",
          "type": "uint256"
        }
      ],
      "name": "unStakers",
      "outputs": [
        {
          "internalType": "address",
          "name": "",
          "type": "address"
        }
      ],
      "stateMutability": "view",
      "type": "function",
      "constant": true
    },
    {
      "inputs": [
        {
          "internalType": "uint256",
          "name": "_amount",
          "type": "uint256"
        }
      ],
      "name": "stakeTokens",
      "outputs": [],
      "stateMutability": "nonpayable",
      "type": "function"
    },
    {
      "inputs": [
        {
          "internalType": "uint256",
          "name": "_amount",
          "type": "uint256"
        }
      ],
      "name": "unstakeTokens",
      "outputs": [],
      "stateMutability": "payable",
      "type": "function",
      "payable": true
    },
    {
      "inputs": [],
      "name": "totalStakeBalance",
      "outputs": [
        {
          "internalType": "uint256",
          "name": "bal",
          "type": "uint256"
        }
      ],
      "stateMutability": "nonpayable",
      "type": "function"
    },
    {
      "inputs": [
        {
          "internalType": "uint256",
          "name": "_calculatedProjectTokens",
          "type": "uint256"
        },
        {
          "internalType": "address",
          "name": "projectOwnerAddress",
          "type": "address"
        }
      ],
      "name": "transferTokenToInvestor",
      "outputs": [],
      "stateMutability": "payable",
      "type": "function",
      "payable": true
    },
    {
      "inputs": [],
      "name": "getStakersList",
      "outputs": [
        {
          "internalType": "address[]",
          "name": "stakersList",
          "type": "address[]"
        }
      ],
      "stateMutability": "view",
      "type": "function",
      "constant": true
    },
    {
      "inputs": [],
      "name": "totalProjToken",
      "outputs": [
        {
          "internalType": "uint256",
          "name": "bal",
          "type": "uint256"
        }
      ],
      "stateMutability": "nonpayable",
      "type": "function"
    },
    {
      "inputs": [
        {
          "internalType": "contract ERC20",
          "name": "projectToken",
          "type": "address"
        },
        {
          "internalType": "uint256",
          "name": "projectTokenPrice",
          "type": "uint256"
        }
      ],
      "name": "sendProjTokenInvestor",
      "outputs": [],
      "stateMutability": "nonpayable",
      "type": "function"
    },
    {
      "inputs": [],
      "name": "deleteVariables",
      "outputs": [],
      "stateMutability": "nonpayable",
      "type": "function"
    }
  ],
  "bytecode": "0x60806040523480156200001157600080fd5b5060405162002fd438038062002fd48339818101604052810190620000379190620003a0565b81600260006101000a81548173ffffffffffffffffffffffffffffffffffffffff021916908373ffffffffffffffffffffffffffffffffffffffff160217905550806000908051906020019062000090929190620000da565b5033600160006101000a81548173ffffffffffffffffffffffffffffffffffffffff021916908373ffffffffffffffffffffffffffffffffffffffff16021790555050506200046b565b828054620000e89062000435565b90600052602060002090601f0160209004810192826200010c576000855562000158565b82601f106200012757805160ff191683800117855562000158565b8280016001018555821562000158579182015b82811115620001575782518255916020019190600101906200013a565b5b5090506200016791906200016b565b5090565b5b80821115620001865760008160009055506001016200016c565b5090565b6000604051905090565b600080fd5b600080fd5b600073ffffffffffffffffffffffffffffffffffffffff82169050919050565b6000620001cb826200019e565b9050919050565b6000620001df82620001be565b9050919050565b620001f181620001d2565b8114620001fd57600080fd5b50565b6000815190506200021181620001e6565b92915050565b600080fd5b600080fd5b6000601f19601f8301169050919050565b7f4e487b7100000000000000000000000000000000000000000000000000000000600052604160045260246000fd5b6200026c8262000221565b810181811067ffffffffffffffff821117156200028e576200028d62000232565b5b80604052505050565b6000620002a36200018a565b9050620002b1828262000261565b919050565b600067ffffffffffffffff821115620002d457620002d362000232565b5b620002df8262000221565b9050602081019050919050565b60005b838110156200030c578082015181840152602081019050620002ef565b838111156200031c576000848401525b50505050565b6000620003396200033384620002b6565b62000297565b9050828152602081018484840111156200035857620003576200021c565b5b62000365848285620002ec565b509392505050565b600082601f83011262000385576200038462000217565b5b81516200039784826020860162000322565b91505092915050565b60008060408385031215620003ba57620003b962000194565b5b6000620003ca8582860162000200565b925050602083015167ffffffffffffffff811115620003ee57620003ed62000199565b5b620003fc858286016200036d565b9150509250929050565b7f4e487b7100000000000000000000000000000000000000000000000000000000600052602260045260246000fd5b600060028204905060018216806200044e57607f821691505b6020821081141562000465576200046462000406565b5b50919050565b612b59806200047b6000396000f3fe6080604052600436106101405760003560e01c80636ab00a38116100b6578063e0359d2a1161006f578063e0359d2a14610453578063e3791eea14610490578063e5515685146104bb578063e766c835146104d7578063f895d1c214610502578063fd5e6dd11461053f57610140565b80636ab00a381461031d5780636f49712b146103485780637547c7a3146103855780638da5cb5b146103ae578063b252ccc1146103d9578063c93c8f341461041657610140565b806334949cc11161010857806334949cc11461020657806338ce9d791461023157806345bc78ab1461025c5780635fe1285c14610299578063608e4dd0146102d6578063652b1aa9146102f257610140565b806306fdde031461014557806316adafaa14610170578063194527c3146101995780632dbe13d9146101b057806333b1b3bc146101db575b600080fd5b34801561015157600080fd5b5061015a61057c565b6040516101679190611e92565b60405180910390f35b34801561017c57600080fd5b5061019760048036038101906101929190611f5f565b61060a565b005b3480156101a557600080fd5b506101ae6109ef565b005b3480156101bc57600080fd5b506101c5610a9d565b6040516101d29190611fae565b60405180910390f35b3480156101e757600080fd5b506101f0610aa3565b6040516101fd9190612028565b60405180910390f35b34801561021257600080fd5b5061021b610ac9565b6040516102289190611fae565b60405180910390f35b34801561023d57600080fd5b50610246610b8f565b6040516102539190611fae565b60405180910390f35b34801561026857600080fd5b50610283600480360381019061027e919061206f565b610b95565b6040516102909190611fae565b60405180910390f35b3480156102a557600080fd5b506102c060048036038101906102bb919061206f565b610bad565b6040516102cd9190611fae565b60405180910390f35b6102f060048036038101906102eb919061209c565b610bc5565b005b3480156102fe57600080fd5b50610307611071565b6040516103149190611fae565b60405180910390f35b34801561032957600080fd5b50610332611077565b60405161033f9190612187565b60405180910390f35b34801561035457600080fd5b5061036f600480360381019061036a919061206f565b611105565b60405161037c91906121c4565b60405180910390f35b34801561039157600080fd5b506103ac60048036038101906103a7919061209c565b611125565b005b3480156103ba57600080fd5b506103c3611415565b6040516103d091906121ee565b60405180910390f35b3480156103e557600080fd5b5061040060048036038101906103fb919061206f565b61143b565b60405161040d9190611fae565b60405180910390f35b34801561042257600080fd5b5061043d6004803603810190610438919061206f565b611453565b60405161044a91906121c4565b60405180910390f35b34801561045f57600080fd5b5061047a6004803603810190610475919061206f565b611473565b60405161048791906121c4565b60405180910390f35b34801561049c57600080fd5b506104a5611493565b6040516104b29190611fae565b60405180910390f35b6104d560048036038101906104d09190612209565b611559565b005b3480156104e357600080fd5b506104ec611c7c565b6040516104f99190611fae565b60405180910390f35b34801561050e57600080fd5b506105296004803603810190610524919061209c565b611c82565b60405161053691906121ee565b60405180910390f35b34801561054b57600080fd5b506105666004803603810190610561919061209c565b611cc1565b60405161057391906121ee565b60405180910390f35b6000805461058990612278565b80601f01602080910402602001604051908101604052809291908181526020018280546105b590612278565b80156106025780601f106105d757610100808354040283529160200191610602565b820191906000526020600020905b8154815290600101906020018083116105e557829003601f168201915b505050505081565b600160009054906101000a900473ffffffffffffffffffffffffffffffffffffffff1673ffffffffffffffffffffffffffffffffffffffff163373ffffffffffffffffffffffffffffffffffffffff161461069a576040517f08c379a0000000000000000000000000000000000000000000000000000000008152600401610691906122f6565b60405180910390fd5b60005b6003805490508110156109ea576000600382815481106106c0576106bf612316565b5b9060005260206000200160009054906101000a900473ffffffffffffffffffffffffffffffffffffffff1690506000600e60008373ffffffffffffffffffffffffffffffffffffffff1673ffffffffffffffffffffffffffffffffffffffff168152602001908152602001600020549050838161073d91906123a3565b905060008573ffffffffffffffffffffffffffffffffffffffff1663313ce5676040518163ffffffff1660e01b8152600401602060405180830381865afa15801561078c573d6000803e3d6000fd5b505050506040513d601f19601f820116820180604052508101906107b0919061240d565b600a6107bc919061256d565b826107c791906125b8565b905060008111156109d45760008673ffffffffffffffffffffffffffffffffffffffff1663dd62ed3e33306040518363ffffffff1660e01b815260040161080f929190612612565b602060405180830381865afa15801561082c573d6000803e3d6000fd5b505050506040513d601f19601f820116820180604052508101906108509190612650565b905081811015610895576040517f08c379a000000000000000000000000000000000000000000000000000000000815260040161088c906126c9565b60405180910390fd5b818773ffffffffffffffffffffffffffffffffffffffff166370a08231336040518263ffffffff1660e01b81526004016108cf91906121ee565b602060405180830381865afa1580156108ec573d6000803e3d6000fd5b505050506040513d601f19601f820116820180604052508101906109109190612650565b1015610951576040517f08c379a000000000000000000000000000000000000000000000000000000000815260040161094890612735565b60405180910390fd5b8673ffffffffffffffffffffffffffffffffffffffff166323b872dd3386856040518463ffffffff1660e01b815260040161098e93929190612755565b6020604051808303816000875af11580156109ad573d6000803e3d6000fd5b505050506040513d601f19601f820116820180604052508101906109d191906127b8565b50505b50505080806109e2906127e5565b91505061069d565b505050565b600160009054906101000a900473ffffffffffffffffffffffffffffffffffffffff1673ffffffffffffffffffffffffffffffffffffffff163373ffffffffffffffffffffffffffffffffffffffff1614610a7f576040517f08c379a0000000000000000000000000000000000000000000000000000000008152600401610a769061287a565b60405180910390fd5b60036000610a8d9190611dbb565b600a6000610a9b9190611dbb565b565b60085481565b600260009054906101000a900473ffffffffffffffffffffffffffffffffffffffff1681565b60008060005b600380549050811015610b8057600060038281548110610af257610af1612316565b5b9060005260206000200160009054906101000a900473ffffffffffffffffffffffffffffffffffffffff16905082600460008373ffffffffffffffffffffffffffffffffffffffff1673ffffffffffffffffffffffffffffffffffffffff16815260200190815260200160002054610b6a919061289a565b9250508080610b78906127e5565b915050610acf565b50806007819055508091505090565b600c5481565b60046020528060005260406000206000915090505481565b600e6020528060005260406000206000915090505481565b60008111610c08576040517f08c379a0000000000000000000000000000000000000000000000000000000008152600401610bff9061293c565b60405180910390fd5b6000600460003373ffffffffffffffffffffffffffffffffffffffff1673ffffffffffffffffffffffffffffffffffffffff16815260200190815260200160002054905060008111610c8f576040517f08c379a0000000000000000000000000000000000000000000000000000000008152600401610c869061293c565b60405180910390fd5b80821115610cd2576040517f08c379a0000000000000000000000000000000000000000000000000000000008152600401610cc9906129ce565b60405180910390fd5b60008282610ce091906129ee565b905082600960003373ffffffffffffffffffffffffffffffffffffffff1673ffffffffffffffffffffffffffffffffffffffff16815260200190815260200160002054610d2d919061289a565b600960003373ffffffffffffffffffffffffffffffffffffffff1673ffffffffffffffffffffffffffffffffffffffff16815260200190815260200160002081905550600b60003373ffffffffffffffffffffffffffffffffffffffff1673ffffffffffffffffffffffffffffffffffffffff16815260200190815260200160002060009054906101000a900460ff16610e2557600a339080600181540180825580915050600190039060005260206000200160009091909190916101000a81548173ffffffffffffffffffffffffffffffffffffffff021916908373ffffffffffffffffffffffffffffffffffffffff1602179055505b6001600b60003373ffffffffffffffffffffffffffffffffffffffff1673ffffffffffffffffffffffffffffffffffffffff16815260200190815260200160002060006101000a81548160ff02191690831515021790555080600460003373ffffffffffffffffffffffffffffffffffffffff1673ffffffffffffffffffffffffffffffffffffffff168152602001908152602001600020819055506000811415610f23576000600660003373ffffffffffffffffffffffffffffffffffffffff1673ffffffffffffffffffffffffffffffffffffffff16815260200190815260200160002060006101000a81548160ff0219169083151502179055505b82600260009054906101000a900473ffffffffffffffffffffffffffffffffffffffff1673ffffffffffffffffffffffffffffffffffffffff166370a08231306040518263ffffffff1660e01b8152600401610f7f91906121ee565b602060405180830381865afa158015610f9c573d6000803e3d6000fd5b505050506040513d601f19601f82011682018060405250810190610fc09190612650565b1015610fcb57600080fd5b600260009054906101000a900473ffffffffffffffffffffffffffffffffffffffff1673ffffffffffffffffffffffffffffffffffffffff1663a9059cbb33856040518363ffffffff1660e01b8152600401611028929190612a22565b6020604051808303816000875af1158015611047573d6000803e3d6000fd5b505050506040513d601f19601f8201168201806040525081019061106b91906127b8565b50505050565b600d5481565b606060038054806020026020016040519081016040528092919081815260200182805480156110fb57602002820191906000526020600020905b8160009054906101000a900473ffffffffffffffffffffffffffffffffffffffff1673ffffffffffffffffffffffffffffffffffffffff16815260200190600101908083116110b1575b5050505050905090565b60066020528060005260406000206000915054906101000a900460ff1681565b60008111611168576040517f08c379a000000000000000000000000000000000000000000000000000000000815260040161115f90612a97565b60405180910390fd5b600260009054906101000a900473ffffffffffffffffffffffffffffffffffffffff1673ffffffffffffffffffffffffffffffffffffffff166323b872dd3330846040518463ffffffff1660e01b81526004016111c793929190612755565b6020604051808303816000875af11580156111e6573d6000803e3d6000fd5b505050506040513d601f19601f8201168201806040525081019061120a91906127b8565b5080600460003373ffffffffffffffffffffffffffffffffffffffff1673ffffffffffffffffffffffffffffffffffffffff16815260200190815260200160002054611256919061289a565b600460003373ffffffffffffffffffffffffffffffffffffffff1673ffffffffffffffffffffffffffffffffffffffff1681526020019081526020016000208190555080600c546112a7919061289a565b600c81905550600560003373ffffffffffffffffffffffffffffffffffffffff1673ffffffffffffffffffffffffffffffffffffffff16815260200190815260200160002060009054906101000a900460ff16611362576003339080600181540180825580915050600190039060005260206000200160009091909190916101000a81548173ffffffffffffffffffffffffffffffffffffffff021916908373ffffffffffffffffffffffffffffffffffffffff1602179055505b6001600660003373ffffffffffffffffffffffffffffffffffffffff1673ffffffffffffffffffffffffffffffffffffffff16815260200190815260200160002060006101000a81548160ff0219169083151502179055506001600560003373ffffffffffffffffffffffffffffffffffffffff1673ffffffffffffffffffffffffffffffffffffffff16815260200190815260200160002060006101000a81548160ff02191690831515021790555050565b600160009054906101000a900473ffffffffffffffffffffffffffffffffffffffff1681565b60096020528060005260406000206000915090505481565b60056020528060005260406000206000915054906101000a900460ff1681565b600b6020528060005260406000206000915054906101000a900460ff1681565b60008060005b60038054905081101561154a576000600382815481106114bc576114bb612316565b5b9060005260206000200160009054906101000a900473ffffffffffffffffffffffffffffffffffffffff16905082600e60008373ffffffffffffffffffffffffffffffffffffffff1673ffffffffffffffffffffffffffffffffffffffff16815260200190815260200160002054611534919061289a565b9250508080611542906127e5565b915050611499565b5080600d819055508091505090565b600160009054906101000a900473ffffffffffffffffffffffffffffffffffffffff1673ffffffffffffffffffffffffffffffffffffffff163373ffffffffffffffffffffffffffffffffffffffff16146115e9576040517f08c379a00000000000000000000000000000000000000000000000000000000081526004016115e09061287a565b60405180910390fd5b60006115f3610ac9565b905080600260009054906101000a900473ffffffffffffffffffffffffffffffffffffffff1673ffffffffffffffffffffffffffffffffffffffff166370a08231306040518263ffffffff1660e01b815260040161165191906121ee565b602060405180830381865afa15801561166e573d6000803e3d6000fd5b505050506040513d601f19601f820116820180604052508101906116929190612650565b101561169d57600080fd5b828110611a0857600080600090505b60038054905081101561193b576000600382815481106116cf576116ce612316565b5b9060005260206000200160009054906101000a900473ffffffffffffffffffffffffffffffffffffffff1690506000611747600460008473ffffffffffffffffffffffffffffffffffffffff1673ffffffffffffffffffffffffffffffffffffffff1681526020019081526020016000205486611d00565b9050600067016345785d8a0000828961176091906125b8565b61176a91906123a3565b90506117768382611d29565b600081600460008673ffffffffffffffffffffffffffffffffffffffff1673ffffffffffffffffffffffffffffffffffffffff168152602001908152602001600020546117c391906129ee565b9050600081111561192457600260009054906101000a900473ffffffffffffffffffffffffffffffffffffffff1673ffffffffffffffffffffffffffffffffffffffff1663a9059cbb85836040518363ffffffff1660e01b815260040161182b929190612a22565b6020604051808303816000875af115801561184a573d6000803e3d6000fd5b505050506040513d601f19601f8201168201806040525081019061186e91906127b8565b50600460008573ffffffffffffffffffffffffffffffffffffffff1673ffffffffffffffffffffffffffffffffffffffff16815260200190815260200160002060009055600560008573ffffffffffffffffffffffffffffffffffffffff1673ffffffffffffffffffffffffffffffffffffffff16815260200190815260200160002060006101000a81549060ff02191690558060085461190f919061289a565b6008819055508086611921919061289a565b95505b505050508080611933906127e5565b9150506116ac565b506000818361194a91906129ee565b9050600260009054906101000a900473ffffffffffffffffffffffffffffffffffffffff1673ffffffffffffffffffffffffffffffffffffffff1663a9059cbb85836040518363ffffffff1660e01b81526004016119a9929190612a22565b6020604051808303816000875af11580156119c8573d6000803e3d6000fd5b505050506040513d601f19601f820116820180604052508101906119ec91906127b8565b50806008546119fb919061289a565b6008819055505050611c77565b60008111611a4b576040517f08c379a0000000000000000000000000000000000000000000000000000000008152600401611a4290612b03565b60405180910390fd5b60005b600380549050811015611bc057600060038281548110611a7157611a70612316565b5b9060005260206000200160009054906101000a900473ffffffffffffffffffffffffffffffffffffffff1690506000611ae9600460008473ffffffffffffffffffffffffffffffffffffffff1673ffffffffffffffffffffffffffffffffffffffff1681526020019081526020016000205485611d00565b9050600067016345785d8a00008286611b0291906125b8565b611b0c91906123a3565b9050611b188382611d29565b600460008473ffffffffffffffffffffffffffffffffffffffff1673ffffffffffffffffffffffffffffffffffffffff16815260200190815260200160002060009055600560008473ffffffffffffffffffffffffffffffffffffffff1673ffffffffffffffffffffffffffffffffffffffff16815260200190815260200160002060006101000a81549060ff02191690555050508080611bb8906127e5565b915050611a4e565b50600260009054906101000a900473ffffffffffffffffffffffffffffffffffffffff1673ffffffffffffffffffffffffffffffffffffffff1663a9059cbb83836040518363ffffffff1660e01b8152600401611c1e929190612a22565b6020604051808303816000875af1158015611c3d573d6000803e3d6000fd5b505050506040513d601f19601f82011682018060405250810190611c6191906127b8565b5080600854611c70919061289a565b6008819055505b505050565b60075481565b600a8181548110611c9257600080fd5b906000526020600020016000915054906101000a900473ffffffffffffffffffffffffffffffffffffffff1681565b60038181548110611cd157600080fd5b906000526020600020016000915054906101000a900473ffffffffffffffffffffffffffffffffffffffff1681565b60008167016345785d8a000084611d1791906125b8565b611d2191906123a3565b905092915050565b80600e60008473ffffffffffffffffffffffffffffffffffffffff1673ffffffffffffffffffffffffffffffffffffffff16815260200190815260200160002054611d74919061289a565b600e60008473ffffffffffffffffffffffffffffffffffffffff1673ffffffffffffffffffffffffffffffffffffffff168152602001908152602001600020819055505050565b5080546000825590600052602060002090810190611dd99190611ddc565b50565b5b80821115611df5576000816000905550600101611ddd565b5090565b600081519050919050565b600082825260208201905092915050565b60005b83811015611e33578082015181840152602081019050611e18565b83811115611e42576000848401525b50505050565b6000601f19601f8301169050919050565b6000611e6482611df9565b611e6e8185611e04565b9350611e7e818560208601611e15565b611e8781611e48565b840191505092915050565b60006020820190508181036000830152611eac8184611e59565b905092915050565b600080fd5b600073ffffffffffffffffffffffffffffffffffffffff82169050919050565b6000611ee482611eb9565b9050919050565b6000611ef682611ed9565b9050919050565b611f0681611eeb565b8114611f1157600080fd5b50565b600081359050611f2381611efd565b92915050565b6000819050919050565b611f3c81611f29565b8114611f4757600080fd5b50565b600081359050611f5981611f33565b92915050565b60008060408385031215611f7657611f75611eb4565b5b6000611f8485828601611f14565b9250506020611f9585828601611f4a565b9150509250929050565b611fa881611f29565b82525050565b6000602082019050611fc36000830184611f9f565b92915050565b6000819050919050565b6000611fee611fe9611fe484611eb9565b611fc9565b611eb9565b9050919050565b600061200082611fd3565b9050919050565b600061201282611ff5565b9050919050565b61202281612007565b82525050565b600060208201905061203d6000830184612019565b92915050565b61204c81611ed9565b811461205757600080fd5b50565b60008135905061206981612043565b92915050565b60006020828403121561208557612084611eb4565b5b60006120938482850161205a565b91505092915050565b6000602082840312156120b2576120b1611eb4565b5b60006120c084828501611f4a565b91505092915050565b600081519050919050565b600082825260208201905092915050565b6000819050602082019050919050565b6120fe81611ed9565b82525050565b600061211083836120f5565b60208301905092915050565b6000602082019050919050565b6000612134826120c9565b61213e81856120d4565b9350612149836120e5565b8060005b8381101561217a5781516121618882612104565b975061216c8361211c565b92505060018101905061214d565b5085935050505092915050565b600060208201905081810360008301526121a18184612129565b905092915050565b60008115159050919050565b6121be816121a9565b82525050565b60006020820190506121d960008301846121b5565b92915050565b6121e881611ed9565b82525050565b600060208201905061220360008301846121df565b92915050565b600080604083850312156122205761221f611eb4565b5b600061222e85828601611f4a565b925050602061223f8582860161205a565b9150509250929050565b7f4e487b7100000000000000000000000000000000000000000000000000000000600052602260045260246000fd5b6000600282049050600182168061229057607f821691505b602082108114156122a4576122a3612249565b5b50919050565b7f4e6565647320746f2063616c6c206279206f776e65722e2e0000000000000000600082015250565b60006122e0601883611e04565b91506122eb826122aa565b602082019050919050565b6000602082019050818103600083015261230f816122d3565b9050919050565b7f4e487b7100000000000000000000000000000000000000000000000000000000600052603260045260246000fd5b7f4e487b7100000000000000000000000000000000000000000000000000000000600052601260045260246000fd5b7f4e487b7100000000000000000000000000000000000000000000000000000000600052601160045260246000fd5b60006123ae82611f29565b91506123b983611f29565b9250826123c9576123c8612345565b5b828204905092915050565b600060ff82169050919050565b6123ea816123d4565b81146123f557600080fd5b50565b600081519050612407816123e1565b92915050565b60006020828403121561242357612422611eb4565b5b6000612431848285016123f8565b91505092915050565b60008160011c9050919050565b6000808291508390505b60018511156124915780860481111561246d5761246c612374565b5b600185161561247c5780820291505b808102905061248a8561243a565b9450612451565b94509492505050565b6000826124aa5760019050612566565b816124b85760009050612566565b81600181146124ce57600281146124d857612507565b6001915050612566565b60ff8411156124ea576124e9612374565b5b8360020a91508482111561250157612500612374565b5b50612566565b5060208310610133831016604e8410600b841016171561253c5782820a90508381111561253757612536612374565b5b612566565b6125498484846001612447565b925090508184048111156125605761255f612374565b5b81810290505b9392505050565b600061257882611f29565b9150612583836123d4565b92506125b07fffffffffffffffffffffffffffffffffffffffffffffffffffffffffffffffff848461249a565b905092915050565b60006125c382611f29565b91506125ce83611f29565b9250817fffffffffffffffffffffffffffffffffffffffffffffffffffffffffffffffff048311821515161561260757612606612374565b5b828202905092915050565b600060408201905061262760008301856121df565b61263460208301846121df565b9392505050565b60008151905061264a81611f33565b92915050565b60006020828403121561266657612665611eb4565b5b60006126748482850161263b565b91505092915050565b7f436865636b2074686520746f6b656e20616c6c6f77616e636500000000000000600082015250565b60006126b3601983611e04565b91506126be8261267d565b602082019050919050565b600060208201905081810360008301526126e2816126a6565b9050919050565b7f41646d696e20616d6f756e74206973206e6f7420656e6f7567682e2e00000000600082015250565b600061271f601c83611e04565b915061272a826126e9565b602082019050919050565b6000602082019050818103600083015261274e81612712565b9050919050565b600060608201905061276a60008301866121df565b61277760208301856121df565b6127846040830184611f9f565b949350505050565b612795816121a9565b81146127a057600080fd5b50565b6000815190506127b28161278c565b92915050565b6000602082840312156127ce576127cd611eb4565b5b60006127dc848285016127a3565b91505092915050565b60006127f082611f29565b91507fffffffffffffffffffffffffffffffffffffffffffffffffffffffffffffffff82141561282357612822612374565b5b600182019050919050565b7f63616c6c6572206d75737420626520746865206f776e65720000000000000000600082015250565b6000612864601883611e04565b915061286f8261282e565b602082019050919050565b6000602082019050818103600083015261289381612857565b9050919050565b60006128a582611f29565b91506128b083611f29565b9250827fffffffffffffffffffffffffffffffffffffffffffffffffffffffffffffffff038211156128e5576128e4612374565b5b828201905092915050565b7f7374616b696e672062616c616e63652063616e6e6f7420626520300000000000600082015250565b6000612926601b83611e04565b9150612931826128f0565b602082019050919050565b6000602082019050818103600083015261295581612919565b9050919050565b7f596f7572207374616b696e672062616c616365206973206c657373657220746860008201527f616e2074686520676976656e20616d6f756e7400000000000000000000000000602082015250565b60006129b8603383611e04565b91506129c38261295c565b604082019050919050565b600060208201905081810360008301526129e7816129ab565b9050919050565b60006129f982611f29565b9150612a0483611f29565b925082821015612a1757612a16612374565b5b828203905092915050565b6000604082019050612a3760008301856121df565b612a446020830184611f9f565b9392505050565b7f616d6f756e742063616e6e6f7420626520300000000000000000000000000000600082015250565b6000612a81601283611e04565b9150612a8c82612a4b565b602082019050919050565b60006020820190508181036000830152612ab081612a74565b9050919050565b7f416d6f756e742073686f756c64206e6f74206265206c657373207468616e2030600082015250565b6000612aed602083611e04565b9150612af882612ab7565b602082019050919050565b60006020820190508181036000830152612b1c81612ae0565b905091905056fea2646970667358221220401ee962be1e7aa5d63cd5f6c5f77420e9af97b66feb02dec5f57350d9d90de264736f6c634300080b0033",
  "immutableReferences": {},
  "source": "pragma solidity ^0.8.0;\n\nimport \"@openzeppelin/contracts/token/ERC20/ERC20.sol\";\n\nimport \"@openzeppelin/contracts/utils/math/SafeMath.sol\";\n\ncontract StakingPool {\n    string public name;\n    address public owner;\n    ERC20 public busdxToken;\n\n    address[] public stakers;\n    mapping(address => uint256) public stakingBalance;\n    mapping(address => bool) public hasStaked;\n    mapping(address => bool) public isStaking;\n\n    uint256 public totalStakingBalance;\n    uint256 public totalTokenUsed;\n\n    // This unstake is variables used for minting the unstaked tokens.\n    mapping(address => uint256) public unStakedUserDetails;\n    address[] public unStakers;\n    mapping(address => bool) public hasUnstaked;\n\n    // This used for burning the staked tokens.\n    uint256 public stakingBalToBeBurned;\n\n    uint256 public totalProjTokens;\n\n    // investor address and allocated project tokens.\n    mapping(address => uint256) public projectTokenBalance;\n\n    constructor(ERC20 _busdxToken, string memory _name) {\n        busdxToken = _busdxToken;\n        name = _name;\n        owner = msg.sender;\n    }\n\n    function stakeTokens(uint256 _amount) public {\n        // Require amount greater than 0\n        require(_amount > 0, \"amount cannot be 0\");\n\n        // Trasnfer tokens to this contract for staking\n        busdxToken.transferFrom(msg.sender, address(this), _amount);\n\n        // Update staking balance\n        stakingBalance[msg.sender] = stakingBalance[msg.sender] + _amount;\n\n        // Update staking balance in temp varialble.\n        stakingBalToBeBurned = stakingBalToBeBurned + _amount;\n\n        // Add user to stakers array *only* if they haven't staked already\n        if (!hasStaked[msg.sender]) {\n            stakers.push(msg.sender);\n        }\n\n        // Update staking status\n        isStaking[msg.sender] = true;\n        hasStaked[msg.sender] = true;\n    }\n\n    // Unstaking Tokens (Withdraw) -- Just updating the pool.\n    function unstakeTokens(uint256 _amount) public payable {\n        // check the amount is greater than 0\n        require(_amount > 0, \"staking balance cannot be 0\");\n\n        // Fetch staking balance\n        uint256 balance = stakingBalance[msg.sender];\n\n        // Require amount greater than 0\n        require(balance > 0, \"staking balance cannot be 0\");\n\n        // Check given amount is available in the balance.\n        require(\n            _amount <= balance,\n            \"Your staking balace is lesser than the given amount\"\n        );\n\n        uint256 remaingBalance = balance - _amount;\n\n        // add unstaked user in the unStakedUserDetails mapping.\n        unStakedUserDetails[msg.sender] =\n            unStakedUserDetails[msg.sender] +\n            _amount;\n\n        // add user to unstakers array *only* if they haven't unstake already.\n        if (!hasUnstaked[msg.sender]) {\n            unStakers.push(msg.sender);\n        }\n\n        hasUnstaked[msg.sender] = true;\n\n        // Reset staking balance\n        stakingBalance[msg.sender] = remaingBalance;\n\n        // Update staking status\n        if (remaingBalance == 0) {\n            isStaking[msg.sender] = false;\n        }\n\n        // Require that staking pool has enough tokens\n        require(busdxToken.balanceOf(address(this)) >= _amount);\n\n        // Send the unstaked token to respective investor.\n        // busdxToken.transferFrom(address(this), msg.sender, _amount);\n        busdxToken.transfer(msg.sender, _amount);\n    }\n\n    function totalStakeBalance() public returns (uint256 bal) {\n        uint256 balance;\n        for (uint256 i = 0; i < stakers.length; i++) {\n            address recipient = stakers[i];\n            balance = stakingBalance[recipient] + balance;\n        }\n        totalStakingBalance = balance;\n        return balance;\n    }\n\n    // find the percentage for each staked users.\n    function getPercentage(uint256 _investedAmount, uint256 _tempTotalStaking)\n        internal\n        pure\n        returns (uint256 percentage)\n    {\n        return ((_investedAmount * 100000000000000000) / _tempTotalStaking);\n        // return (tempPercentage * 100);\n    }\n\n    // Transfer remaining token to respective investors.\n    function transferTokenToInvestor(\n        uint256 _calculatedProjectTokens,\n        address projectOwnerAddress\n    ) public payable {\n        // Only owner can call this function\n        require(msg.sender == owner, \"caller must be the owner\");\n\n        // Check the total staked token is equal or greater than total project token.\n        uint256 tempTotalStaking = totalStakeBalance();\n\n        // Require that staking pool has enough tokens\n        require(busdxToken.balanceOf(address(this)) >= tempTotalStaking);\n\n        // Find total staking is greater or lesser.\n        if (tempTotalStaking >= _calculatedProjectTokens) {\n            // Total staking is greater.\n            uint256 projectCompletedMintedToken;\n\n            // Issue tokens to all stakers\n            for (uint256 i = 0; i < stakers.length; i++) {\n                address recipient = stakers[i];\n                uint256 percentage = getPercentage(\n                    stakingBalance[recipient],\n                    tempTotalStaking\n                );\n                // Allocated Launchpad token.\n                uint256 allocatedTokens = (_calculatedProjectTokens *\n                    percentage) / 100000000000000000;\n\n                saveProjectTokenInvestor(recipient, allocatedTokens);\n\n                // uint256 finalAllocatedTokens = allocatedTokens *\n                //     _projectTokenPrice;\n\n                uint256 balance = (stakingBalance[recipient] - allocatedTokens);\n                if (balance > 0) {\n                    busdxToken.transfer(recipient, balance);\n                    delete stakingBalance[recipient];\n                    delete hasStaked[recipient];\n                    totalTokenUsed = totalTokenUsed + balance;\n                    projectCompletedMintedToken =\n                        projectCompletedMintedToken +\n                        balance;\n                }\n            }\n            // delete stakers; No need to delete the stakers now.\n\n            // Sending the remaing token staked to project owner.\n            // check the totalstaking - projectCompletedMintedToken.\n            uint256 noOfTokenToBeSentToProjOwner = tempTotalStaking -\n                projectCompletedMintedToken;\n\n            busdxToken.transfer(\n                projectOwnerAddress,\n                noOfTokenToBeSentToProjOwner\n            );\n\n            totalTokenUsed = totalTokenUsed + noOfTokenToBeSentToProjOwner;\n        } else {\n            require(tempTotalStaking > 0, \"Amount should not be less than 0\");\n            // Issue tokens to all stakers\n            for (uint256 i = 0; i < stakers.length; i++) {\n                address recipient = stakers[i];\n                uint256 percentage = getPercentage(\n                    stakingBalance[recipient],\n                    tempTotalStaking\n                );\n                // Allocated Launchpad token.\n                uint256 allocatedTokens = (tempTotalStaking * percentage) /\n                    100000000000000000;\n\n                saveProjectTokenInvestor(recipient, allocatedTokens);\n\n                delete stakingBalance[recipient];\n                delete hasStaked[recipient];\n            }\n\n            // Send Total staking token to Project Owner\n            busdxToken.transfer(projectOwnerAddress, tempTotalStaking);\n            totalTokenUsed = totalTokenUsed + tempTotalStaking;\n        }\n    }\n\n    // Save project token to investors.\n    function saveProjectTokenInvestor(\n        address recipient,\n        uint256 allocatedTokens\n    ) private {\n        // save allocated launch pad token to investor.\n        projectTokenBalance[recipient] =\n            projectTokenBalance[recipient] +\n            allocatedTokens;\n    }\n\n    // get Stakers list\n    function getStakersList()\n        public\n        view\n        returns (address[] memory stakersList)\n    {\n        return stakers;\n    }\n\n    //Total Launch pad token allocated to investor.\n    function totalProjToken() public returns (uint256 bal) {\n        uint256 balance;\n        for (uint256 i = 0; i < stakers.length; i++) {\n            address recipient = stakers[i];\n            balance = projectTokenBalance[recipient] + balance;\n        }\n        totalProjTokens = balance;\n        return balance;\n    }\n\n    // Send ProjectToken to Investors.\n    function sendProjTokenInvestor(\n        ERC20 projectToken,\n        uint256 projectTokenPrice\n    ) public {\n        // Only owner can access it.\n        require(msg.sender == owner, \"Needs to call by owner..\");\n\n        for (uint256 i = 0; i < stakers.length; i++) {\n            address recipient = stakers[i];\n            uint256 balance = projectTokenBalance[recipient];\n            balance = balance / projectTokenPrice;\n            uint256 finalBal = balance * (10**projectToken.decimals());\n\n            if (finalBal > 0) {\n                uint256 allowance = projectToken.allowance(\n                    msg.sender,\n                    address(this)\n                );\n                require(allowance >= finalBal, \"Check the token allowance\");\n                require(\n                    projectToken.balanceOf(msg.sender) >= finalBal,\n                    \"Admin amount is not enough..\"\n                );\n                projectToken.transferFrom(msg.sender, recipient, finalBal);\n            }\n        }\n    }\n\n    function deleteVariables() public {\n        // Only owner can call this function\n        require(msg.sender == owner, \"caller must be the owner\");\n\n        delete stakers;\n        delete unStakers;\n    }\n}\n",
  "sourcePath": "/Users/aravinth/Repo/codegama/blockchain/ido_projects/ido-frontend-jason/src/contracts/StakingPool.sol",
  "compiler": {
    "name": "solc",
    "version": "0.8.11+commit.d7f03943.Emscripten.clang"
  },
  "schemaVersion": "3.3.4",
  "updatedAt": "2022-01-11T08:30:28.203Z",
  "networkType": "ethereum",
  "devdoc": {
    "kind": "dev",
    "methods": {},
    "version": 1
  },
  "userdoc": {
    "kind": "user",
    "methods": {},
    "version": 1
  }
}