{
  "contractName": "Token",
  "abi": [
    {
      "inputs": [],
      "stateMutability": "nonpayable",
      "type": "constructor"
    },
    {
      "anonymous": false,
      "inputs": [
        {
          "indexed": true,
          "internalType": "address",
          "name": "owner",
          "type": "address"
        },
        {
          "indexed": true,
          "internalType": "address",
          "name": "spender",
          "type": "address"
        },
        {
          "indexed": false,
          "internalType": "uint256",
          "name": "value",
          "type": "uint256"
        }
      ],
      "name": "Approval",
      "type": "event"
    },
    {
      "anonymous": false,
      "inputs": [
        {
          "indexed": true,
          "internalType": "address",
          "name": "previousOwner",
          "type": "address"
        },
        {
          "indexed": true,
          "internalType": "address",
          "name": "newOwner",
          "type": "address"
        }
      ],
      "name": "OwnershipTransferred",
      "type": "event"
    },
    {
      "anonymous": false,
      "inputs": [
        {
          "indexed": true,
          "internalType": "bytes32",
          "name": "role",
          "type": "bytes32"
        },
        {
          "indexed": true,
          "internalType": "bytes32",
          "name": "previousAdminRole",
          "type": "bytes32"
        },
        {
          "indexed": true,
          "internalType": "bytes32",
          "name": "newAdminRole",
          "type": "bytes32"
        }
      ],
      "name": "RoleAdminChanged",
      "type": "event"
    },
    {
      "anonymous": false,
      "inputs": [
        {
          "indexed": true,
          "internalType": "bytes32",
          "name": "role",
          "type": "bytes32"
        },
        {
          "indexed": true,
          "internalType": "address",
          "name": "account",
          "type": "address"
        },
        {
          "indexed": true,
          "internalType": "address",
          "name": "sender",
          "type": "address"
        }
      ],
      "name": "RoleGranted",
      "type": "event"
    },
    {
      "anonymous": false,
      "inputs": [
        {
          "indexed": true,
          "internalType": "bytes32",
          "name": "role",
          "type": "bytes32"
        },
        {
          "indexed": true,
          "internalType": "address",
          "name": "account",
          "type": "address"
        },
        {
          "indexed": true,
          "internalType": "address",
          "name": "sender",
          "type": "address"
        }
      ],
      "name": "RoleRevoked",
      "type": "event"
    },
    {
      "anonymous": false,
      "inputs": [
        {
          "indexed": true,
          "internalType": "address",
          "name": "from",
          "type": "address"
        },
        {
          "indexed": true,
          "internalType": "address",
          "name": "to",
          "type": "address"
        },
        {
          "indexed": false,
          "internalType": "uint256",
          "name": "value",
          "type": "uint256"
        }
      ],
      "name": "Transfer",
      "type": "event"
    },
    {
      "inputs": [],
      "name": "DEFAULT_ADMIN_ROLE",
      "outputs": [
        {
          "internalType": "bytes32",
          "name": "",
          "type": "bytes32"
        }
      ],
      "stateMutability": "view",
      "type": "function",
      "constant": true
    },
    {
      "inputs": [],
      "name": "MINTER_BURNER_ROLE",
      "outputs": [
        {
          "internalType": "bytes32",
          "name": "",
          "type": "bytes32"
        }
      ],
      "stateMutability": "view",
      "type": "function",
      "constant": true
    },
    {
      "inputs": [
        {
          "internalType": "address",
          "name": "owner",
          "type": "address"
        },
        {
          "internalType": "address",
          "name": "spender",
          "type": "address"
        }
      ],
      "name": "allowance",
      "outputs": [
        {
          "internalType": "uint256",
          "name": "",
          "type": "uint256"
        }
      ],
      "stateMutability": "view",
      "type": "function",
      "constant": true
    },
    {
      "inputs": [
        {
          "internalType": "address",
          "name": "spender",
          "type": "address"
        },
        {
          "internalType": "uint256",
          "name": "amount",
          "type": "uint256"
        }
      ],
      "name": "approve",
      "outputs": [
        {
          "internalType": "bool",
          "name": "",
          "type": "bool"
        }
      ],
      "stateMutability": "nonpayable",
      "type": "function"
    },
    {
      "inputs": [
        {
          "internalType": "address",
          "name": "account",
          "type": "address"
        }
      ],
      "name": "balanceOf",
      "outputs": [
        {
          "internalType": "uint256",
          "name": "",
          "type": "uint256"
        }
      ],
      "stateMutability": "view",
      "type": "function",
      "constant": true
    },
    {
      "inputs": [],
      "name": "decimals",
      "outputs": [
        {
          "internalType": "uint8",
          "name": "",
          "type": "uint8"
        }
      ],
      "stateMutability": "view",
      "type": "function",
      "constant": true
    },
    {
      "inputs": [
        {
          "internalType": "address",
          "name": "spender",
          "type": "address"
        },
        {
          "internalType": "uint256",
          "name": "subtractedValue",
          "type": "uint256"
        }
      ],
      "name": "decreaseAllowance",
      "outputs": [
        {
          "internalType": "bool",
          "name": "",
          "type": "bool"
        }
      ],
      "stateMutability": "nonpayable",
      "type": "function"
    },
    {
      "inputs": [
        {
          "internalType": "bytes32",
          "name": "role",
          "type": "bytes32"
        }
      ],
      "name": "getRoleAdmin",
      "outputs": [
        {
          "internalType": "bytes32",
          "name": "",
          "type": "bytes32"
        }
      ],
      "stateMutability": "view",
      "type": "function",
      "constant": true
    },
    {
      "inputs": [
        {
          "internalType": "bytes32",
          "name": "role",
          "type": "bytes32"
        },
        {
          "internalType": "address",
          "name": "account",
          "type": "address"
        }
      ],
      "name": "grantRole",
      "outputs": [],
      "stateMutability": "nonpayable",
      "type": "function"
    },
    {
      "inputs": [
        {
          "internalType": "bytes32",
          "name": "role",
          "type": "bytes32"
        },
        {
          "internalType": "address",
          "name": "account",
          "type": "address"
        }
      ],
      "name": "hasRole",
      "outputs": [
        {
          "internalType": "bool",
          "name": "",
          "type": "bool"
        }
      ],
      "stateMutability": "view",
      "type": "function",
      "constant": true
    },
    {
      "inputs": [
        {
          "internalType": "address",
          "name": "spender",
          "type": "address"
        },
        {
          "internalType": "uint256",
          "name": "addedValue",
          "type": "uint256"
        }
      ],
      "name": "increaseAllowance",
      "outputs": [
        {
          "internalType": "bool",
          "name": "",
          "type": "bool"
        }
      ],
      "stateMutability": "nonpayable",
      "type": "function"
    },
    {
      "inputs": [],
      "name": "name",
      "outputs": [
        {
          "internalType": "string",
          "name": "",
          "type": "string"
        }
      ],
      "stateMutability": "view",
      "type": "function",
      "constant": true
    },
    {
      "inputs": [],
      "name": "owner",
      "outputs": [
        {
          "internalType": "address",
          "name": "",
          "type": "address"
        }
      ],
      "stateMutability": "view",
      "type": "function",
      "constant": true
    },
    {
      "inputs": [],
      "name": "renounceOwnership",
      "outputs": [],
      "stateMutability": "nonpayable",
      "type": "function"
    },
    {
      "inputs": [
        {
          "internalType": "bytes32",
          "name": "role",
          "type": "bytes32"
        },
        {
          "internalType": "address",
          "name": "account",
          "type": "address"
        }
      ],
      "name": "renounceRole",
      "outputs": [],
      "stateMutability": "nonpayable",
      "type": "function"
    },
    {
      "inputs": [
        {
          "internalType": "bytes32",
          "name": "role",
          "type": "bytes32"
        },
        {
          "internalType": "address",
          "name": "account",
          "type": "address"
        }
      ],
      "name": "revokeRole",
      "outputs": [],
      "stateMutability": "nonpayable",
      "type": "function"
    },
    {
      "inputs": [
        {
          "internalType": "bytes4",
          "name": "interfaceId",
          "type": "bytes4"
        }
      ],
      "name": "supportsInterface",
      "outputs": [
        {
          "internalType": "bool",
          "name": "",
          "type": "bool"
        }
      ],
      "stateMutability": "view",
      "type": "function",
      "constant": true
    },
    {
      "inputs": [],
      "name": "symbol",
      "outputs": [
        {
          "internalType": "string",
          "name": "",
          "type": "string"
        }
      ],
      "stateMutability": "view",
      "type": "function",
      "constant": true
    },
    {
      "inputs": [],
      "name": "totalBurnedToken",
      "outputs": [
        {
          "internalType": "uint256",
          "name": "",
          "type": "uint256"
        }
      ],
      "stateMutability": "view",
      "type": "function",
      "constant": true
    },
    {
      "inputs": [],
      "name": "totalMintedToken",
      "outputs": [
        {
          "internalType": "uint256",
          "name": "",
          "type": "uint256"
        }
      ],
      "stateMutability": "view",
      "type": "function",
      "constant": true
    },
    {
      "inputs": [],
      "name": "totalSupply",
      "outputs": [
        {
          "internalType": "uint256",
          "name": "",
          "type": "uint256"
        }
      ],
      "stateMutability": "view",
      "type": "function",
      "constant": true
    },
    {
      "inputs": [
        {
          "internalType": "address",
          "name": "recipient",
          "type": "address"
        },
        {
          "internalType": "uint256",
          "name": "amount",
          "type": "uint256"
        }
      ],
      "name": "transfer",
      "outputs": [
        {
          "internalType": "bool",
          "name": "",
          "type": "bool"
        }
      ],
      "stateMutability": "nonpayable",
      "type": "function"
    },
    {
      "inputs": [
        {
          "internalType": "address",
          "name": "sender",
          "type": "address"
        },
        {
          "internalType": "address",
          "name": "recipient",
          "type": "address"
        },
        {
          "internalType": "uint256",
          "name": "amount",
          "type": "uint256"
        }
      ],
      "name": "transferFrom",
      "outputs": [
        {
          "internalType": "bool",
          "name": "",
          "type": "bool"
        }
      ],
      "stateMutability": "nonpayable",
      "type": "function"
    },
    {
      "inputs": [
        {
          "internalType": "address",
          "name": "newOwner",
          "type": "address"
        }
      ],
      "name": "transferOwnership",
      "outputs": [],
      "stateMutability": "nonpayable",
      "type": "function"
    },
    {
      "inputs": [
        {
          "internalType": "address",
          "name": "minterBurnerAddress",
          "type": "address"
        }
      ],
      "name": "grandAccessRole",
      "outputs": [],
      "stateMutability": "nonpayable",
      "type": "function"
    },
    {
      "inputs": [
        {
          "internalType": "string",
          "name": "role",
          "type": "string"
        },
        {
          "internalType": "address",
          "name": "account",
          "type": "address"
        }
      ],
      "name": "revokeAccess",
      "outputs": [],
      "stateMutability": "nonpayable",
      "type": "function"
    },
    {
      "inputs": [
        {
          "internalType": "address",
          "name": "to",
          "type": "address"
        },
        {
          "internalType": "uint256",
          "name": "amount",
          "type": "uint256"
        }
      ],
      "name": "mint",
      "outputs": [],
      "stateMutability": "nonpayable",
      "type": "function"
    },
    {
      "inputs": [
        {
          "internalType": "address",
          "name": "from",
          "type": "address"
        },
        {
          "internalType": "uint256",
          "name": "amount",
          "type": "uint256"
        }
      ],
      "name": "burn",
      "outputs": [],
      "stateMutability": "nonpayable",
      "type": "function"
    }
  ],
  "bytecode": "0x60806040523480156200001157600080fd5b506040518060400160405280601081526020017f4255534458205465737420546f6b656e000000000000000000000000000000008152506040518060400160405280600681526020017f4255534458540000000000000000000000000000000000000000000000000000815250816003908051906020019062000096929190620004fc565b508060049080519060200190620000af929190620004fc565b505050620000d2620000c66200012f60201b60201c565b6200013760201b60201c565b6200011433620000e7620001fd60201b60201c565b60ff16600a620000f8919062000739565b620f42406200010891906200078a565b6200020660201b60201c565b620001296000801b336200037f60201b60201c565b6200095e565b600033905090565b6000600560009054906101000a900473ffffffffffffffffffffffffffffffffffffffff16905081600560006101000a81548173ffffffffffffffffffffffffffffffffffffffff021916908373ffffffffffffffffffffffffffffffffffffffff1602179055508173ffffffffffffffffffffffffffffffffffffffff168173ffffffffffffffffffffffffffffffffffffffff167f8be0079c531659141344cd1fd0a4f28419497f9722a3daafe3b4186f6b6457e060405160405180910390a35050565b60006012905090565b600073ffffffffffffffffffffffffffffffffffffffff168273ffffffffffffffffffffffffffffffffffffffff16141562000279576040517f08c379a000000000000000000000000000000000000000000000000000000000815260040162000270906200084c565b60405180910390fd5b6200028d600083836200039560201b60201c565b8060026000828254620002a191906200086e565b92505081905550806000808473ffffffffffffffffffffffffffffffffffffffff1673ffffffffffffffffffffffffffffffffffffffff1681526020019081526020016000206000828254620002f891906200086e565b925050819055508173ffffffffffffffffffffffffffffffffffffffff16600073ffffffffffffffffffffffffffffffffffffffff167fddf252ad1be2c89b69c2b068fc378daa952ba7f163c4a11628f55a4df523b3ef836040516200035f9190620008dc565b60405180910390a36200037b600083836200039a60201b60201c565b5050565b6200039182826200039f60201b60201c565b5050565b505050565b505050565b620003b182826200049160201b60201c565b6200048d5760016006600084815260200190815260200160002060000160008373ffffffffffffffffffffffffffffffffffffffff1673ffffffffffffffffffffffffffffffffffffffff16815260200190815260200160002060006101000a81548160ff021916908315150217905550620004326200012f60201b60201c565b73ffffffffffffffffffffffffffffffffffffffff168173ffffffffffffffffffffffffffffffffffffffff16837f2f8788117e7eff1d82e926ec794901d17c78024a50270940304540a733656f0d60405160405180910390a45b5050565b60006006600084815260200190815260200160002060000160008373ffffffffffffffffffffffffffffffffffffffff1673ffffffffffffffffffffffffffffffffffffffff16815260200190815260200160002060009054906101000a900460ff16905092915050565b8280546200050a9062000928565b90600052602060002090601f0160209004810192826200052e57600085556200057a565b82601f106200054957805160ff19168380011785556200057a565b828001600101855582156200057a579182015b82811115620005795782518255916020019190600101906200055c565b5b5090506200058991906200058d565b5090565b5b80821115620005a85760008160009055506001016200058e565b5090565b7f4e487b7100000000000000000000000000000000000000000000000000000000600052601160045260246000fd5b60008160011c9050919050565b6000808291508390505b60018511156200063a57808604811115620006125762000611620005ac565b5b6001851615620006225780820291505b80810290506200063285620005db565b9450620005f2565b94509492505050565b60008262000655576001905062000728565b8162000665576000905062000728565b81600181146200067e57600281146200068957620006bf565b600191505062000728565b60ff8411156200069e576200069d620005ac565b5b8360020a915084821115620006b857620006b7620005ac565b5b5062000728565b5060208310610133831016604e8410600b8410161715620006f95782820a905083811115620006f357620006f2620005ac565b5b62000728565b620007088484846001620005e8565b92509050818404811115620007225762000721620005ac565b5b81810290505b9392505050565b6000819050919050565b600062000746826200072f565b915062000753836200072f565b9250620007827fffffffffffffffffffffffffffffffffffffffffffffffffffffffffffffffff848462000643565b905092915050565b600062000797826200072f565b9150620007a4836200072f565b9250817fffffffffffffffffffffffffffffffffffffffffffffffffffffffffffffffff0483118215151615620007e057620007df620005ac565b5b828202905092915050565b600082825260208201905092915050565b7f45524332303a206d696e7420746f20746865207a65726f206164647265737300600082015250565b600062000834601f83620007eb565b91506200084182620007fc565b602082019050919050565b60006020820190508181036000830152620008678162000825565b9050919050565b60006200087b826200072f565b915062000888836200072f565b9250827fffffffffffffffffffffffffffffffffffffffffffffffffffffffffffffffff03821115620008c057620008bf620005ac565b5b828201905092915050565b620008d6816200072f565b82525050565b6000602082019050620008f36000830184620008cb565b92915050565b7f4e487b7100000000000000000000000000000000000000000000000000000000600052602260045260246000fd5b600060028204905060018216806200094157607f821691505b60208210811415620009585762000957620008f9565b5b50919050565b613155806200096e6000396000f3fe608060405234801561001057600080fd5b50600436106101c45760003560e01c8063715018a6116100f9578063a217fddf11610097578063d547741f11610071578063d547741f1461051d578063dd62ed3e14610539578063dfe0b5fe14610569578063f2fde38b14610585576101c4565b8063a217fddf1461049f578063a457c2d7146104bd578063a9059cbb146104ed576101c4565b806391d14854116100d357806391d1485414610419578063925dc4e01461044957806395d89b41146104655780639dc29fac14610483576101c4565b8063715018a6146103d357806372c32860146103dd5780638da5cb5b146103fb576101c4565b80632898410b1161016657806336568abe1161014057806336568abe1461033b578063395093511461035757806340c10f191461038757806370a08231146103a3576101c4565b80632898410b146102e35780632f2ff15d14610301578063313ce5671461031d576101c4565b80630de97c41116101a25780630de97c411461024757806318160ddd1461026557806323b872dd14610283578063248a9ca3146102b3576101c4565b806301ffc9a7146101c957806306fdde03146101f9578063095ea7b314610217575b600080fd5b6101e360048036038101906101de9190611f0c565b6105a1565b6040516101f09190611f54565b60405180910390f35b61020161061b565b60405161020e9190612008565b60405180910390f35b610231600480360381019061022c91906120be565b6106ad565b60405161023e9190611f54565b60405180910390f35b61024f6106cb565b60405161025c919061210d565b60405180910390f35b61026d6106d1565b60405161027a919061210d565b60405180910390f35b61029d60048036038101906102989190612128565b6106db565b6040516102aa9190611f54565b60405180910390f35b6102cd60048036038101906102c891906121b1565b6107d3565b6040516102da91906121ed565b60405180910390f35b6102eb6107f3565b6040516102f8919061210d565b60405180910390f35b61031b60048036038101906103169190612208565b6107f9565b005b610325610822565b6040516103329190612264565b60405180910390f35b61035560048036038101906103509190612208565b61082b565b005b610371600480360381019061036c91906120be565b6108ae565b60405161037e9190611f54565b60405180910390f35b6103a1600480360381019061039c91906120be565b61095a565b005b6103bd60048036038101906103b8919061227f565b6109e5565b6040516103ca919061210d565b60405180910390f35b6103db610a2d565b005b6103e5610ab5565b6040516103f291906121ed565b60405180910390f35b610403610ad9565b60405161041091906122bb565b60405180910390f35b610433600480360381019061042e9190612208565b610b03565b6040516104409190611f54565b60405180910390f35b610463600480360381019061045e919061227f565b610b6e565b005b61046d610c17565b60405161047a9190612008565b60405180910390f35b61049d600480360381019061049891906120be565b610ca9565b005b6104a7610d34565b6040516104b491906121ed565b60405180910390f35b6104d760048036038101906104d291906120be565b610d3b565b6040516104e49190611f54565b60405180910390f35b610507600480360381019061050291906120be565b610e26565b6040516105149190611f54565b60405180910390f35b61053760048036038101906105329190612208565b610e44565b005b610553600480360381019061054e91906122d6565b610e6d565b604051610560919061210d565b60405180910390f35b610583600480360381019061057e919061244b565b610ef4565b005b61059f600480360381019061059a919061227f565b611039565b005b60007f7965db0b000000000000000000000000000000000000000000000000000000007bffffffffffffffffffffffffffffffffffffffffffffffffffffffff1916827bffffffffffffffffffffffffffffffffffffffffffffffffffffffff19161480610614575061061382611131565b5b9050919050565b60606003805461062a906124d6565b80601f0160208091040260200160405190810160405280929190818152602001828054610656906124d6565b80156106a35780601f10610678576101008083540402835291602001916106a3565b820191906000526020600020905b81548152906001019060200180831161068657829003601f168201915b5050505050905090565b60006106c16106ba61119b565b84846111a3565b6001905092915050565b60075481565b6000600254905090565b60006106e884848461136e565b6000600160008673ffffffffffffffffffffffffffffffffffffffff1673ffffffffffffffffffffffffffffffffffffffff168152602001908152602001600020600061073361119b565b73ffffffffffffffffffffffffffffffffffffffff1673ffffffffffffffffffffffffffffffffffffffff168152602001908152602001600020549050828110156107b3576040517f08c379a00000000000000000000000000000000000000000000000000000000081526004016107aa9061257a565b60405180910390fd5b6107c7856107bf61119b565b8584036111a3565b60019150509392505050565b600060066000838152602001908152602001600020600101549050919050565b60085481565b610802826107d3565b6108138161080e61119b565b6115ef565b61081d838361168c565b505050565b60006012905090565b61083361119b565b73ffffffffffffffffffffffffffffffffffffffff168173ffffffffffffffffffffffffffffffffffffffff16146108a0576040517f08c379a00000000000000000000000000000000000000000000000000000000081526004016108979061260c565b60405180910390fd5b6108aa828261176d565b5050565b60006109506108bb61119b565b8484600160006108c961119b565b73ffffffffffffffffffffffffffffffffffffffff1673ffffffffffffffffffffffffffffffffffffffff16815260200190815260200160002060008873ffffffffffffffffffffffffffffffffffffffff1673ffffffffffffffffffffffffffffffffffffffff1681526020019081526020016000205461094b919061265b565b6111a3565b6001905092915050565b6109847fcfd53186d792f1ec9d0679afc2dc3ffc86fc31fe1e0f342b838eb6c3eade62b333610b03565b6109c3576040517f08c379a00000000000000000000000000000000000000000000000000000000081526004016109ba906126fd565b60405180910390fd5b6109cd828261184f565b806008546109db919061265b565b6008819055505050565b60008060008373ffffffffffffffffffffffffffffffffffffffff1673ffffffffffffffffffffffffffffffffffffffff168152602001908152602001600020549050919050565b610a3561119b565b73ffffffffffffffffffffffffffffffffffffffff16610a53610ad9565b73ffffffffffffffffffffffffffffffffffffffff1614610aa9576040517f08c379a0000000000000000000000000000000000000000000000000000000008152600401610aa090612769565b60405180910390fd5b610ab360006119af565b565b7fcfd53186d792f1ec9d0679afc2dc3ffc86fc31fe1e0f342b838eb6c3eade62b381565b6000600560009054906101000a900473ffffffffffffffffffffffffffffffffffffffff16905090565b60006006600084815260200190815260200160002060000160008373ffffffffffffffffffffffffffffffffffffffff1673ffffffffffffffffffffffffffffffffffffffff16815260200190815260200160002060009054906101000a900460ff16905092915050565b610b7661119b565b73ffffffffffffffffffffffffffffffffffffffff16610b94610ad9565b73ffffffffffffffffffffffffffffffffffffffff1614610bea576040517f08c379a0000000000000000000000000000000000000000000000000000000008152600401610be190612769565b60405180910390fd5b610c147fcfd53186d792f1ec9d0679afc2dc3ffc86fc31fe1e0f342b838eb6c3eade62b382611a75565b50565b606060048054610c26906124d6565b80601f0160208091040260200160405190810160405280929190818152602001828054610c52906124d6565b8015610c9f5780601f10610c7457610100808354040283529160200191610c9f565b820191906000526020600020905b815481529060010190602001808311610c8257829003601f168201915b5050505050905090565b610cd37fcfd53186d792f1ec9d0679afc2dc3ffc86fc31fe1e0f342b838eb6c3eade62b333610b03565b610d12576040517f08c379a0000000000000000000000000000000000000000000000000000000008152600401610d09906127d5565b60405180910390fd5b610d1c8282611a83565b80600754610d2a919061265b565b6007819055505050565b6000801b81565b60008060016000610d4a61119b565b73ffffffffffffffffffffffffffffffffffffffff1673ffffffffffffffffffffffffffffffffffffffff16815260200190815260200160002060008573ffffffffffffffffffffffffffffffffffffffff1673ffffffffffffffffffffffffffffffffffffffff16815260200190815260200160002054905082811015610e07576040517f08c379a0000000000000000000000000000000000000000000000000000000008152600401610dfe90612867565b60405180910390fd5b610e1b610e1261119b565b858584036111a3565b600191505092915050565b6000610e3a610e3361119b565b848461136e565b6001905092915050565b610e4d826107d3565b610e5e81610e5961119b565b6115ef565b610e68838361176d565b505050565b6000600160008473ffffffffffffffffffffffffffffffffffffffff1673ffffffffffffffffffffffffffffffffffffffff16815260200190815260200160002060008373ffffffffffffffffffffffffffffffffffffffff1673ffffffffffffffffffffffffffffffffffffffff16815260200190815260200160002054905092915050565b610efc61119b565b73ffffffffffffffffffffffffffffffffffffffff16610f1a610ad9565b73ffffffffffffffffffffffffffffffffffffffff1614610f70576040517f08c379a0000000000000000000000000000000000000000000000000000000008152600401610f6790612769565b60405180910390fd5b600082604051602001610f8391906128c3565b6040516020818303038152906040528051906020012090506000801b811415610fe1576040517f08c379a0000000000000000000000000000000000000000000000000000000008152600401610fd89061294c565b60405180910390fd5b610feb8183610b03565b61102a576040517f08c379a0000000000000000000000000000000000000000000000000000000008152600401611021906129de565b60405180910390fd5b6110348183610e44565b505050565b61104161119b565b73ffffffffffffffffffffffffffffffffffffffff1661105f610ad9565b73ffffffffffffffffffffffffffffffffffffffff16146110b5576040517f08c379a00000000000000000000000000000000000000000000000000000000081526004016110ac90612769565b60405180910390fd5b600073ffffffffffffffffffffffffffffffffffffffff168173ffffffffffffffffffffffffffffffffffffffff161415611125576040517f08c379a000000000000000000000000000000000000000000000000000000000815260040161111c90612a70565b60405180910390fd5b61112e816119af565b50565b60007f01ffc9a7000000000000000000000000000000000000000000000000000000007bffffffffffffffffffffffffffffffffffffffffffffffffffffffff1916827bffffffffffffffffffffffffffffffffffffffffffffffffffffffff1916149050919050565b600033905090565b600073ffffffffffffffffffffffffffffffffffffffff168373ffffffffffffffffffffffffffffffffffffffff161415611213576040517f08c379a000000000000000000000000000000000000000000000000000000000815260040161120a90612b02565b60405180910390fd5b600073ffffffffffffffffffffffffffffffffffffffff168273ffffffffffffffffffffffffffffffffffffffff161415611283576040517f08c379a000000000000000000000000000000000000000000000000000000000815260040161127a90612b94565b60405180910390fd5b80600160008573ffffffffffffffffffffffffffffffffffffffff1673ffffffffffffffffffffffffffffffffffffffff16815260200190815260200160002060008473ffffffffffffffffffffffffffffffffffffffff1673ffffffffffffffffffffffffffffffffffffffff168152602001908152602001600020819055508173ffffffffffffffffffffffffffffffffffffffff168373ffffffffffffffffffffffffffffffffffffffff167f8c5be1e5ebec7d5bd14f71427d1e84f3dd0314c0f7b2291e5b200ac8c7c3b92583604051611361919061210d565b60405180910390a3505050565b600073ffffffffffffffffffffffffffffffffffffffff168373ffffffffffffffffffffffffffffffffffffffff1614156113de576040517f08c379a00000000000000000000000000000000000000000000000000000000081526004016113d590612c26565b60405180910390fd5b600073ffffffffffffffffffffffffffffffffffffffff168273ffffffffffffffffffffffffffffffffffffffff16141561144e576040517f08c379a000000000000000000000000000000000000000000000000000000000815260040161144590612cb8565b60405180910390fd5b611459838383611c5a565b60008060008573ffffffffffffffffffffffffffffffffffffffff1673ffffffffffffffffffffffffffffffffffffffff168152602001908152602001600020549050818110156114df576040517f08c379a00000000000000000000000000000000000000000000000000000000081526004016114d690612d4a565b60405180910390fd5b8181036000808673ffffffffffffffffffffffffffffffffffffffff1673ffffffffffffffffffffffffffffffffffffffff16815260200190815260200160002081905550816000808573ffffffffffffffffffffffffffffffffffffffff1673ffffffffffffffffffffffffffffffffffffffff1681526020019081526020016000206000828254611572919061265b565b925050819055508273ffffffffffffffffffffffffffffffffffffffff168473ffffffffffffffffffffffffffffffffffffffff167fddf252ad1be2c89b69c2b068fc378daa952ba7f163c4a11628f55a4df523b3ef846040516115d6919061210d565b60405180910390a36115e9848484611c5f565b50505050565b6115f98282610b03565b6116885761161e8173ffffffffffffffffffffffffffffffffffffffff166014611c64565b61162c8360001c6020611c64565b60405160200161163d929190612e02565b6040516020818303038152906040526040517f08c379a000000000000000000000000000000000000000000000000000000000815260040161167f9190612008565b60405180910390fd5b5050565b6116968282610b03565b6117695760016006600084815260200190815260200160002060000160008373ffffffffffffffffffffffffffffffffffffffff1673ffffffffffffffffffffffffffffffffffffffff16815260200190815260200160002060006101000a81548160ff02191690831515021790555061170e61119b565b73ffffffffffffffffffffffffffffffffffffffff168173ffffffffffffffffffffffffffffffffffffffff16837f2f8788117e7eff1d82e926ec794901d17c78024a50270940304540a733656f0d60405160405180910390a45b5050565b6117778282610b03565b1561184b5760006006600084815260200190815260200160002060000160008373ffffffffffffffffffffffffffffffffffffffff1673ffffffffffffffffffffffffffffffffffffffff16815260200190815260200160002060006101000a81548160ff0219169083151502179055506117f061119b565b73ffffffffffffffffffffffffffffffffffffffff168173ffffffffffffffffffffffffffffffffffffffff16837ff6391f5c32d9c69d2a47ea670b442974b53935d1edc7fd64eb21e047a839171b60405160405180910390a45b5050565b600073ffffffffffffffffffffffffffffffffffffffff168273ffffffffffffffffffffffffffffffffffffffff1614156118bf576040517f08c379a00000000000000000000000000000000000000000000000000000000081526004016118b690612e88565b60405180910390fd5b6118cb60008383611c5a565b80600260008282546118dd919061265b565b92505081905550806000808473ffffffffffffffffffffffffffffffffffffffff1673ffffffffffffffffffffffffffffffffffffffff1681526020019081526020016000206000828254611932919061265b565b925050819055508173ffffffffffffffffffffffffffffffffffffffff16600073ffffffffffffffffffffffffffffffffffffffff167fddf252ad1be2c89b69c2b068fc378daa952ba7f163c4a11628f55a4df523b3ef83604051611997919061210d565b60405180910390a36119ab60008383611c5f565b5050565b6000600560009054906101000a900473ffffffffffffffffffffffffffffffffffffffff16905081600560006101000a81548173ffffffffffffffffffffffffffffffffffffffff021916908373ffffffffffffffffffffffffffffffffffffffff1602179055508173ffffffffffffffffffffffffffffffffffffffff168173ffffffffffffffffffffffffffffffffffffffff167f8be0079c531659141344cd1fd0a4f28419497f9722a3daafe3b4186f6b6457e060405160405180910390a35050565b611a7f828261168c565b5050565b600073ffffffffffffffffffffffffffffffffffffffff168273ffffffffffffffffffffffffffffffffffffffff161415611af3576040517f08c379a0000000000000000000000000000000000000000000000000000000008152600401611aea90612f1a565b60405180910390fd5b611aff82600083611c5a565b60008060008473ffffffffffffffffffffffffffffffffffffffff1673ffffffffffffffffffffffffffffffffffffffff16815260200190815260200160002054905081811015611b85576040517f08c379a0000000000000000000000000000000000000000000000000000000008152600401611b7c90612fac565b60405180910390fd5b8181036000808573ffffffffffffffffffffffffffffffffffffffff1673ffffffffffffffffffffffffffffffffffffffff168152602001908152602001600020819055508160026000828254611bdc9190612fcc565b92505081905550600073ffffffffffffffffffffffffffffffffffffffff168373ffffffffffffffffffffffffffffffffffffffff167fddf252ad1be2c89b69c2b068fc378daa952ba7f163c4a11628f55a4df523b3ef84604051611c41919061210d565b60405180910390a3611c5583600084611c5f565b505050565b505050565b505050565b606060006002836002611c779190613000565b611c81919061265b565b67ffffffffffffffff811115611c9a57611c99612320565b5b6040519080825280601f01601f191660200182016040528015611ccc5781602001600182028036833780820191505090505b5090507f300000000000000000000000000000000000000000000000000000000000000081600081518110611d0457611d0361305a565b5b60200101907effffffffffffffffffffffffffffffffffffffffffffffffffffffffffffff1916908160001a9053507f780000000000000000000000000000000000000000000000000000000000000081600181518110611d6857611d6761305a565b5b60200101907effffffffffffffffffffffffffffffffffffffffffffffffffffffffffffff1916908160001a90535060006001846002611da89190613000565b611db2919061265b565b90505b6001811115611e52577f3031323334353637383961626364656600000000000000000000000000000000600f861660108110611df457611df361305a565b5b1a60f81b828281518110611e0b57611e0a61305a565b5b60200101907effffffffffffffffffffffffffffffffffffffffffffffffffffffffffffff1916908160001a905350600485901c945080611e4b90613089565b9050611db5565b5060008414611e96576040517f08c379a0000000000000000000000000000000000000000000000000000000008152600401611e8d906130ff565b60405180910390fd5b8091505092915050565b6000604051905090565b600080fd5b600080fd5b60007fffffffff0000000000000000000000000000000000000000000000000000000082169050919050565b611ee981611eb4565b8114611ef457600080fd5b50565b600081359050611f0681611ee0565b92915050565b600060208284031215611f2257611f21611eaa565b5b6000611f3084828501611ef7565b91505092915050565b60008115159050919050565b611f4e81611f39565b82525050565b6000602082019050611f696000830184611f45565b92915050565b600081519050919050565b600082825260208201905092915050565b60005b83811015611fa9578082015181840152602081019050611f8e565b83811115611fb8576000848401525b50505050565b6000601f19601f8301169050919050565b6000611fda82611f6f565b611fe48185611f7a565b9350611ff4818560208601611f8b565b611ffd81611fbe565b840191505092915050565b600060208201905081810360008301526120228184611fcf565b905092915050565b600073ffffffffffffffffffffffffffffffffffffffff82169050919050565b60006120558261202a565b9050919050565b6120658161204a565b811461207057600080fd5b50565b6000813590506120828161205c565b92915050565b6000819050919050565b61209b81612088565b81146120a657600080fd5b50565b6000813590506120b881612092565b92915050565b600080604083850312156120d5576120d4611eaa565b5b60006120e385828601612073565b92505060206120f4858286016120a9565b9150509250929050565b61210781612088565b82525050565b600060208201905061212260008301846120fe565b92915050565b60008060006060848603121561214157612140611eaa565b5b600061214f86828701612073565b935050602061216086828701612073565b9250506040612171868287016120a9565b9150509250925092565b6000819050919050565b61218e8161217b565b811461219957600080fd5b50565b6000813590506121ab81612185565b92915050565b6000602082840312156121c7576121c6611eaa565b5b60006121d58482850161219c565b91505092915050565b6121e78161217b565b82525050565b600060208201905061220260008301846121de565b92915050565b6000806040838503121561221f5761221e611eaa565b5b600061222d8582860161219c565b925050602061223e85828601612073565b9150509250929050565b600060ff82169050919050565b61225e81612248565b82525050565b60006020820190506122796000830184612255565b92915050565b60006020828403121561229557612294611eaa565b5b60006122a384828501612073565b91505092915050565b6122b58161204a565b82525050565b60006020820190506122d060008301846122ac565b92915050565b600080604083850312156122ed576122ec611eaa565b5b60006122fb85828601612073565b925050602061230c85828601612073565b9150509250929050565b600080fd5b600080fd5b7f4e487b7100000000000000000000000000000000000000000000000000000000600052604160045260246000fd5b61235882611fbe565b810181811067ffffffffffffffff8211171561237757612376612320565b5b80604052505050565b600061238a611ea0565b9050612396828261234f565b919050565b600067ffffffffffffffff8211156123b6576123b5612320565b5b6123bf82611fbe565b9050602081019050919050565b82818337600083830152505050565b60006123ee6123e98461239b565b612380565b90508281526020810184848401111561240a5761240961231b565b5b6124158482856123cc565b509392505050565b600082601f83011261243257612431612316565b5b81356124428482602086016123db565b91505092915050565b6000806040838503121561246257612461611eaa565b5b600083013567ffffffffffffffff8111156124805761247f611eaf565b5b61248c8582860161241d565b925050602061249d85828601612073565b9150509250929050565b7f4e487b7100000000000000000000000000000000000000000000000000000000600052602260045260246000fd5b600060028204905060018216806124ee57607f821691505b60208210811415612502576125016124a7565b5b50919050565b7f45524332303a207472616e7366657220616d6f756e742065786365656473206160008201527f6c6c6f77616e6365000000000000000000000000000000000000000000000000602082015250565b6000612564602883611f7a565b915061256f82612508565b604082019050919050565b6000602082019050818103600083015261259381612557565b9050919050565b7f416363657373436f6e74726f6c3a2063616e206f6e6c792072656e6f756e636560008201527f20726f6c657320666f722073656c660000000000000000000000000000000000602082015250565b60006125f6602f83611f7a565b91506126018261259a565b604082019050919050565b60006020820190508181036000830152612625816125e9565b9050919050565b7f4e487b7100000000000000000000000000000000000000000000000000000000600052601160045260246000fd5b600061266682612088565b915061267183612088565b9250827fffffffffffffffffffffffffffffffffffffffffffffffffffffffffffffffff038211156126a6576126a561262c565b5b828201905092915050565b7f43616c6c6572206973206e6f742061206d696e74657200000000000000000000600082015250565b60006126e7601683611f7a565b91506126f2826126b1565b602082019050919050565b60006020820190508181036000830152612716816126da565b9050919050565b7f4f776e61626c653a2063616c6c6572206973206e6f7420746865206f776e6572600082015250565b6000612753602083611f7a565b915061275e8261271d565b602082019050919050565b6000602082019050818103600083015261278281612746565b9050919050565b7f43616c6c6572206973206e6f742061204275726e657200000000000000000000600082015250565b60006127bf601683611f7a565b91506127ca82612789565b602082019050919050565b600060208201905081810360008301526127ee816127b2565b9050919050565b7f45524332303a2064656372656173656420616c6c6f77616e63652062656c6f7760008201527f207a65726f000000000000000000000000000000000000000000000000000000602082015250565b6000612851602583611f7a565b915061285c826127f5565b604082019050919050565b6000602082019050818103600083015261288081612844565b9050919050565b600081905092915050565b600061289d82611f6f565b6128a78185612887565b93506128b7818560208601611f8b565b80840191505092915050565b60006128cf8284612892565b915081905092915050565b7f4d6f646966696564416363657373436f6e74726f6c3a2063616e6e6f7420726560008201527f766f6b652064656661756c742061646d696e20726f6c65000000000000000000602082015250565b6000612936603783611f7a565b9150612941826128da565b604082019050919050565b6000602082019050818103600083015261296581612929565b9050919050565b7f436f756c646e27742066696e642074686973206164647265737320696e20746860008201527f6520726f6c65732e200000000000000000000000000000000000000000000000602082015250565b60006129c8602983611f7a565b91506129d38261296c565b604082019050919050565b600060208201905081810360008301526129f7816129bb565b9050919050565b7f4f776e61626c653a206e6577206f776e657220697320746865207a65726f206160008201527f6464726573730000000000000000000000000000000000000000000000000000602082015250565b6000612a5a602683611f7a565b9150612a65826129fe565b604082019050919050565b60006020820190508181036000830152612a8981612a4d565b9050919050565b7f45524332303a20617070726f76652066726f6d20746865207a65726f2061646460008201527f7265737300000000000000000000000000000000000000000000000000000000602082015250565b6000612aec602483611f7a565b9150612af782612a90565b604082019050919050565b60006020820190508181036000830152612b1b81612adf565b9050919050565b7f45524332303a20617070726f766520746f20746865207a65726f20616464726560008201527f7373000000000000000000000000000000000000000000000000000000000000602082015250565b6000612b7e602283611f7a565b9150612b8982612b22565b604082019050919050565b60006020820190508181036000830152612bad81612b71565b9050919050565b7f45524332303a207472616e736665722066726f6d20746865207a65726f20616460008201527f6472657373000000000000000000000000000000000000000000000000000000602082015250565b6000612c10602583611f7a565b9150612c1b82612bb4565b604082019050919050565b60006020820190508181036000830152612c3f81612c03565b9050919050565b7f45524332303a207472616e7366657220746f20746865207a65726f206164647260008201527f6573730000000000000000000000000000000000000000000000000000000000602082015250565b6000612ca2602383611f7a565b9150612cad82612c46565b604082019050919050565b60006020820190508181036000830152612cd181612c95565b9050919050565b7f45524332303a207472616e7366657220616d6f756e742065786365656473206260008201527f616c616e63650000000000000000000000000000000000000000000000000000602082015250565b6000612d34602683611f7a565b9150612d3f82612cd8565b604082019050919050565b60006020820190508181036000830152612d6381612d27565b9050919050565b7f416363657373436f6e74726f6c3a206163636f756e7420000000000000000000600082015250565b6000612da0601783612887565b9150612dab82612d6a565b601782019050919050565b7f206973206d697373696e6720726f6c6520000000000000000000000000000000600082015250565b6000612dec601183612887565b9150612df782612db6565b601182019050919050565b6000612e0d82612d93565b9150612e198285612892565b9150612e2482612ddf565b9150612e308284612892565b91508190509392505050565b7f45524332303a206d696e7420746f20746865207a65726f206164647265737300600082015250565b6000612e72601f83611f7a565b9150612e7d82612e3c565b602082019050919050565b60006020820190508181036000830152612ea181612e65565b9050919050565b7f45524332303a206275726e2066726f6d20746865207a65726f2061646472657360008201527f7300000000000000000000000000000000000000000000000000000000000000602082015250565b6000612f04602183611f7a565b9150612f0f82612ea8565b604082019050919050565b60006020820190508181036000830152612f3381612ef7565b9050919050565b7f45524332303a206275726e20616d6f756e7420657863656564732062616c616e60008201527f6365000000000000000000000000000000000000000000000000000000000000602082015250565b6000612f96602283611f7a565b9150612fa182612f3a565b604082019050919050565b60006020820190508181036000830152612fc581612f89565b9050919050565b6000612fd782612088565b9150612fe283612088565b925082821015612ff557612ff461262c565b5b828203905092915050565b600061300b82612088565b915061301683612088565b9250817fffffffffffffffffffffffffffffffffffffffffffffffffffffffffffffffff048311821515161561304f5761304e61262c565b5b828202905092915050565b7f4e487b7100000000000000000000000000000000000000000000000000000000600052603260045260246000fd5b600061309482612088565b915060008214156130a8576130a761262c565b5b600182039050919050565b7f537472696e67733a20686578206c656e67746820696e73756666696369656e74600082015250565b60006130e9602083611f7a565b91506130f4826130b3565b602082019050919050565b60006020820190508181036000830152613118816130dc565b905091905056fea2646970667358221220f6be409253764c7abd24b3748276249b52ca0a780b3804eafba615ed6e922f9264736f6c634300080b0033",
  "immutableReferences": {},
  "source": "pragma solidity ^0.8.0;\n\nimport \"@openzeppelin/contracts/token/ERC20/ERC20.sol\";\n\nimport \"@openzeppelin/contracts/access/Ownable.sol\";\n\nimport \"@openzeppelin/contracts/access/AccessControl.sol\";\n\ncontract Token is ERC20, Ownable, AccessControl {\n    bytes32 public constant MINTER_BURNER_ROLE =\n        keccak256(\"MINTER_BURNER_ROLE\");\n\n    uint256 public totalBurnedToken;\n    uint256 public totalMintedToken;\n\n    constructor() ERC20(\"BUSDX Test Token\", \"BUSDXT\") {\n        _mint(msg.sender, 1000000 * (10**uint256(decimals())));\n        _setupRole(DEFAULT_ADMIN_ROLE, msg.sender);\n    }\n\n    function grandAccessRole(address minterBurnerAddress) public onlyOwner {\n        _setupRole(MINTER_BURNER_ROLE, minterBurnerAddress);\n    }\n\n    function revokeAccess(string memory role, address account)\n        public\n        onlyOwner\n    {\n        bytes32 roleName = keccak256(abi.encodePacked(role));\n        require(\n            roleName != DEFAULT_ADMIN_ROLE,\n            \"ModifiedAccessControl: cannot revoke default admin role\"\n        );\n        require(\n            hasRole(roleName, account),\n            \"Couldn't find this address in the roles. \"\n        );\n        revokeRole(roleName, account);\n    }\n\n    function mint(address to, uint256 amount) public {\n        // Check that the calling account has the minter role\n        require(\n            hasRole(MINTER_BURNER_ROLE, msg.sender),\n            \"Caller is not a minter\"\n        );\n        _mint(to, amount);\n        totalMintedToken = totalMintedToken + amount;\n    }\n\n    function burn(address from, uint256 amount) public {\n        // Check that the calling account has the Burner role\n        require(\n            hasRole(MINTER_BURNER_ROLE, msg.sender),\n            \"Caller is not a Burner\"\n        );\n        _burn(from, amount);\n        totalBurnedToken = totalBurnedToken + amount;\n    }\n}\n",
  "sourcePath": "/Users/aravinth/Repo/codegama/blockchain/ido_projects/ido-frontend-jason/src/contracts/Token.sol",
  "compiler": {
    "name": "solc",
    "version": "0.8.11+commit.d7f03943.Emscripten.clang"
  },
  "schemaVersion": "3.3.4",
  "updatedAt": "2022-01-11T08:30:28.179Z",
  "networkType": "ethereum",
  "devdoc": {
    "kind": "dev",
    "methods": {
      "allowance(address,address)": {
        "details": "See {IERC20-allowance}."
      },
      "approve(address,uint256)": {
        "details": "See {IERC20-approve}. Requirements: - `spender` cannot be the zero address."
      },
      "balanceOf(address)": {
        "details": "See {IERC20-balanceOf}."
      },
      "decimals()": {
        "details": "Returns the number of decimals used to get its user representation. For example, if `decimals` equals `2`, a balance of `505` tokens should be displayed to a user as `5.05` (`505 / 10 ** 2`). Tokens usually opt for a value of 18, imitating the relationship between Ether and Wei. This is the value {ERC20} uses, unless this function is overridden; NOTE: This information is only used for _display_ purposes: it in no way affects any of the arithmetic of the contract, including {IERC20-balanceOf} and {IERC20-transfer}."
      },
      "decreaseAllowance(address,uint256)": {
        "details": "Atomically decreases the allowance granted to `spender` by the caller. This is an alternative to {approve} that can be used as a mitigation for problems described in {IERC20-approve}. Emits an {Approval} event indicating the updated allowance. Requirements: - `spender` cannot be the zero address. - `spender` must have allowance for the caller of at least `subtractedValue`."
      },
      "getRoleAdmin(bytes32)": {
        "details": "Returns the admin role that controls `role`. See {grantRole} and {revokeRole}. To change a role's admin, use {_setRoleAdmin}."
      },
      "grantRole(bytes32,address)": {
        "details": "Grants `role` to `account`. If `account` had not been already granted `role`, emits a {RoleGranted} event. Requirements: - the caller must have ``role``'s admin role."
      },
      "hasRole(bytes32,address)": {
        "details": "Returns `true` if `account` has been granted `role`."
      },
      "increaseAllowance(address,uint256)": {
        "details": "Atomically increases the allowance granted to `spender` by the caller. This is an alternative to {approve} that can be used as a mitigation for problems described in {IERC20-approve}. Emits an {Approval} event indicating the updated allowance. Requirements: - `spender` cannot be the zero address."
      },
      "name()": {
        "details": "Returns the name of the token."
      },
      "owner()": {
        "details": "Returns the address of the current owner."
      },
      "renounceOwnership()": {
        "details": "Leaves the contract without owner. It will not be possible to call `onlyOwner` functions anymore. Can only be called by the current owner. NOTE: Renouncing ownership will leave the contract without an owner, thereby removing any functionality that is only available to the owner."
      },
      "renounceRole(bytes32,address)": {
        "details": "Revokes `role` from the calling account. Roles are often managed via {grantRole} and {revokeRole}: this function's purpose is to provide a mechanism for accounts to lose their privileges if they are compromised (such as when a trusted device is misplaced). If the calling account had been revoked `role`, emits a {RoleRevoked} event. Requirements: - the caller must be `account`."
      },
      "revokeRole(bytes32,address)": {
        "details": "Revokes `role` from `account`. If `account` had been granted `role`, emits a {RoleRevoked} event. Requirements: - the caller must have ``role``'s admin role."
      },
      "supportsInterface(bytes4)": {
        "details": "See {IERC165-supportsInterface}."
      },
      "symbol()": {
        "details": "Returns the symbol of the token, usually a shorter version of the name."
      },
      "totalSupply()": {
        "details": "See {IERC20-totalSupply}."
      },
      "transfer(address,uint256)": {
        "details": "See {IERC20-transfer}. Requirements: - `recipient` cannot be the zero address. - the caller must have a balance of at least `amount`."
      },
      "transferFrom(address,address,uint256)": {
        "details": "See {IERC20-transferFrom}. Emits an {Approval} event indicating the updated allowance. This is not required by the EIP. See the note at the beginning of {ERC20}. Requirements: - `sender` and `recipient` cannot be the zero address. - `sender` must have a balance of at least `amount`. - the caller must have allowance for ``sender``'s tokens of at least `amount`."
      },
      "transferOwnership(address)": {
        "details": "Transfers ownership of the contract to a new account (`newOwner`). Can only be called by the current owner."
      }
    },
    "version": 1
  },
  "userdoc": {
    "kind": "user",
    "methods": {},
    "version": 1
  }
}